:020000040800F2
:1000000050550020D500000841AB0008F9940008C5
:1000100000000000000000000000000000000000E0
:100020000000000000000000000000004DB30008C8
:100030000000000000000000E9AB0008E1B3000888
:10004000E7000008E7000008E7000008E7000008F4
:10005000E7000008E7000008E7000008393700085B
:1000600029CB0008E7000008E7000008E7000008C7
:10007000E7000008E7000008E7000008E7000008C4
:10008000E70000080000000000000000B5B4000810
:1000900000000000E7000008E7000008FD940008E9
:1000A000E7000008E7000008E7000008E700000894
:1000B000C1C20008000000000000000000000000B5
:1000C0000348854600F062FF00480047A506010886
:1000D000505500200448804704480047FEE7FEE7EB
:1000E000FEE7FEE7FEE7FEE7A5B40008C100000852
:1000F00030B5434351435C18010C130C0D465D436E
:100100002C1980B292B20546554351430A0C09049A
:100110004D1962415843010C00044019514130BD52
:10012000004870479C11010810B50446FFF7F8FF1E
:100130000068005DC007C00F10BD01466139192974
:1001400000D82038704701464139192900D820309D
:100150007047FFB585B01600044603AD51D0069830
:1001600002284ED300206860284680380699009007
:10017000491E0027FF43C16721E0714309197043FD
:10018000089A00199047002804DCB8002958C919BA
:10019000295014E068683246704301190098C06F16
:1001A0007043001908E00B789C4603780B70634697
:1001B0000370401C491C521E002AF4D17F42009853
:1001C000C16F68688142D8DC0098089BC06F3246D6
:1001D000401C70430019009006986F68401A401E3A
:1001E0000190874207DA39462046FFF7B2FF0198AF
:1001F000009C0690B3E701460098FFF7AAFF069718
:10020000ADE709B0F0BD00000549064A0868504353
:10021000054A801808604008704701490860704727
:10022000000000206D4EC6413930000003460B43EC
:100230009B0703D009E008C9121F08C0042AFAD29C
:1002400003E00B780370401C491C521EF9D2704722
:10025000D2B201E00270401C491EFBD2704700225E
:10026000F6E710B513460A4604461946FFF7F0FFB5
:10027000204610BD10B5044605E00B780370401C05
:10028000002B00D0491C521EF7D2204610BDCAB226
:10029000401E4178401C8A4202D00029F9D100203A
:1002A0007047421C0178401C0029FBD1801A70471E
:1002B00010B5002200E0521C835C8C5CA34201D18B
:1002C000002BF8D1D8B2E1B2401A10BD30B50446C7
:1002D0000020034600E05B1C934203D2E05CCD5C4F
:1002E000401BF8D030BD03460A780270401C491C00
:1002F000002AF9D118467047F8B50E460546002485
:1003000000E0641C285DFFF71EFF0746305DFFF725
:100310001AFF381A02D1295D0029F2D1F8BD000078
:100320000FB400B58DB009900B9010A9002000917A
:10033000C0430A9000200C9006480690064807909B
:100340006A4609A80F9900F0FDFA0DB008BC04B088
:10035000184700006509000885090008FFB5002757
:10036000FF4383B000205C6801909E681D46A96928
:100370007F1C049888470090296A88470028F6D196
:100380000098401C0CD0032040028443002E19DD4D
:10039000600614D500982B2809D02D280FD103E032
:1003A0000020C04307B0F0BD012080020443A969CA
:1003B0007F1C04988847761E0090002E02DD00986E
:1003C000302803D00598002825D035E001204002D0
:1003D0000443A969761E7F1C049888470090002E6C
:1003E00003DD782805D0582803D00598002810D0C0
:1003F00022E00598002801D010281DD101204002DC
:100400008443A969761E7F1C0498884700901020B9
:1004100002E0082000E00A2005900DE001214902D9
:100420000C43059A0199761E514308180190A96959
:100430007F1C049888470090002E05DD05990098E0
:1004400000F06AFA0028E9DAE96904988847A0050B
:1004500002D40120C043A5E7E00722D1600611D5F0
:100460006005019800D5404229680A1D2A60096884
:10047000220501D5087014E0220701D5088010E09C
:1004800008600EE02868011D29600068210502D57A
:100490000199017005E02107019901D5018000E073
:1004A000016038467EE7F7B582B00F460026029C11
:1004B00010F0A8F90090006801902578641C002DC8
:1004C00005D0FFF72DFE0068405DC007F5D12B2D4C
:1004D00002D02D2D1CD0641E0098002101603946E9
:1004E0002046049A00F060FA0146002F04D03868D4
:1004F000A04201D1029838600098006802280BD011
:100500000098019A0260700506D5484205B0F0BD1A
:10051000012080020643DFE70846F7E770B506468C
:1005200010F070F9046805460A220021304600F0F8
:100530008FFA2C6070BD70B5064610F063F9046840
:1005400005460A220021304600F082FA2C6070BD78
:10055000F8B502464A40D40F42004B0052085B08EF
:100560009A4202D20246084611464A0023D0C30DE1
:100570004A00DDB2120EAD1A202D35DA49020126ED
:10058000490AF6058A19002C00D0524220214F1B3F
:100590001146B9402A411018C20D9A4221D0002CB0
:1005A00017D0012D08DCDA05801AD20F8019D20786
:1005B000DBB200F08DFAF8BDDA05801A01234000A5
:1005C0001B06C01880185A428018CA0F10434900F1
:1005D00007E04908C2071143DA05801A801940086C
:1005E000801800F06DFAF8BD61000122511A001B5D
:1005F000F7E70122D2075140AAE70122D207504073
:10060000A6E7024670B54A40D30FDB0740002DD065
:100610004A002AD0010E140E000212020919400AE3
:10062000520A8418E50104465443000A120A2E04B3
:100630005043A4194219200CC543AA18120C0125D5
:10064000AD03521C521912047F39240400D0521CED
:10065000104301D44000491EC2B20C06C009201844
:10066000401C4008802A02D003E0002070BD4008F2
:100670004000002900DA0020184370BD70B5024622
:100680004A40D50F40004A00ED07400852080028B4
:1006900014D0002A12D0C40DD30D41020120C00590
:1006A0005202490A520AE41A091812187D3491427A
:1006B00001D3641C00E04900002C01DA002070BD69
:1006C0000023914201D3891A0343400849000028BE
:1006D000F7D100290AD0914202D10121C90705E0D2
:1006E000914201D2012101E00121C943E005C01876
:1006F000401900F0E5F970BD0122D207002800DBA7
:10070000101A002900DB511A814201D801207047DC
:10071000002070470122D207002800DB101A0029B0
:1007200000DB511A814201D201207047002070473E
:100730000122D207002800DB101A002900DB511A21
:10074000814201D301207047002070470122D20767
:10075000002800DB101A002900DB511A814201D960
:1007600001207047002070470122D207002800DBDB
:10077000101A002900DB511A814201D10120704773
:1007800000207047C217C10F504010B54018CA076B
:100790009623002100F09CF910BD10B5002296238D
:1007A000114600F095F910BD0EB5C217C10F5040AB
:1007B000CA0740180021054B0293019200910A4696
:1007C0000B4600F0CBF903B000BD0000330400007D
:1007D000C20F410040020123400ADB05D207090E87
:1007E000C0187F2901DA00207047962903DC962380
:1007F000591AC84001E096398840002AF4D0404296
:100800007047C20FD207400040080BD0C10D07232C
:10081000DB01C91840020905400A1143C20840071C
:100820001143704700200146704770B50446002907
:1008300003D000202022012310E0002801D0002056
:10084000C043C046C0460DE02546D5408D4205D385
:100850000D469540641B1D46954040191546521E95
:10086000002DF1DC214670BD70B5002504462E46F2
:10087000002911D0002C01DA01254442002901DAB7
:10088000012649422046FFF7D0FFB54200D0404242
:10089000002D00D0494270BD002C02DA0121C907A9
:1008A00002E0002C00DD03490846C046C046214650
:1008B00070BD0000FFFFFF7FF0B51FB406460020AB
:1008C00082B005464024019100901BE00199224628
:1008D0000F46304600F082FB049A059B801A99412E
:1008E00010D310461946224600F068FB361A8F4195
:1008F0000197224601200021009F00F05FFB38187D
:100900004D4100902046641E0028DFDC019B0098CA
:100910002946324607B0F0BD3A2800D230382023AD
:1009200002469A43412A01D310463738884201D300
:100930000020C0437047000002681378511801601E
:100940001846704710B5D1600449516104491162DD
:1009500000211161114600F065FB10BD3909000846
:10096000290100084268002A08D001680B78491C58
:10097000002B03D0521E06C0184670470121C160EB
:10098000881E70474268002A0BD0C3680168002B9C
:1009900007D183688B4204D0491E521C06C0002038
:1009A00070470020C0437047F7B582B0029C002713
:1009B0002078641C15460197302802D0002D15D0F0
:1009C00015E020780127641C782804D0582802D02C
:1009D000002D09D00BE0002D01D0102D07D10027EC
:1009E00010252078641C02E0082500E00A25002676
:1009F000009610E00099012769430818020C294667
:100A000080B2714300908E183804864201D30120D1
:100A100001902078641C2946FFF77EFF0028E9DA60
:100A20000398002805D0002F01D0641E00E0029C2E
:100A300004600198002806D00FF0E4FE0221016056
:100A4000C81E05B0F0BD009930040843F9E7000066
:100A5000F7B5009C0F4600262578641C002D05D0B4
:100A6000FFF75EFB0068405DC007F5D12B2D02D07B
:100A70002D2D18D0641E39462046029AFFF794FFA8
:100A8000002F04D03968A14201D100993960710565
:100A9000022400290BDA4042002803DD0FF0B2FEE9
:100AA0000460A007FEBD012080020643E3E70028A2
:100AB000F8DA0FF0A7FE04600048FEBDFFFFFF7FDD
:100AC000002904DA401C490001D140084000704769
:100AD00070B40024050C05D11024000402D10029B3
:100AE00021D01124050E01D100020834050F01D1D7
:100AF0000001241D850F01D18000A41C002801DB0A
:100B00004000641C002908D020252E1B0D46F5400E
:100B1000A14000D001212943084301061B1B000A04
:100B2000DB1D02D5002070BC7047DB05181880184B
:100B30000029F8DA401C4900F5D170BC400840009B
:100B4000704710B5002B08DA0024401C6141921850
:100B50005B411A4301D14008400010BDF0B51FB4FD
:100B600082B005460C0003D008460FF033FE02E0C9
:100B70000FF030FE2030024600902146284600F05B
:100B80001DFA049B059A04460F4618431143084377
:100B900014D0184610431BD0009840210A1A18465A
:100BA000059900F01BFA05460E46009A059904982F
:100BB00000F004FA084305D0012004E0204639463D
:100BC00007B0F0BD0020C11705430E432C43374347
:100BD00000990E986305401A7905E40A00220C4337
:100BE000FD0A0A3002D500200146E9E70105101987
:100BF00069410C9C0D9D00196941FFF7A2FFDFE7D9
:100C0000F0B507460846584087B0C00F049048002A
:100C10000E46590040084908BC1A884105D238469A
:100C200031461E4617460B46024658004008104300
:100C30004CD0300D039040055900400D490D0590F2
:100C4000401A0290402872DA18030121000B0905AE
:100C50000843019004980092002805D0019952425F
:100C60000020884100920190029840210A1A0199BF
:100C7000009800F0A3F905460C466B4607CB00F040
:100C8000BEF9C0197141039A0E0D0023D7175640C3
:100C90001A467A40164344D0049A002A2DD0029A6C
:100CA000012A039A15DC1205C01A91410126360566
:100CB000001C7141D20F059ED2070093019202964B
:100CC0002A462346FFF74AFF07B0F0BD38463146B3
:100CD000FAE71605224A0F46B218C01AB741012199
:100CE0000905001C4F4100187F4111461818794131
:100CF000E20F10436D19644113E0E2076D081543DC
:100D00006408C2071443039A01261205C01A9141D0
:100D10003605001C7141CE07400830434908C01811
:100D200051412A462346FFF70CFFCDE7FFE7049821
:100D300001224000C117121A00238B41049831464A
:100D4000C417381AA141EEE730B40124E407634028
:100D500030BC55E730B40124E407614030BC4FE7B4
:100D60000000E0FFF0B51FB488B00B99099800248B
:100D700048400999C00F490049080991C0070B99DB
:100D80000090490049080B9109990898A646084324
:100D90001CD00B990A98084318D0099801244000E8
:100DA000420D4800410D099824050003000B204323
:100DB00009900B980003000B20430B9050181C491E
:100DC0004018002201901446104605E0002001461C
:100DD0000DB0F0BD032801DA034600E003239C4672
:100DE000C11A0AAE0AE05F0008ADED5B4F00F75B89
:100DF0007D430027AA187C41491C5B1E6145F2DD3A
:100E0000410004AB5A522104120C0A43240C401C2A
:100E10000828DFDB0198029000997046019100904C
:100E2000059B049A07990698FFF798FED0E7000003
:100E30000DFCFFFFF0B50C465C4085B0E40FE40705
:100E400003944C0000266408590094464908024661
:100E50000296224321D062460A431ED06200570DFB
:100E60004A000E032303550D012402462C49240594
:100E7000781B1B0B360B401823432643614600901A
:100E80001C46501AB44103D30098401C009002E065
:100E9000921800985B41002803DA0020014605B053
:100EA000F0BD0020012109050746864611E0644691
:100EB0001D46141BB54106D36546521BB34174460B
:100EC00007430C43A646CD0740084908284392181B
:100ED0005B4105460D43EAD11046184313D06046E6
:100EE000194650407140084306D06046101AB3417D
:100EF00006D20122002306E000220123DB0702E0E4
:100F00000122D2435310009874460105381C6141F8
:100F1000029C039D00196941FFF713FEBFE7000023
:100F2000FD0300004A0009030123090B1B051943B7
:100F30000A4B10B5520D9A4202DA0020014610BD4C
:100F4000064B34339A4203DC9A1A00F047F810BD7E
:100F5000034BD21800F032F810BD0000FF03000070
:100F6000CDFBFFFF10B5002904DB0124E40740425C
:100F70008C412146002B04DB1C460123DB07524237
:100F8000A341994200D1904210BD00001CB5094810
:100F900000900948019005460126009C05E0E368A1
:100FA00007CC33430C3C98471034AC42F7D3FFF7DF
:100FB0008BF80000587201087872010810B5202AD9
:100FC00004DB0146203A9140002010BD91402023CF
:100FD0009C1A0346E3401943904010BD10B5202AE7
:100FE00004DB0846203AD040002110BD0B46D34018
:100FF000D0402024A21A91400843194610BD10B5D4
:10100000202A06DBCB170846203A1041C1170B43B4
:1010100006E00B461341D0402024A21A9140084319
:10102000194610BDF3B58DB000200A9001200B9039
:10103000002608460C300C46099062690121099887
:101040009047051E2ED0252D2DD0216A88470028D7
:1010500018D06269012109989047216A88470028C1
:10106000F7D1411E62690998904700E0761CA1699A
:101070000D988847216A88470028F7D1E1690D98C3
:101080008847DAE7A1690D9888470746A84201D149
:10109000761CD2E7E1690D9888477F1C02D10A9837
:1010A000002877D049E1002762693D463946099812
:1010B00090472A280CD1626901210998904701259F
:1010C00006E00A214F433F18303FEBD41020054380
:1010D0006269012109989047014630390A2903D2F3
:1010E0009B498F42DEDCECE7E90600D4994F6C287F
:1010F0000AD04C2810D0682824D06A282ED0742812
:101100000CD07A280AD00DE0626901210998904735
:101110006C2823D004211CE02020054362690121B2
:1011200009989047A760656065284FD026DC58284D
:1011300039D01ADC452849D012DC252834D0412882
:10114000B0D143E06269012109989047682802D034
:1011500008210D43E6E70120C002DEE70220DCE7BC
:10116000462833D047282CD130E05B2870D0612846
:101170002CD063286CD0642823D161E06F284FD035
:1011800009DC662822D0672820D0692826D06E285E
:1011900017D12EE0CDE070284DD073286FD0752880
:1011A0004ED078280DD154E0A1690D9888470546A6
:1011B000252800D16CE7E1690D9888476D1C00D1A6
:1011C0006DE7BAE00A224CE00A2252E001202346F1
:1011D0006A46C0430D99C046C046A3E02846402158
:1011E00008436060A807234601D5002239E00022A9
:1011F0003FE0E80700D020E72068011D216000687B
:10120000290501D5067018E7290701D5068014E7DE
:10121000A90703D5F117066041600EE706600CE7E9
:101220002846402108436060A807234601D50822CC
:1012300017E008221DE0484928460840606016E093
:101240002846402108436060A8072346BCD5B9E77B
:1012500015E02846402108436060A80707D52346CB
:1012600010220120C0430D99C046C0465AE02346D3
:1012700010220120C0430D99FFF770F852E00021C1
:101280000C910B460091632802D05B2807D043E005
:10129000E80601D40120A060012000903CE06269D2
:1012A0000121099890475E2805D101200C90014644
:1012B0006269099890472169002906D10B4601AA65
:1012C0008F00491CD3510829FADB002835D0216949
:1012D00000290ED1C117C90E09184A11930001AA9D
:1012E0009A1849094901411A0120136888400343AB
:1012F000136062690121099890475D28E5D10C9837
:10130000002808D0002001AB81005A58401CD2436D
:101310005A500828F8DB01AB01202246C0430D9942
:10132000C046C04600280ADA401C06D10B980028A7
:1013300003D00020C0430FB0F0BD0A98FBE7E907D7
:1013400002D10A99491C0A91361800200B9074E6C4
:10135000CCCCCC0CFFFFFF7FF1F7FFFFF0B581B0E5
:1013600005460024009400688168C9071CD1816883
:101370002B4A2F3211420AD0A86D10210143A965D2
:10138000E86D01242043E865204601B0F0BD816886
:10139000234A114001273943816022480068000236
:1013A00005D4687E012825D1204601B0F0BD1E4835
:1013B00000681E49FFF739FA401C00900098002889
:1013C000EFD00098401E009000980028E9D00098C7
:1013D000401E009000980028E3D00098401E009026
:1013E00000980028DDD00098401E0090009800284A
:1013F000E7D1D6E703F0E0FF064604E003F0DCFFA8
:10140000801B0328B8D228680168C907CCD181683D
:10141000C907F3D18168024A114039438160EDE781
:10142000E8FFFF7F0827014034000020400D030043
:101430006248C0687047C04660480021C170417072
:1014400061494968416070475C49C878012801D109
:101450000022CA707047C046F0B587B0574E70780A
:10146000002826D003F0A8FFB168401A652804D3ED
:1014700003F0A2FFB060012030703078012818D14D
:10148000002434707078012801D103207070FEF7B9
:10149000BBFE6421FFF7E8F949480818B178022932
:1014A00009D84A1CB2708900731814331860032AD3
:1014B0000BD007B0F0BDB269F3697261B361334616
:1014C0001C330A461860032AF3D13246143207CA85
:1014D00004AB07C304A8032104223A4BFEF739FEEC
:1014E00030690599081A716842183748C1680125A2
:1014F00003928A422A4600DC22464768039BBB428D
:101500002B4600DB23461343012B05D14269039B85
:10151000934224DC002323E0029505460835046845
:10152000B94217D0C81BFFF72DF901902868214652
:10153000FFF75FF80199FFF7A1F805460398C01B74
:10154000FFF720F901462846FFF75BF82146FEF732
:10155000FFFF0446029DF570F46007B0F0BD012363
:10156000039C8C422C4600DB1C46012C05D1C16932
:10157000039B8B420BDC00230AE0029505461035E5
:1015800008300F4611460468B942CBD1E2E7012387
:10159000039C94422C4600DB1C46002C04D084693A
:1015A000F570F46007B0F0BD0295054618351030AF
:1015B00017460468B942CDD0B4E7C046C000002049
:1015C000F895030025270008840000207D200001F5
:1015D000054948607047C046704700007D20000103
:1015E000014988607047C046C001002010B512480C
:1015F000124901F075FA124C204601F0FBFF114828
:1016000002F046F9104809F073FB09F041FA01F0C5
:10161000B1FB09F09DFE02F09DF8FFF70DFF20469B
:1016200000F08EFA02F082FA084809F07BFA0848C6
:1016300009F080FA10BDC046000D00202D270008DB
:101640007408002050080020A80B002000008E42E3
:101650000AD7CD4180B500F0EFFA01F055FA02F05B
:101660001DF909F081FE09F01DFA01F08BFB80BD28
:10167000F0B587B0019046480FF03EFD4548464919
:101680000FF050F8002001F0E5F9444803F01EFD8A
:1016900002AC1121204602F0D3F80126350328467A
:1016A00010303FA104273A4601F0D6FA3E490822FD
:1016B000284601F0D1FA284620303CA1072201F04B
:1016C000CBFA2046FEF7EDFD303582B228462146A2
:1016D00001F0C2FA37A12F4D28460FF023F830460B
:1016E00001F0B8F97D20C6003446C834204603F026
:1016F000EDFC36A128460FF015F8022001F0AAF9FA
:10170000204603F0E3FC38A128460FF00BF8032035
:1017100001F0A0F9304603F0D9FC39A128460FF0BA
:1017200001F8384601F096F9304603F0CFFC09F095
:101730002DFF09F0FBF939A128460EF0F3FF052033
:1017400001F088F96436304603F0C0FC01F064FF14
:101750000446002812D00F4839490EF0E3FF062056
:1017600001F078F9304603F0B1FC36480FF0C4FCC4
:10177000019801F06FF9204607B0F0BD3B2001F061
:1017800069F92E480FF0B8FC204607B0F0BDC046FE
:10179000913A01083A3A0108C93A0108B80B000029
:1017A000312E303000000000E43A0108302E303095
:1017B0002E30320056657269666963616E646F200F
:1017C000536572766F732E2E2E0000005665726977
:1017D000666963616E646F204D656469646F722031
:1017E000467265712E2E2E005665726966696361B8
:1017F0006E646F2042616C616E63612E2E2E00005C
:1018000056657269666963616E646F205465726DB6
:101810006F6D6574726F2E2E2E0000005665726912
:10182000666963616E646F204D656D6F72696120DA
:10183000454550524F4D2E2E2E000000703A0108A3
:10184000B63A01084C3A010880B588B015A00EF0F0
:1018500069FF16480EF066FF07A806A905AA09F059
:101860001FFA002808D005A8037806A8027807A860
:1018700001780FA00EF056FF04A803A902AA01AB3D
:1018800009F0B4F9002808D002A8037803A8027868
:1018900004A8017811A00EF045FF1BA00EF042FF36
:1018A00008B080BD0A0D0A0D00000000A316010853
:1018B000417373696E61747572612020202020204D
:1018C0002020202020202020253032643A2530326C
:1018D000643A253032640A0D0000000052657370CE
:1018E0006F6E736176656C202020202020202020E0
:1018F00020202020253032642F253032642F2530DF
:1019000032640A0D000000000A0D0A0D0A0D0A0DCE
:101910000000000010B586B0072901D84C482FE020
:10192000801D891F89B203AA0B2301F0E1F9002869
:1019300025D003A80078002829D0684600248472A6
:101940000481019400940B2101F068FF002826D047
:1019500069468C7203A8FEF7ABFC002824D003A8CC
:1019600024A10822FEF7B2FC002825D023A003A959
:101970000EF0D8FE3E2001F06DF806B010BD12A0AA
:101980000FF0BAFB3B2001F065F806B010BD2F4800
:101990000FF0B2FB3E2001F05DF806B010BD3B2019
:1019A00001F058F806B010BD27480FF0A5FB17202E
:1019B00001F050F806B010BD1AA00FF09DFB2E20CC
:1019C00001F048F806B010BD417574683A204661D0
:1019D0006C6861206E6F2070617273657220726F27
:1019E000627573746F2064612073656E68612E0D7B
:1019F0000000000047484B403132330041757468A5
:101A00003A2053656E686120696E636F7272657407
:101A1000612E20446967697461646F3A20272573D9
:101A2000270D0A00417574683A20456E7472616E24
:101A3000646F206E612074656C612064652053655D
:101A4000727669636F210D00773D01088D3D0108B5
:101A5000AA3D010810B584B0082904D23B2000F04B
:101A6000F9FF04B010BD801D891F89B201AA0B23A4
:101A700001F03EF9002816D001A8FEF712FC00285C
:101A800013D02E4C2178002917D000202070641C20
:101A900001A92046FEF70CFC002820D0402000F0D1
:101AA000D9FF04B010BD12A000E01BA00FF024FB72
:101AB0003B2000F0CFFF04B010BD042804D23F202B
:101AC00000F0C8FF04B010BD601C01A9FEF70BFCBC
:101AD000012020701F2000F0BDFF04B010BD204683
:101AE00001F0D6FF172000F0B5FF04B010BDC046CE
:101AF000417574683A2046616C6861206E6F207091
:101B00006172736572206465206E6F766120736503
:101B10006E68612E0D000000417574683A204E6FAA
:101B200076612073656E68612076617A69612064F0
:101B30006573636172746164612E0D00740100202D
:101B400070B582B01E4D286001AC0026267021467B
:101B50000EF0E8FB002812D120780A280FD119A036
:101B60000A2100F00FFA2868214C21460EF040FAB5
:101B700000280AD01FA000F005FA02B070BD2D4861
:101B800000F000FA2E6002B070BD28680EF020FA56
:101B9000002804D0254800F0F5F902B070BD28688F
:101BA00021460EF0CDFB0EF03BFDFEF72AFE02466D
:101BB0000B461F480E4900F0E5F902B070BDC04663
:101BC00080010020424154455249413A204251325D
:101BD000353632322064657465637461646F2E201B
:101BE00049443A203078253032580D0A0000000070
:101BF000280A0000424154455249413A2046414C8E
:101C0000484120616F20636F6E666967757261720B
:101C100020706172616D6574726F7320646F204211
:101C20005132353632322E0D0A0000003A3E01089C
:101C3000FA3D0108CD3D0108F0B583B04B4C20685A
:101C4000002800D190E00EF067FC03F0B5FB61685E
:101C5000401AC0087D2800D286E003F0ADFB60602A
:101C60000EF0DAFC4249FEF771FD002801D0042491
:101C700023E00EF0D5FC04463E49FEF767FD002840
:101C800001D0032419E03C492046FEF75FFD0028FF
:101C900001D0022411E039492046FEF757FD002803
:101CA00001D0012409E036492046FEF725FD002831
:101CB00001D1044601E00020C443324D2888A1B27E
:101CC000814205D01120000221B200F065FF2C8076
:101CD00000F0BCFE682847D10EF09EFC05460EF0D1
:101CE00097FC04460EF08CFC07460EF08DFC01902C
:101CF0000EF096FC0290244E28463146FEF781FCF9
:101D0000FEF766FD0146214D284600F069FF20469A
:101D10003146FEF776FCFEF75BFD01462846703043
:101D200000F05EFF1A493846FEF76BFCFEF750FDE7
:101D300001462846803000F053FF164C019821469A
:101D4000FEF75FFCFEF744FD01462846903000F0A8
:101D500047FF02982146FEF754FCFEF739FD014685
:101D6000A035284600F03CFF03B0F0BD8001002004
:101D7000000090400000AA42000048420000F041EC
:101D800000007041AA00002000007A449022000068
:101D900000401C460000204180B5034800F006F8D2
:101DA000774800F027F980BDC91D000880B5E749D4
:101DB00000224A804A6088600A7001200102E548DA
:101DC000FEF74DFA80BDC04670B5A0B0002800D126
:101DD000A9E001466D467F2628463246FEF74AFABC
:101DE0000024AC55FEF79CF90646016828780A5C89
:101DF000D20706D068780A5CD207AD1C002AF5D15C
:101E00006D1E002800D18BE020212846FEF73FFA06
:101E100000281ED000210170811C32684C1E2078E1
:101E2000135CDB0712D00878135CDB070DD0487811
:101E3000135CDB0759D08878135CDB07091D002B86
:101E4000ECD18C1E002803D003E00C46002800D102
:101E5000044636492846FEF74FFA002841D0354956
:101E60002846FEF749FA324E00283CD0324928462F
:101E7000FEF742FA00283CD030492846FEF73CFAEB
:101E8000002838D02E492846FEF736FA002834D0EC
:101E90002C492846FEF730FA002830D02A49284637
:101EA000FEF72AFA00282CD028492846FEF724FA03
:101EB000002828D026492846FEF71EFA002824D0FC
:101EC00024492846FEF718FA002820D0224928463F
:101ED000FEF712FA00281CD020A0294600F052F884
:101EE0001EE0134E16E0083614E04C1C0028AFD05C
:101EF000AFE710360EE018360CE020360AE0283640
:101F000008E0303606E0383604E0403602E0483675
:101F100000E0503619A000F035F871682046884777
:101F2000174800F067F820B070BDC046E63C0108D5
:101F3000B0380108B53C0108DC3C0108C33C01088D
:101F4000CB3C0108CE3C0108E13C0108EB3C010818
:101F5000F03C0108BB3C0108D33C01080D0A436F6B
:101F60006D616E646F20646573636F6E686563692D
:101F7000646F3A20222573222E0000000D0A000013
:101F8000973C010883B0F0B582B007AC0EC40028BE
:101F900028D0044607AB01930120010214482246D1
:101FA0000EF000FC01281DDB7F480068002819D0D6
:101FB0000F4C2046FEF775F9002813D005467B48E4
:101FC00087884688701C03214902FEF72EFCB9421F
:101FD00008D02078764A905574484180641C6D1E64
:101FE0008EB2EFD102B0F0BC01BC03B00047C046D6
:101FF000F8010020F0B581B000281ED004466A48E0
:102000000068002819D02046FEF74BF9002814D0AC
:102010000546664887884688701C03214902FEF7FA
:1020200004FCB94209D02078614A90555F4841804C
:102030006D1E641C8EB2002DEED101B0F0BDC04605
:10204000F0B583B0594D2978002901D003B0F0BD17
:102050000C2835DC08284CD00A2835D0EC88FE2C1A
:10206000F4D80646FEF75CF80068805D8006C00E76
:10207000ECD038480655601CE88002A80022427067
:102080000670494800680028E0D002A8FEF709F968
:102090000028DBD00446A88801906E8802AF701C2F
:1020A00003214902FEF7C1FB01988142CED0387866
:1020B0003F4A905569807F1C641E8EB2EFD1C5E700
:1020C0007F2816D00D28C9D1E8880028BED0214924
:1020D00000240C5401262E70A968002901D01D4847
:1020E0008847EC8031021B48FEF7B9F82C7003B02A
:1020F000F0BDE8880028A9D0401EE8802A48006882
:102100000028A3D003204402688886B2701C2146B0
:10211000FEF78BFBA888814298D0254A0823935567
:1021200069804E1CA64200D1002686428ED0202710
:1021300057546E80711CA14201D305497118814228
:1021400084D09355698003B0F0BDC046FC000020E8
:1021500001FAFFFF240F0020B0B582B012480068DA
:1021600000281FD0114CA088618881421AD000221B
:1021700001920325814200D86902091A89B24029D7
:1021800000D340210A4A101801AA0AF0B9F8002821
:1021900008D10198002805D0A18840186902FEF7EF
:1021A00044FBA18002B0B0BDE4070020FC00002089
:1021B00024100020F0B581B01E4D281D1E49FEF7E9
:1021C0004EF81E480121009129606121A860E96054
:1021D00000272F827F20C00568611948E8611948EF
:1021E000281819491CC91CC00A8802808978817086
:1021F0008726164C2846203021681022FEF73AF830
:1022000030202F54284631300A221149FEF70EF8AB
:1022100028463030E16A226BC2828182A16929643A
:10222000C77228354034761EE4D10A4800990170FF
:1022300001B0F0BD24160020D816000073656E684A
:1022400005000200C81600003C720108C81601080B
:102250004C720108B8010020B0B58CB00020059088
:102260000BA80AA909AA08F01BFD044608A807A99B
:1022700006AA05AB08F0BAFC002C15D0002813D034
:1022800007A8037808A8027806A800780BA909789F
:102290000AAC247809AD2D7800AF33C70DA005A98D
:1022A000FFF770FE0CB0B0BD02A0FFF7A3FE0CB0AC
:1022B000B0BDC0464572726F20616F206C657220A0
:1022C000646174612F686F726120646F205254439F
:1022D0002E000000446174612F486F72613A20251E
:1022E0007320253032752F253032752F323025304E
:1022F000327520253032753A253032753A25303224
:102300007500000070B5002822D004462021FDF79A
:10231000BEFF002820D000210170861CFDF700FFC1
:102320000168751E28780A5CD20718D030780A5CDC
:10233000D20713D070780A5CD2073BD0B0780A5C21
:10234000D207361D002AECD1B51E002809D009E0BD
:102350002DA0FFF74FFE70BD002503E03546002895
:1023600000D105461A492046FDF7C6FF002817D0C0
:1023700019492046FDF7C0FF164E002815D0174911
:102380002046FDF7B9FF002818D015492046FDF773
:10239000B3FF002817D013A02146FFF7F3FD70BD4F
:1023A0000C4E71682846884770BD0836716828460B
:1023B000884770BD751C0028D3D0D3E710367168EC
:1023C0002846884770BD183671682846884770BD12
:1023D000B73C0108083901080B3D01089C3C010885
:1023E0000F3D0108537562636F6D616E646F204429
:1023F00057494E20646573636F6E68656369646FE7
:102400003A2022257322000055736F3A2044574921
:102410004E203C5049437C494E547C494E54333203
:102420007C5241573E202E2E2E202876656A612050
:1024300048454C502900000080B586B0684608F039
:102440001DFB0AA0FFF7D6FD0198FEF7DAF9024658
:102450000CA00B46FFF796FD0298FEF7D2F9024654
:102460000EA00B46FFF78EFD06B080BD4461646F81
:1024700073206465204672657175656E6369613AA3
:102480000D0A0000202050756C736F732028317383
:10249000293A20252E31660D0A00000020204573C0
:1024A00063616C6120413A20252E32660D0A0000DE
:1024B00080B586B0684608F0E1FA0098FEF7A1F909
:1024C000024603A00B46FFF75DFD06B080BDC04687
:1024D0005065736F3A20252E326620670D0A000082
:1024E00080B509F053F8FEF78CF9024602A00B46BE
:1024F000FFF748FD80BDC04654656D70657261741C
:1025000075726120696E7465726E6120646F204D12
:1025100043553A20252E326620430D0A0000000064
:1025200080B50248FFF766FD80BDC0465E12010817
:1025300080B52E2000F00AFB80BD0000B0B584B04D
:10254000002825D001A9009119A103AD02AC2A46AB
:102550002346FDF7E5FE03281FD12878411EC9B2A6
:102560001E291AD821784A1ED2B20B2A15D801AAE0
:10257000127808F0E1FB002814D001A8037802A823
:10258000027803A801782848FFF7FCFC04B0B0BD2E
:102590002648FFF72FFD04B0B0BD09A0FFF72AFDC4
:1025A00004B0B0BD15A0FFF725FD04B0B0BDC04616
:1025B000256868752F256868752F2568687500007F
:1025C000466F726D61746F20696E76616C69646FBD
:1025D0002E2055736F3A20534554444154452044AE
:1025E0004428312D3331292F4D4D28312D313229B9
:1025F0002F59592830302D3939292E004572726FE4
:1026000020616F2073657461722061206461746160
:10261000206E6F20686172647761726520646F203C
:102620005254432E00000000293D0108133D0108CB
:1026300070B584B0002822D001AE009617A103AD7A
:1026400002AC2A462346FDF76BFE03281CD12878EE
:10265000172819D821783B2916D832783B2A13D865
:1026600008F07CFB002814D001A8037802A80278A7
:1026700003A801782748FFF785FC04B070BD264801
:10268000FFF7B8FC04B070BD08A0FFF7B3FC04B0BE
:1026900070BD15A0FFF7AEFC04B070BD256868756D
:1026A0003A256868753A256868750000466F726D4E
:1026B00061746F20696E76616C69646F2E2055734A
:1026C0006F3A2053455454494D4520484828302DF1
:1026D0003233293A4D4D28302D3539293A53532874
:1026E000302D3539292E00004572726F20616F2020
:1026F0007365746172206120686F7261206E6F2053
:10270000686172647761726520646F205254432E51
:1027100000000000503D0108F53C010880B50BF0B9
:10272000C5F980BD09680068401A704710B50629D0
:1027300000D22BE102785A2A00D027E14278A52A5C
:1027400000D023E1C278832A00D01FE142790379C7
:102750001B029A18082992B214D30023A04CA2425B
:102760000ED0A04CA2420BD09F4CA24208D083783E
:10277000DC1C8C4206D8C3189C785B781B021B19A2
:102780009A4C23809A4B9A4249DCA84B9A4200DC2F
:102790006EE0A74B9A4200DD7CE0964BD218312ABE
:1027A00000D9F3E05200C0467A4492885200974420
:1027B0003100CE00ED00ED00ED00ED00ED00ED008C
:1027C000ED00ED00ED00ED00ED00ED00ED00ED00A1
:1027D000ED00D400ED00ED00ED00ED00ED00ED00AA
:1027E000ED00ED00ED00ED00ED00ED00ED00ED0081
:1027F000ED00C900ED00ED00ED00ED00ED00ED0095
:10280000ED00ED00ED00ED00ED00ED00ED00ED0060
:10281000ED00C100754A128808F0C4FB10BD764B6C
:102820009A4213DC7B4B9A4243DD7B4B9A426DDC30
:1028300005200003824200D194E07A48824200D011
:10284000A4E06A48008800F0E3FB10BD6B4B9A429D
:1028500041DD6B4B9A4262DC6A4B9A4200D186E0C2
:1028600081231B029A4200D090E001F023FE10BDAC
:10287000714B9A423EDC744B9A4200D19CE0584B1B
:102880009A4200D18AE08120800182427ED101F00B
:1028900013FD10BD544B9A427DD0664B9A4276D0C0
:1028A0006123DB019A4271D1504A128800F054FD35
:1028B00010BD5D4B9A4200D183E03120000282427C
:1028C0006FD08120C001824260D100204749085E5C
:1028D00001F026FD10BD4C4B9A4277D04B4B9A42EB
:1028E00062D04B48824251D15D493820088000F0C7
:1028F0002DF910BD514882426DD05148824258D0C6
:102900005048824242D108F09FFC10BD434B9A428E
:1029100033D04348824239D100F0EEFD10BD212072
:10292000800282422ED08520000282422ED101F008
:102930007DFD10BD2D480088411E4842484100F0F1
:1029400097FC10BD2948008800F04CFC10BD44499C
:102950001920088000F0FAF810BD2448008800F023
:10296000B7FC10BD2148008806F08EFD10BD3C4923
:102970006820088000F0EAF810BD1C4A128808F0B0
:1029800053FA10BD1948007801F098F910BD2020C5
:10299000FEF76EFE10BDFFF75DF810BDFEF7BAFF43
:1029A00010BD00F09FFD10BD104A128800F032FDEE
:1029B00010BD00F0AFFD10BD0C48008800F00AFB10
:1029C00010BD0A4A128800F0AFFB10BD074800880E
:1029D00000F0E2FA10BD0548008800F047FB10BD8A
:1029E000302000000F30000060300000042D002077
:1029F0008F300000F1CFFFFF5F7000001F710000FB
:102A0000FF83000020710000607000007070000003
:102A100090700000FF4F00001F7000002070000049
:102A20003070000010700000903000000E30000088
:102A30005F300000703000004F2000005020000088
:102A40006020000090200000202000000448008842
:102A50007047C04680B50249088000F077F880BD15
:102A6000A800002010B5A14C6268002A03D00168BC
:102A70001268914200D010BDCA69120701D5082220
:102A80000A6205F051FF60680028F4D0103440223B
:102A9000214605F080FE0028EDD000F055FE10BD67
:102AA00080B54021C9430246413A8A4204D88F4941
:102AB000486800280AD180BD8C49488001200870F0
:102AC000C868401CC86048680028F4D01031402213
:102AD00005F061FE0028EED000F036FE80BDC04655
:102AE00080B50A46814900230B704B8048608A609C
:102AF000CB60002807D01031402205F04CFE0028A2
:102B000001D000F021FE80BDB0B590B0774D28789F
:102B1000012816D172B66C880020287062B6204653
:102B2000413880B2084988420BD3294610316846A3
:102B30002246FDF77BFBAA68002A02D068462146A0
:102B4000904710B0B0BDC046C0FF000010B584B0C3
:102B500002466648406800281BD001A94A7201233A
:102B6000CB715A238B7184244C7100240C71822404
:102B7000CC7007248C70A5244C700B70120A0A725A
:102B80000A22642306F0F4F901464042484104B0A9
:102B900010BD002004B010BD10B582B002465348ED
:102BA0004068002818D06C46E17162718223E3709E
:102BB0000523A370A52363705A232370090AA1710A
:102BC000110A217108226423214606F0D1F9014639
:102BD0004042484102B010BD002002B010BDC046C6
:102BE00010B584B002464148406800281CD001ACB2
:102BF000617262718223E3700723A370A52363705F
:102C00005A2323700B0A23720B0CE371090EA17176
:102C1000110A21710A226423214606F0A9F901460E
:102C20004042484104B010BD002004B010BDC04671
:102C300010B50A4601460020002A0CD000290AD00F
:102C40002A4B5C68002C06D06423204606F090F9DD
:102C500001464042484110BDF0B503AF85B06E4615
:102C600004460020002A3DD000293BD01F4B5B6862
:102C7000002B37D0F360746014460F340720844370
:102C8000316108461546FDF70CFB294605466846A6
:102C9000B0606846041BA54670686071000A207128
:102CA0008220E0708D4200D30D46681D7060A070D8
:102CB000A52060705A202070A01D31692A46FDF7BA
:102CC000B5FA6019FF21C17181717068C0B2C21C70
:102CD0006423F068214606F04BF901464042484122
:102CE000B1688D46FE1F053EB546F0BD08010020C7
:102CF000F0B583B01D4614460746501E1646864161
:102D00007A1E3B46934133400291012901D80021AC
:102D100000E001210B406E1E2846B04118401CD037
:102D2000019020462946FDF79AFA022D1BD3002276
:102D300002211046029D7B185B1E1B78FF2B0AD0D8
:102D4000202B01D3A354401CC2B2964203D94B1C82
:102D5000A9421946EFD3C0B206E0002C01D0002DE5
:102D600004D103B0F0BD0020241801980021217087
:102D700003B0F0BDE84801210170794800210170DD
:102D80007047C046F0B58DB07D20C700744E3078D6
:102D9000002805D002F010FB7168401AB84240D2FA
:102DA00002F00AFBB168401AB84253D302F004FBA8
:102DB000B060FFF74BFE352801D0382848D168466F
:102DC00007F05CFE72490198FDF71BFCFDF700FD62
:102DD0000146704C20462030FFF702FFD049029890
:102DE000FDF70FFCFDF7F4FC014620463030FFF7FD
:102DF000F7FE7078401C7070C0B205282AD30020FE
:102E0000707008F0C3FB054607F090FEC4492846E1
:102E1000FDF7F7FBFDF7DCFC01462046FFF7BCFEA3
:102E200018E002F0C9FA70603078401E062800D918
:102E300081E0C0467844007940008744037F707683
:102E40006A858B00022030700E20FFF703FEA7E793
:102E50000020707002F0B0FAF168401AB84200D257
:102E600055E002F0A9FAF060FFF7F0FD01460839DD
:102E7000292900D949E0C0467944097949008F449D
:102E80001446464646464646464646144646464646
:102E90004614464646464646461446464646464636
:102EA000464646464646464646140CA80BA90AAA7C
:102EB00007F0F6FE00282AD009A808A907AA06AB41
:102EC00007F094FE002822D06846102141710021AD
:102ED00001718222C2700B228270A52242705A2296
:102EE0000270079A8271089AC27103224272099A8B
:102EF00002720C9A82720B9AC27241730A99017320
:102F00000E21FFF795FE0DB0F0BD7728CDD00DB0A6
:102F1000F0BD062030701220FFF79CFD40E7042032
:102F200030701020FFF796FD3AE705203070112031
:102F3000FFF790FD34E70020307031E70320307058
:102F40000F20FFF787FD2BE707203070002000F0EF
:102F50008DF825E70020307002A00EF0CDF81FE7B5
:102F600088010020444953504C41593A205365711F
:102F700075656E636961206465206D656469636170
:102F80006F2066696E616C697A6164612E0D000064
:102F90000AD7233C3022000080B5044804A1202237
:102FA000FFF75AFE3520FFF755FD80BD9640000023
:102FB00041646A7573744672657175656E63793ABA
:102FC00020333030302E304B487A2B2F2D322E309C
:102FD00000000000B0B505460824102809D020469E
:102FE000FFF738FD102D09D107482146FFF720FED5
:102FF000B0BD0B20FFF72EFD102DF5D00348214664
:10300000FFF716FEB0BDC046001201080812010805
:1030100010B50A4C002807D0FFF7CCF808A10F2202
:103020002046FFF719FE10BD09A11B222046FFF71D
:1030300013FE3020FFF70EFD10BDC0469640000085
:10304000506573657420636F6D706C65746F2100DB
:10305000507265736574207265646566696E65207B
:103060006F7320616A75737465732100F0B591B058
:10307000002805D086490978C90701D111B0F0BDF3
:10308000002803D008F00EF811B0F0BD6C462046C1
:1030900000F0AEFB207807AE314600F08FFB01A8B0
:1030A00007F0ECFC00F0B0FB04461C4D1022284653
:1030B0003146FFF7D1FD2020315E2846C030FFF7B2
:1030C0006BFD0A271098784301B22846E030FFF7DD
:1030D00063FDF08C784301B22846F030FFF75CFDC9
:1030E000012C01D00F4900E00D490698FDF789FA3F
:1030F000FDF76EFB014690352846FFF74DFD012C8C
:1031000004D07720FFF7A6FC11B0F0BD1320FFF725
:10311000A1FC11B0F0BDC046AC0000207020000042
:10312000000020410000C842B0B594B0502A1ED122
:1031300001AC00202075059004900390029001904E
:103140001521204600F026FB07AD21A12846224686
:103150000DF014FB2846FDF7A4F882B21B4829465F
:10316000FFF77AFD2320FFF775FC14B0B0BD01AC6A
:103170000022227505920492039202920192801D10
:10318000891F89B215232246FFF7B2FD002814D00B
:103190002078002811D001AC204600F041FC07AD9A
:1031A00007A1284622460DF0E9FA2846FDF779F8EE
:1031B00082B206482946FFF74FFD14B0B0BDC046A5
:1031C000456D70726573613A20257300964000006A
:1031D000417475616C20456D70726573613A20258C
:1031E0007300000070B58AB0154C502814D100F05F
:1031F0000BFB02466D4618A128460DF0BFFA284683
:10320000FDF74FF882B220462946FFF725FD1B2027
:10321000FFF720FC0AB070BD054600F029FC6E46A1
:1032200008A130462A460DF0A9FA3046FDF739F8D4
:1032300082B220463146FFF70FFD0AB070BDC0468E
:1032400096400000436173617320646563696D613A
:1032500069733A2025750000417475616C204E52E7
:103260005F446563696D616C733A202575000000E9
:1032700080B507490870002804D109A10CA00DF001
:1032800051FA80BD03A10AA00DF04CFA80BDC046E2
:10329000AC000020484142494C495441444100009F
:1032A0004445534142494C495441444100000000C7
:1032B000446973706C61792048616E646C65723A20
:1032C00020496D7072657373616F2025730D0A005C
:1032D00070B58AB0154C502814D100F099FA024606
:1032E0006D4617A128460DF049FA2846FCF7D9FF8C
:1032F00082B220462946FFF7AFFC1A20FFF7AAFB4F
:103300000AB070BD054600F0BBFB6E4608A1304612
:103310002A460DF033FA3046FCF7C3FF82B220464E
:103320003146FFF799FC0AB070BDC04696400000D8
:10333000526570657469636F65733A202575000086
:10334000417475616C204E525F526570657469748A
:10335000696F6E3A20257500B0B594B0502A1ED121
:1033600001AC00202075059004900390029001901C
:103370001521204600F078FA07AD21A12846224603
:103380000DF0FCF92846FCF78CFF82B21B48294659
:10339000FFF762FC2220FFF75DFB14B0B0BD01AC6B
:1033A0000022227505920492039202920192801DDE
:1033B000891F89B215232246FFF79AFC002814D0F2
:1033C0002078002811D001AC204600F091FB07AD19
:1033D00007A1284622460DF0D1F92846FCF761FFE7
:1033E00082B206482946FFF737FC14B0B0BDC0468C
:1033F0005573756172696F3A20257300964000001D
:10340000417475616C205573756172696F3A20253E
:103410007300000070B592B014460D46064605A82C
:103420003221FCF71CFF002C22D06C4600202074B7
:103430000390029001900090701D691F89B21123C2
:103440002246FFF755FC00282CD02078002829D0F0
:1034500015A06C4621460DF065F9204600F02CFBC6
:1034600005AD1DA1284622460DF088F9284612E038
:103470003620FFF7EFFA6C4600202074039002908C
:10348000019000901121204600F0DAF905AD2846A0
:103490002146FCF728FFFCF704FF82B21B482946AF
:1034A000FFF7DAFB12B070BD446973706C6179206C
:1034B00048616E646C65723A205265636562696446
:1034C0006F206E6F766F2073657269616C3A20278A
:1034D0002573270A0000000053657269616C3A2069
:1034E0002573000080B5094809490E22FFF7B4FB97
:1034F0002120FFF7AFFA80BD80B5044804490E22B1
:10350000FFF7AAFB3220FFF7A5FA80BD9640000026
:10351000683E010810B5084C2078002800D010BD86
:1035200006A00DF0E9FD0120207001F045FF60606C
:103530000D20FFF78FFA10BD880100204449535039
:103540004C41593A20496E696369616E646F20731A
:10355000657175656E636961206465206D65646978
:1035600063616F2E2E2E0D000148012101707047FE
:10357000C000002070B582B06E4D287803281BD0A3
:1035800001282DD1A98900291ED028696B692A89B3
:1035900000937F2313408024E61A8E4200D30E4608
:1035A0000196A0210224234602F02EFB00280DD014
:1035B00001202871052412E001F0FEFEA969401ADD
:1035C00005280DD301240AE0042408E06869801965
:1035D0006861A889801BA8812889801928812C709E
:1035E00002B070BD53490879012801D100220A7147
:1035F0007047C0464F4900220A710A70086170473F
:103600004C480078FB2101404A1E9141401F421E58
:10361000904108407047C04610B5464C20690028CC
:1036200017D0A0210222642302F000F8002812D053
:103630002069002811D02F480DF05EFD206901F0AF
:1036400005FF052001F042FD206901F095FF20698A
:1036500004E0002010BD012010BD0020A0210222A6
:10366000642301F0E3FF01464042484110BDC046DB
:10367000F0B583B004460020002A38D00E46002959
:1036800035D015462B490A69002A30D07D20C70065
:10369000009601950297A02102231046224602F0CF
:1036A00081F8002814D023480069002813D011485D
:1036B0000DF022FD1F48006901F0C8FE052001F051
:1036C00005FD1C48006901F057FF1A48006903E036
:1036D000012003B0F0BD0020009601950297A021C3
:1036E0000223224602F05EF801464042484103B000
:1036F000F0BDC0460F3A010870B50E4C2378FB258B
:103700001D406E426E415B1F5D425D4135434B1E65
:103710000E469E412E40551E1346AB413340012BB1
:1037200006D161612081A2810020207101202070DA
:10373000184670BD5801002080B5802001F056FD6C
:10374000202001F053FD80BD72B6FEE707480068F7
:10375000406A704780B5054804F030FC80BDC04623
:1037600002480068002141627047C046B40C002046
:1037700010B54A1E0B469341441E0246A2411A4010
:10378000012A04D1D84B5C6904609869086010462E
:1037900010BDC046B0B54C1EA141421E0546954124
:1037A0000D40012D07D1A949DD4A51182246FCF7E9
:1037B00061FD002101552846B0BDC04670B50246E6
:1037C000872801D3002300E001234C1E0846A041B6
:1037D000184001280AD128235343D14AD218203255
:1037E00038CA38C138CA38C178CA78C170BDC04635
:1037F000002805D0CA494979872900D300210170E2
:10380000411E88417047C046C548C08B7047C046BE
:10381000C348808B7047C04687207047B0B54C1EA8
:10382000A141421E054695410D40012D06D1BC49DE
:1038300008312246FCF71EFD002101552846B0BD87
:10384000B0B54C1EA141421E054695410D40012DCB
:1038500007D1A449B24A51182246FCF70BFD0021BA
:1038600001552846B0BDC046B0B54C1EA141421E10
:10387000054695410D40012D07D1A849A84A511888
:103880002246FCF7F7FC002101552846B0BDC04692
:10389000A54900220A7048604A707047B0B5FFF72A
:1038A00069FEFFF7ADFE002808D03F4840780728A2
:1038B00011D801218140A82001420CD0FFF792FECF
:1038C000002809D054480DF017FC374809214170F1
:1038D0000DE035494870B0BD334D687878440079C3
:1038E000400087440C1D2E1146523A5817044B488D
:1038F0000DF002FC2C48012181700020E9E72878B6
:103900000028E8D00120E4E7FFF77AFE0028E2D1A2
:103910000420DEE725A00DF0EFFB00202870D8E79B
:103920003C480DF0E9FB6868002806D0D64CD84A20
:10393000214601F0D5F9D84960500020A870022036
:10394000C7E733480DF0D8FB0020CF49CF4AFFF737
:10395000D3FE002817D00320BBE721A00DF0CCFB3D
:10396000CF48C949C94AFFF7C7FE00280BD0072036
:10397000AFE726480DF0C0FBC349C4480246FFF735
:10398000BBFE00280DD10920A3E7FFF739FE002870
:10399000A1D106209DE7FFF733FE00289BD1082028
:1039A00097E7052095E7C046B801002046534D2013
:1039B000476572656E636961646F723A2053616C2A
:1039C00076616D656E746F20617373696E63726F7B
:1039D0006E6F20636F6E636C7569646F2E0D0000EF
:1039E00046534D20476572656E636961646F723A34
:1039F00020457363726576656E646F206261636BE8
:103A0000757020322E2E2E0D0000000076710108F8
:103A10009F710108CE71010843710108037201080A
:103A2000B0B5044600280CD00848974D2818142239
:103A30002146FCF71FFC064800212954914801212A
:103A40000170601E84412046B0BDC0464C15000088
:103A50005F150000862804D88A4901220A708A4925
:103A60004871872801D30020704701207047C04665
:103A7000844A01211170844AD08308467047C046A9
:103A8000804A01211170804A908308467047C046E1
:103A9000B0B5044600280BD07B4D284608300A22DA
:103AA0002146FCF7E7FB7748012101700020A8744C
:103AB000601E84412046B0BDB0B5044600280CD03D
:103AC0007A48714D281810222146FCF7D3FB07488D
:103AD000002129546B4801210170601E8441204659
:103AE000B0BDC046C816000024160020D71600003E
:103AF000B0B5044600280CD00848634D281814229D
:103B00002146FCF7B7FB0748002129545D480121F5
:103B10000170601E84412046B0BDC04638150000CB
:103B2000241600204B150000B8010020F0B583B02A
:103B300054484068002818D00024534E534F204664
:103B400031463A46FFF794FD01210291504A002880
:103B50000ED0514835584B484068314601F0C0F806
:103B6000A8420AD1029803B0F0BD002003B0F0BD16
:103B7000484800210CF0D6FD05E0024647480021E8
:103B80002B460CF0CFFD404E384631463A46FFF703
:103B90006FFD002813D0404835583A4A50683146E6
:103BA00016463B4A01F09CF80246A8420299084694
:103BB00064D03A4835492B460CF0B4FD04E0354852
:103BC00032490CF0AFFD2F4E35482F4D29463A466D
:103BD000FFF74EFD002811D02F482B490F58706871
:103BE0002B4A01F07DF80246B8420299084645D0BA
:103BF0002A482B493B460CF095FD03E0254828490F
:103C00000CF090FD281D2449FCF729FB25480121D3
:103C1000019129606121A860E9602C827F20C005A4
:103C200068612148E8612148281821494CC94CC0E5
:103C30000A8802808978817087271E4E28462030A6
:103C400031681022FCF716FB30202C542846313006
:103C50000A221949FCF7EAFA28463030F16A326B39
:103C6000C2828182B1692964C472283540367F1EC0
:103C7000E4D1044E0198307020460299317003B0AF
:103C8000F0BDC046B801002024160020DC1600005C
:103C9000B6050000BD700108D8160000F3700108D9
:103CA000B82D000073656E6805000200C81600009C
:103CB0003C720108C81601084C720108F0B581B0C9
:103CC000134D69780A224A4380181249401880B27D
:103CD000114E7178884219D2400030180421445E98
:103CE0000EA021460CF01EFD748000273770E0B254
:103CF000FFF7B0FE777001226A702A7085200002FB
:103D00001449FEF7A9FF0820FEF7A4FE01B0F0BD9C
:103D100014000020F6FF0000CC01002053656C6504
:103D200063616F2076696120706573717569736175
:103D300020636F6E6669726D6164612E20496E64E6
:103D400069636520646F204772616F3A2025642E95
:103D50000D0A000005670108F0B58FB00646C64C95
:103D600000276770FFF758FD0546002E009069D0C8
:103D70003078002866D0002D00D147E1029603E09C
:103D80007F1CAF4200D141E1F8B205A9FFF716FD53
:103D90000028F5D0317805A803910029014600D00C
:103DA00000210078002831D00197354605AE06E0A5
:103DB000049D6D1C01467078761C00282FD02F784A
:103DC000002F27D004950D46FCF7BDF90446384670
:103DD000FCF7B9F9844204D1002D3046E8D02846DA
:103DE000E6E7002D00D06E1C3078FCF7ACF90746F2
:103DF0000398FCF7A8F98742314600D0002187429A
:103E000001D0029DD7E70298451CD4E7039800062D
:103E10000CD10CE0984C009D029E019F07E0287891
:103E2000954C009D029E019F000600D000210029B4
:103E3000A6D060781328A3D8411C617040002018D8
:103E400087809DE76178002D00D1E3E0132900D938
:103E5000E0E04800201800228280481C022D00D299
:103E6000EAE0122900D9E7E0400020180122828010
:103E7000881C032D00D2DFE0112900D9DCE04000CE
:103E8000201802228280C81C042D00D2D4E0102900
:103E900000D9D1E04000201803228280081D052DA2
:103EA00000D2C9E00F2900D9C6E040002018042242
:103EB0008280481D062D00D2BEE00E2900D9BBE04D
:103EC0004000201805228280881D072D00D2B3E013
:103ED0000D2900D9B0E04000201806228280C81DBC
:103EE000082D00D2A8E00C2900D9A5E04000201838
:103EF0000722828008460830092D00D29CE00B2959
:103F000000D999E040002018082282800846093034
:103F10000A2D00D290E00A2900D98DE04000201837
:103F20000922828008460A300B2D00D284E009293C
:103F300000D981E0400020180A22828008460B3018
:103F40000C2D79D3082977D8400020180B228280C5
:103F500008460C300D2D6FD307296DD8400020186E
:103F60000C22828008460D300E2D64D3062962D8BB
:103F70004000414A10180D22828008460E30009AF7
:103F80000F2A58D3052956D840003B4A10180E2254
:103F9000828008460F30009A102A4CD304294AD850
:103FA0004000354A10180F22828010220846104324
:103FB000009B112B3FD303293DD843002E4CE3181F
:103FC0009A800A461132009B122B53D3122851D8E3
:103FD0005000294A10181122828008461230009A97
:103FE000132A29D3012927D84000234A1018122266
:103FF000828008461330009A142A1DD300291BD151
:104000004000201813218180142015E060780028DA
:1040100013D102E0084600280FD1184831460CF0B1
:1040200081FB3C20FEF716FD154816A11822FEF76D
:1040300013FE0FB0F0BD104C6070EB4901224A70C6
:10404000401EC0B2CD234343D80A431C0B7005ACBD
:10405000124920460CF092FB2046FCF722F98521FC
:10406000090282B208462146FEF7F6FD00F018F874
:104070000FB0F0BD1046DFE7CC010020773E01080D
:10408000964000004E656E68756D206772616F2006
:10409000656E636F6E747261646F2100C33E0108C8
:1040A000F0B58BB0F64840780A2141437F4FCE19D6
:1040B0003046083880B2F34D69787D4C88420DD285
:1040C00040002818007901A9FFF778FB00280CD0E0
:1040D0002046203880B201A9102204E02046203872
:1040E00080B2C2490122FEF7B7FDF01F80B26978A5
:1040F00088420AD240002818007901A9FFF75EFB28
:10410000002807D001A9102201E0B8490122204669
:10411000FEF7A2FDB01F3840697888420DD24000FA
:104120002818007901A9FFF749FB00280CD0204688
:10413000203080B201A9102204E02046203080B255
:10414000AA490122FEF788FD701F80B26978884273
:104150000DD240002818007901A9FFF72FFB002895
:104160000CD02046403080B201A9102204E0204645
:10417000403080B29D490122FEF76EFD301F38406D
:10418000697888420CD240002818007901A9FFF70D
:1041900015FB00280AD06034A0B201A9102203E068
:1041A0006034A0B291490122FEF756FDF01E80B2A4
:1041B0006978404C88420DD240002818007901A946
:1041C000FFF7FCFA00280CD02046203880B201A965
:1041D000102204E02046203880B284490122FEF7F4
:1041E0003BFDB01E3840697888420AD2400028184A
:1041F000007901A9FFF7E2FA002807D001A91022EF
:1042000001E07A4901222046FEF726FD701E80B2A9
:10421000697888420DD240002818007901A9FFF77B
:10422000CDFA00280CD02046203080B201A91022FF
:1042300004E02046203080B26C490122FEF70CFDDC
:104240003740687887420DD278002818007901A994
:10425000FFF7B4FA00280CD02046403080B201A904
:10426000102204E02046403080B260490122FEF76F
:10427000F3FC701C80B2697888420CD24000281888
:10428000007901A9FFF79AFA00280AD06034A0B299
:1042900001A9102203E06034A0B254490122FEF7C4
:1042A000DBFC6520FEF7D6FB0BB0F0BDFEFF000087
:1042B0002082000020830000B0B582B00AA00CF07C
:1042C0001BFF894D0120287001AC00202070204682
:1042D000FFF78EFA207868800BF020FE6620FEF74C
:1042E000B9FB02B0B0BDC0464772616F735F4861F1
:1042F0006E646C65723A20456E7472616E646F20F4
:104300006E612074656C612064652073656C656303
:10431000616F206465206772616F732E0D0000006D
:10432000B0B50446234D2878012841D1FFF774FA2F
:1043300000283DD0611E05293AD8C0467944097944
:1043400049008F4402190E3535240220295E28A029
:104350000CF0E8F900242C70A878FFF77BFB6C7058
:104360001AE06988491E0AB2002A00D5411E6980F8
:1043700008B20BF0D3FDB0BD6988491C0AB2824275
:10438000F5DB0021698008B20BF0C8FDB0BD0AA0C2
:104390000CF0B2FE00202880134801224270027007
:1043A000852000021149FEF757FC0820FEF752FB5A
:1043B000B0BDC046CC0100204772616F735F486199
:1043C0006E646C65723A2053656C6563616F20287A
:1043D000766961207365746173292063616E63651A
:1043E0006C6164612E0D0000140000200567010857
:1043F0004772616F735F48616E646C65723A204703
:1044000072616F2028766961207365746173292059
:10441000696E6469636520272564272073656C6570
:1044200063696F6E61646F2E0D0A0000B0B582B0D3
:10443000134D2C78022C20D31248007801281CD16F
:1044400068782146FCF7F1F9491C69700EA02246F4
:104450000CF068F96A782B786C46154920460CF008
:104460008DF92046FBF71DFF8521090282B208461F
:104470002146FEF7F1FBFFF713FE02B0B0BDC046C8
:1044800014000020CC010020506167696E616361F7
:104490006F3A204D7564616E646F207061726120A7
:1044A000706167696E612025642F25640D0A000024
:1044B000C33E010880B586B00B4A1278012A10D19C
:1044C000801D891F89B201AA1123FEF711FC002863
:1044D00004D001A8FFF740FC06B080BD03A00CF09B
:1044E0000BFE06B080BDC046CC01002046616C6862
:1044F0006120616F206578747261697220746578DB
:10450000746F2064612070657371756973612064D4
:104510006F207061796C6F6164204457494E2E0D95
:1045200000000000F0B587B0002506955422825C9B
:10453000012A03D10224204607B0F0BD06465436B6
:1045400001243470026893685B0714D407694B68D0
:10455000022B18D104200743994887426DD1974810
:10456000C0430B68D9430143906A0840906200241D
:10457000002B66D4D2E0816D20220A43826535701B
:10458000204607B0F0BD059304231F438C4CA7427F
:1045900062D10F683846894B1840936A034393628F
:1045A00038025369834389680140864808401843AC
:1045B00050610024002F00D4B0E00320820582481F
:1045C0000368194611403846804F0490B84200D025
:1045D00096E07A4F7F1CB94200D391E07A48036895
:1045E00093431943754A5118491C01607948006882
:1045F0007949FCF71AF90C214143481C06900698AA
:10460000002800D18AE00698401E069006980028EF
:1046100000D183E00698401E0690069800287DD0C1
:104620000698401E06900698002877D00698401EEF
:10463000069006980028E6D170E00B680024002B55
:104640006CD5FA480168624A93426BD05F4A934244
:1046500064D10122920567E01F27059C27400F24A3
:1046600000940397BC40076E0194A74302970C681F
:10467000524F3C42049462D0E4072F4667D1049F16
:10468000BC075FD47C075FD43C075FD4FC061F46A1
:104690005DD4049CA30671D4630671D4230671D43F
:1046A000E30571D4049B9B0570D4049B5B056FD418
:1046B000049B1B056ED4049BDB046DD4049B9B04FC
:1046C0006CD4049B5B046BD4049B1B04009F3ED4FE
:1046D000049BDB0366D4049B9B0365D4049B5B03B0
:1046E00064D4049B1B0363D4049BDB0262D4049B4D
:1046F0009B0261D4049B5B02DB1716271F4026E058
:10470000334F0498B84209D10127BF053B4005D17A
:10471000C64803689343194339430BE0357020467C
:1047200007B0F0BD254A521C1140032292050368D0
:104730009343591801603570204607B0F0BD6300FF
:10474000DF0E04E0012702E0022700E00327039CBC
:10475000A740029B1F430766059B9B08C0699842C0
:104760000AD90198C043936A0340049FB800000F20
:10477000A0401843906213E7049F11E70527E6E77E
:104780000627E4E70727E2E70827E0E70927DEE74F
:104790000A27DCE70B27DAE70C27D8E70D27D6E74F
:1047A0000E27D4E71027D2E71127D0E71227CEE74C
:1047B0001327CCE71427CAE71527C8E7FFFF7F00B8
:1047C0000400008000FFFF7F08270140000200A4D2
:1047D000000400A834000020400D03000068006CB5
:1047E00070470000F0B589B0044600200890002C06
:1047F00076D00790A06D002807D125465435204675
:1048000000F016F900202870E06501273D072668B2
:10481000B068C00026D4B0687F4901402943B16028
:104820007E4800687E49FCF700F840000890089830
:10483000002817D00898401E08900898002811D02A
:104840000898401E0890089800280BD00898401E31
:1048500008900898002805D00898401E08900898ED
:104860000028E7D1B068284208D1A06D102101438B
:10487000A165E06D012107910843E065B06804215E
:104880000140A26D102002405118A16D2BD106905D
:104890000F20C7433A46F33A1140891CA165B1681D
:1048A000C9077DD10390049727462037216B4A1E04
:1048B00091410D03A168227E92030A43617EC903E0
:1048C0001143A27E50030843E36803432B430120B6
:1048D000C507216900290590029509DAA94308E076
:1048E000012009B0F0BD0143A165384609B0F0BD13
:1048F00041050B43387B45001D433878012809D119
:10490000002A11D0A06D20210143A165E06D059919
:104910000843E065626A002A0CD00720800102404B
:10492000A16A1143294306E0059800040543626A21
:10493000002AF2D12946F0683A4A02400A43F2605E
:104940000320820763681D461540E16C387F01280B
:104950000ED1206C0090676CA06C0190009807430A
:10496000019807432F430F43059807433D4600E056
:104970000D43049F30692C4901402943316102985D
:10498000834203990CD093420AD005988007834252
:1049900006D08804034025490A688243D01808607D
:1049A000706907229043656B2843706170697021BC
:1049B0008843A16B090101437161216901235805F5
:1049C000814203D000290BD1B06A07E0B06AE069E8
:1049D00080001C301C2101408F40206E3843B062A3
:1049E00070691040A8420AD10020E065A06D012145
:1049F000014302208143A165079809B0F0BDA06D75
:104A00000699084302218843A065E06D1843E065DC
:104A1000184609B0F0BDC046E8FFFF6F3400002023
:104A2000400D03000102DEFF02FCFF1F08270140CA
:104A300080B58AB0002109910891079106910591EE
:104A40000491039100680D49884201D00AB080BDED
:104A50002020029002A802F081FB002801D0FEF77E
:104A600073FE0120000506490A6802430A600968CE
:104A70000140019101980AB080BDC0460024014068
:104A800040100240F0B581B00D4604464069082848
:104A900001D1082704E02068C068C0073FD104277F
:104AA00000F08AFC06462168086838421CD00120C4
:104AB0004202A36D1343A365CA681205920F4AD13F
:104AC000A27E002A47D10A68120744D58A68520795
:104AD00038D4224658324B680C25AB434B60FF2537
:104AE00002351368AB4334E0002D1FD0681C10D191
:104AF00008683842DBD108683842D8D108683842A3
:104B0000D5D108683842F3D0D1E721680868384227
:104B1000CDD100F051FC801BA842F6D908E0A06D71
:104B200020210143A165012001B0F0BD00F044FC4B
:104B3000542000212154A06D04210143A1650320CC
:104B400001B0F0BDA26D20231343A36522465C3261
:104B5000E36D03431360227E0020002A01D001B0E0
:104B6000F0BD0C220A6001B0F0BD000070B5014636
:104B7000006882680220520711D454228A5C012AFC
:104B80000DD00C4654340120054620700E460846D0
:104B9000FCF7E4FB002803D000202070284670BDFD
:104BA000B06D09490140012000020818B0650020DD
:104BB000F06531681C220A6020708A68304B13400F
:104BC0001A1D8A6070BDC046FEF0FFFFF0B581B0CF
:104BD00004465420205C012802D1022001B0F0BD1F
:104BE00026465436012737702068816849071FD44C
:104BF00081688268D20737D00222114034D181689F
:104C000005220A40012A27D181681D4A0A40911CC9
:104C100081600321016000F0CFFB054620688068B9
:104C2000C00721D000F0C8FB401B0328F6D313E0D7
:104C30008168890704D48168114A0A401032826071
:104C400000F0BAFB0546206881684907D0D500F01E
:104C5000B3FB401B0328F6D3A06D10210143A165CF
:104C6000E16D5C34384605E0FF200230A16D8143E0
:104C700058340020002232703943216001B0F0BD69
:104C8000E8FFFF7F70B503460120CC0720D0114C10
:104C90000C40651EAC4103261546F541032D17D87F
:104CA0007D442D796D00AF440B0105090B4C0C4080
:104CB0000ED105E0084C0C400AD101E0002C07D1D0
:104CC000186841618168182399431143816000206D
:104CD00070BDC04680FFFF7F00FFFF7F0000FF7FA9
:104CE000F0B584B00E46022141770468A168012521
:104CF0002943A160016A01291ED002290ED003298F
:104D000028D1002A00D103E103950325114629404B
:104D1000042A00D3D2E033460025DEE057081ED037
:104D2000039503213B460B4000937B1E032B029609
:104D300001971AD2002133E0970814D0039503237A
:104D4000394619400091791E03290296019349D2F0
:104D500000257AE000214577084604B0F0BD002127
:104D6000D2073CD1D4E000219EE08F43002135469C
:104D70006B882E883604F3182360EB88AE883604DF
:104D8000F31823606B892E893604F3182360EB89AE
:104D9000AE893604F31823601035091D8F42E7D120
:104DA000009F002F029E14D08B00F1184D88F35AFB
:104DB0001B045B192360012F0BD0CB888D882D0439
:104DC000EB182360022F04D04B8909890904C91804
:104DD000216001998900039DD20700D198E0715AA2
:104DE000218095E09F43002531460E7836064B78AA
:104DF0001B049B198E7836029B19CE789B19236071
:104E00000B791B064E793604F3188E7936029B19FE
:104E1000CE799B1923600B7A1B064E7A3604F31861
:104E20008E7A36029B19CE7A9B1923600B7B1B0668
:104E30004E7B3604F3188E7B36029B19CE7B9B1972
:104E4000236010312D1DAF42CFD1009F002F029E55
:104E500026D0A900735C1B0671184D782D04EB1841
:104E60008D782D025B19CD785B192360012F17D047
:104E70000B791B064D792D04EB188D792D025B19EA
:104E8000CD795B192360022F0AD00B7A1B064D7A6D
:104E90002D04EB188D7A2D025B19C97A59182160FF
:104EA0001146019B9943039D03231A407A441279CA
:104EB000520097442C011C24715C27E0AA43002572
:104EC00033463768276077682760B7682760F768D8
:104ED000276010362D1DAA42F3D1002905D0AA0063
:104EE0001D469B582360012917D1039D10E07218BD
:104EF0005278715C090289182180046808E07218F0
:104F00005378715C0902C918218091782170046876
:104F100021684577084604B0F0BDAA18536823609D
:104F20000229039DF4D091682160F1E7B0B5012515
:104F3000002814D00446407F002804D100202077A8
:104F4000204600F031F8022060772079002808D050
:104F5000A168E2682046FFF795FE002808D02846A1
:104F6000B0BD20680F49416181681822914381607A
:104F700000256079002801D0216900E0E94320681C
:104F8000016181686022914362690A43826081689D
:104F900080229143A2690A438260012060772846FB
:104FA000B0BDC046B71DC10481B000680849884241
:104FB00001D001B070470120000306490A6802438E
:104FC0000A60096801400091009801B07047C0462E
:104FD000003002403810024070B500282CD0014645
:104FE00024314A78022A29D1046822680E239A4380
:104FF0002260426C1568314B1D4015602568012206
:1050000095432560046C1C2525401446AC402C4D6E
:105010002E6826432E60846CC56C6560046D002C80
:1050200005D025681D402560436D806D58604A702D
:10503000002000220A7070BD012070BD0422C263EE
:10504000012000220A7070BD70B52421012444544F
:10505000014624314A78022A2BD103681A680E24AB
:10506000A2431A601C68012294431C60446C2568AA
:10507000124B1D402560046C1C2525401446AC4095
:105080000F4D2E6826432E60846CC56C6560046DE0
:10509000002C05D025681D402560436D846D5C6043
:1050A00000240C704A70816B002900D0884720468C
:1050B00070BD0421C163204670BDC046FFFEFFFFE6
:1050C000040002402521405C70470000B0B5044652
:1050D00000F072F90546601C02D0044800782418DC
:1050E00000F06AF9401BA042FAD3B0BD0C000020CA
:1050F000F0B58AB00390002970D00E46A648039AF6
:10510000824201D0062000E005200B221207039BFB
:105110009B180A22D3410293042B00D302900398D8
:1051200020300190002739463C463A46009626E05A
:105130008F40039D2868384328601C203C46099F07
:105140003840069107998140D0088000019E33586D
:105150008B4306993350A868A043A8606868089EEE
:10516000B0436860E868A043E860009E059C521C5C
:105170003046D0403F1D891C083400282ED0012025
:10518000904005463540F2D00890099718200594C4
:1051900020400F240794844003271646BE437F4BCC
:1051A0009B1904931E6E06942640029B83409E42E8
:1051B000BED1049C60347A4B1868A84318605868C4
:1051C000A8435860754B1868A84318605868A843EE
:1051D00058602068069B98432060A9E70AB0F0BD9C
:1051E00080B5202801D1FEF7BFF980BDB0B50446D7
:1051F000074D2868204203D02C60204600F00AF8B2
:105200006868204203D06C602046FFF7E9FFB0BD1C
:105210000C18024070470000F0B58AB00690099162
:105220000B68002B00D1B4E05B480699814201D0A5
:10523000062000E005200B221207069989180A2291
:10524000D1410091042900D30090069820300190AC
:1052500000252E46079529460FE01A4362600899FB
:10526000491C099803681846C8400835B61C079AB7
:10527000121D0792002800D18BE0012420460891DE
:10528000884003400393EAD0049509994A681021A5
:105290001143122915D11C21079A114005960F269A
:1052A00032468A40089BDB089F00019BDD599543ED
:1052B000099A12693240059E8A402A43DA510999B7
:1052C0004A68032311461940B1400293B340374660
:1052D000069E35689D430D4335603E46D943059192
:1052E000122A049D15D894402E490C420FD0069CDA
:1052F000A168059B1940099BDB68B3400B43A36081
:105300001109089B9940636883430B436360032A38
:10531000A5D0069BD8680599084009998968B140CD
:105320000143D960D0009AD5182028400F21814030
:10533000089A029B9A43194CA218136E8B4300994A
:105340008140194311661648026809984068C103F4
:1053500002D5039B1A4301E0039B9A4310490A605C
:105360004A68810301D51A4300E09A430C494A6018
:105370002268C10205D51A4322606268800206D500
:105380006BE79A4322606268800200D565E79A4322
:1053900064E70AB0F0BDC046001400500018024097
:1053A0008018024006000600002A02D01822815010
:1053B0007047282281507047014800687047C046F6
:1053C000482D0020B0B50246034640335C780220E9
:1053D000202C17D11C78012C14D024205870106870
:1053E00002680124A2430260220305689543056018
:1053F00002680A43026001682143016000201870BE
:1054000020215970B0BDB0B50246034640335C78E8
:105410000220202C17D11C78012C14D02420587085
:10542000106802680124A24302600F22120205687C
:10543000954309022943016001682143016000206E
:10544000187020215970B0BD70477047B0B5002862
:1054500012D0054640352421697001680A6801238D
:105460009A430A60044600F025FC002060646870DE
:1054700020632870A870B0BD0120B0BDF0B581B028
:105480000122150201688B691C462C406642664168
:105490000F6880243C4067426741374304D1466C23
:1054A000012737434764CD61654265415E05164675
:1054B00000D52E46002E05D19502466C08273743AD
:1054C0004764CD61654265419B05134609D4002BB5
:1054D0000AD0416C0B22114201D004F08FF801B0C8
:1054E000F0BD2B46002BF4D15202436C02241C4326
:1054F0004464CA61416C0B221142EED1EFE780B5E2
:1055000002689169436B1268002B00D0984780BDF8
:1055100010B50168074C22691268914200D010BD95
:10552000416C05A00BF0FEF80120207105202070D1
:1055300010BDC04658010020454550524F4D2044F3
:1055400072697665723A2048414C5F4932435F4543
:1055500072726F7243616C6C6261636B206163692C
:105560006F6E61646F21204572726F3A203078252A
:105570006C580D0A00000000F0B581B0002822D060
:10558000054640356978002905D100212970044677
:1055900000F0AAFB20462421697001680B680122F3
:1055A00093430B600F231B0644689C430C618C687B
:1055B0001C4B1C408C608468C668012E06D1D60343
:1055C00034438C600CE0012001B0F0BD2127BF0204
:1055D0003C438C60022E03D1D4024E68264302E085
:1055E000D4024E68A6434E604C680F4E26434E6070
:1055F000CC681C40CC60036944691C4383691B026E
:105600002343CB60C369046A1C430C600B681343DB
:105610000B600021416420226A7001630846A97072
:1056200001B0F0BDFF7FFFFF00800002F0B589B040
:105630000793054600240894034640335878022710
:10564000202800D090E028688069000400D58BE015
:105650001878012800D187E0242058700120039396
:105660000290187004946C64D84801400692059129
:1056700013E0C46100972024002228462146079B9E
:1056800004F07AFD00285DD00898401C0890089826
:105690000898069A904205995ED2E8680128344835
:1056A00000D03448401829684860FFF785FE074657
:1056B0002868816920263140826910242240891897
:1056C0002BD10799491C10D00798002842D0FFF72A
:1056D00073FEC01B079988423ED828688169314013
:1056E000826922408918F2D017E0816931408269CD
:1056F0002240891811D1816931408269224089187C
:105700000BD18169314082692240891805D18169B4
:105710003140826922408918E7D08169C906A8D43E
:10572000009720240027284621463A46079B04F08C
:1057300023FD002809D0686C0428A5D12868C4611D
:105740006F64A1E72868C4619EE72868C461039973
:105750004C7007E0FFF730FE03994E70686C3043E1
:105760006864029F04980870384609B0F0BDC046CE
:105770000020000200280002704770477047704701
:1057800010B5074C006821690968884207D1207864
:10579000022804D1FFF710FEA0610320207010BD85
:1057A00058010020F0B589B00446064640367578A9
:1057B0000220202D09D10E9F002F08D00F9D002D13
:1057C00005D007953578012D06D109B0F0BD01202F
:1057D0004102616409B0F0BD0397059302920691FE
:1057E000012008903070FFF7E7FD024620688169CC
:1057F00009042FD410990491222171704021B170B5
:105800000027676407996185039961626763F949B5
:10581000069B0B400599C9B209040693C918436851
:10582000F54D2B40C918012308935B03C91841604B
:1058300020460499154604F05FFD002846D10397E1
:10584000079520680599012926D10299C9B281627C
:10585000079D31E00898C50302E081692942C9D05B
:1058600019212046174604F0E5F9002811D1FFF769
:10587000A3FDC11B20681A293A46EED3816929424B
:10588000EBD0606C202108436064717000203070A0
:10589000B070089809B0F0BD0299090A81622046EB
:1058A0000499079D2A4604F027FD0028039F0DD187
:1058B00021680298C0B288620095402100222046EB
:1058C000049B04F059FC0028039F03D0377008980C
:1058D00009B0F0BD608D000A07D020684168F24A27
:1058E0001140021DFF203B4B09E0608D2268536888
:1058F000ED490B40C1B209041943121D344B069FF8
:10590000194339431160208501200890400638185A
:105910000590079A049D0FE0608D208521684A68F4
:10592000B74B1A40C0B20004059B184310434860AF
:10593000079A608D002834D0009204210027204669
:105940003A462B4604F018FC0028A2D1606A216870
:10595000496A0170608D401E6085606A401C60620B
:10596000208D401E2085618D0029079AE1D000041A
:10597000DFD100928021002220462B4604F0FCFB60
:10598000002886D1608D000AC6D0FF2020852168BE
:105990004A689B48024006980243984802434A607E
:1059A000C6E72046294604F064FC0028089800D089
:1059B0000BE720682021C1614268924B134043608D
:1059C00071703770B770384609B0F0BDFF03000042
:1059D000002400020024FF01F0B589B00446074608
:1059E00040377D780220202D09D10E9E002E08D050
:1059F0000F9D002D05D007953D78012D06D109B0EA
:105A0000F0BD01204102616409B0F0BD039604932A
:105A100002920691012005903870FFF7CDFC0646F2
:105A20002068816909042DD40896109D2121797080
:105A30004021B97000266664079961850399616207
:105A400066639A49069A0A400499C9B20904069203
:105A500089184268944B1340C918954A89184160C7
:105A6000204607952946089A04F046FC002845D1AF
:105A7000039620680499012925D10299C9B281624F
:105A8000089D30E00598C50302E081692942CBD02A
:105A900019212046324604F0CDF8002810D1FFF736
:105AA0008BFC811B20681A29EFD381692942ECD035
:105AB000606C202108436064797000203870B870F1
:105AC000059809B0F0BD0299090A8162204607993C
:105AD000089D2A4604F010FC0028039E0ED1216880
