:020000040800F2
:10000000E8540020D5000008CDAB00088195000819
:1000100000000000000000000000000000000000E0
:10002000000000000000000000000000D9B300083C
:10003000000000000000000075AC00086DB400086E
:10004000E7000008E7000008E7000008E7000008F4
:10005000E7000008E7000008E7000008F1370008A3
:10006000B5CB0008E7000008E7000008E70000083B
:10007000E7000008E7000008E7000008E7000008C4
:10008000E7000008000000000000000041B5000883
:1000900000000000E7000008E70000088595000860
:1000A000E7000008E7000008E7000008E700000894
:1000B0004DC3000800000000000000000000000028
:1000C0000348854600F092FE004800471D070108DE
:1000D000E85400200448804704480047FEE7FEE754
:1000E000FEE7FEE7FEE7FEE731B50008C1000008C5
:1000F00030B5434351435C18010C130C0D465D436E
:100100002C1980B292B20546554351430A0C09049A
:100110004D1962415843010C00044019514130BD52
:10012000004870471012010810B50446FFF7F8FFA9
:100130000068005DC007C00F10BD01466139192974
:1001400000D82038704701464139192900D820309D
:10015000704703460B439B0703D009E008C9121FF1
:1001600008C0042AFAD203E00B780370401C491C33
:10017000521EF9D27047D2B201E00270401C491EF3
:10018000FBD270470022F6E710B513460A46044634
:100190001946FFF7F0FF204610BD10B5044605E0F4
:1001A0000B780370401C002B00D0491C521EF7D264
:1001B000204610BDCAB2401E4178401C8A4202D07F
:1001C0000029F9D100207047421C0178401C002909
:1001D000FBD1801A704710B5002200E0521C835CEE
:1001E0008C5CA34201D1002BF8D1D8B2E1B2401A05
:1001F00010BD30B504460020034600E05B1C93426E
:1002000003D2E05CCD5C401BF8D030BD03460A78D9
:100210000270401C491C002AF9D118467047F8B5F5
:100220000E460546002400E0641C285DFFF78BFFA6
:100230000746305DFFF787FF381A02D1295D002994
:10024000F2D1F8BD0FB400B58DB009900B9010A994
:1002500000200091C0430A9000200C9006480690B0
:10026000064807906A4609A80F9900F0D3FA0DB026
:1002700008BC04B0184700003508000855080008FD
:10028000FFB50027FF4383B000205C6801909E68A3
:100290001D46A9697F1C049888470090296A8847F1
:1002A0000028F6D10098401C0CD003204002844363
:1002B000002E19DD600614D500982B2809D02D28B2
:1002C0000FD103E00020C04307B0F0BD0120800241
:1002D0000443A9697F1C04988847761E0090002E6D
:1002E00002DD0098302803D00598002825D035E09D
:1002F000012040020443A969761E7F1C04988847A8
:100300000090002E03DD782805D0582803D00598EA
:10031000002810D022E00598002801D010281DD117
:10032000012040028443A969761E7F1C04988847F7
:100330000090102002E0082000E00A2005900DE067
:10034000012149020C43059A0199761E5143081870
:100350000190A9697F1C049888470090002E05DD54
:100360000599009800F040FA0028E9DAE969049854
:100370008847A00502D40120C043A5E7E00722D1A9
:10038000600611D56005019800D5404229680A1D14
:100390002A600968220501D5087014E0220701D5FA
:1003A000088010E008600EE02868011D29600068E0
:1003B000210502D50199017005E02107019901D5B8
:1003C000018000E0016038467EE70000F7B5009C40
:1003D0000F4600262578641C002D05D0FFF7A0FEEF
:1003E0000068405DC007F5D12B2D02D02D2D18D00F
:1003F000641E39462046029A00F03EFA002F04D0CF
:100400003968A14201D1009939607105022400299F
:100410000BDA4042002803DD10F02EFA0460A0073A
:10042000FEBD012080020643E3E70028F8DA10F061
:1004300023FA04600048FEBDFFFFFF7F70B506464B
:1004400010F01AFA046805460A2200213046FFF728
:10045000BDFF2C6070BD70B5064610F00DFA046843
:1004600005460A2200213046FFF7B0FF2C6070BD20
:10047000F8B502464A40D40F42004B0052085B08D0
:100480009A4202D20246084611464A0023D0C30DC2
:100490004A00DDB2120EAD1A202D35DA49020126CE
:1004A000490AF6058A19002C00D0524220214F1B20
:1004B0001146B9402A411018C20D9A4221D0002C91
:1004C00017D0012D08DCDA05801AD20F8019D20767
:1004D000DBB200F02CFAF8BDDA05801A01234000E7
:1004E0001B06C01880185A428018CA0F10434900D2
:1004F00007E04908C2071143DA05801A801940084D
:10050000801800F00CFAF8BD61000122511A001B9E
:10051000F7E70122D2075140AAE70122D207504053
:10052000A6E7024670B54A40D30FDB0740002DD046
:100530004A002AD0010E140E000212020919400AC4
:10054000520A8418E50104465443000A120A2E0494
:100550005043A4194219200CC543AA18120C0125B6
:10056000AD03521C521912047F39240400D0521CCE
:10057000104301D44000491EC2B20C06C009201825
:10058000401C4008802A02D003E0002070BD4008D3
:100590004000002900DA0020184370BD70B5024603
:1005A0004A40D50F40004A00ED0740085208002895
:1005B00014D0002A12D0C40DD30D41020120C00571
:1005C0005202490A520AE41A091812187D3491425B
:1005D00001D3641C00E04900002C01DA002070BD4A
:1005E0000023914201D3891A03434008490000289F
:1005F000F7D100290AD0914202D10121C90705E0B3
:10060000914201D2012101E00121C943E005C01856
:10061000401900F084F970BD0122D207002800DBE8
:10062000101A002900DB511A814201D801207047BD
:10063000002070470122D207002800DB101A002991
:1006400000DB511A814201D201207047002070471F
:100650000122D207002800DB101A002900DB511A02
:10066000814201D301207047002070470122D20748
:10067000002800DB101A002900DB511A814201D941
:1006800001207047002070470122D207002800DBBC
:10069000101A002900DB511A814201D10120704754
:1006A00000207047C217C10F504010B54018CA074C
:1006B0009623002100F03BF910BD10B500229623CF
:1006C000114600F034F910BD0EB5C217C10F5040ED
:1006D000CA0740180021054B0293019200910A4677
:1006E0000B4600F06AF903B000BD000033040000BF
:1006F000C20F410040020123400ADB05D207090E68
:10070000C0187F2901DA00207047962903DC962360
:10071000591AC84001E096398840002AF4D0404276
:100720007047C20FD207400040080BD0C10D07230D
:10073000DB01C91840020905400A1143C2084007FD
:100740001143704700200146704770B504460029E8
:1007500003D000202022012310E0002801D0002037
:10076000C043C046C0460DE02546D5408D4205D366
:100770000D469540641B1D46954040191546521E76
:10078000002DF1DC214670BDF0B51FB406460020F7
:1007900082B005464024019100901BE00199224659
:1007A0000F46304600F04AFB049A059B801A994197
:1007B00010D310461946224600F030FB361A8F41FE
:1007C0000197224601200021009F00F027FB3818E6
:1007D0004D4100902046641E0028DFDC019B0098FC
:1007E0002946324607B0F0BD3A2800D230382023DF
:1007F00002469A43412A01D310463738884201D332
:100800000020C0437047000002681378511801604F
:100810001846704710B5D16004495161044911620E
:1008200000211161114600F02DFB10BD09080008E0
:10083000290100084268002A08D001680B78491C89
:10084000002B03D0521E06C0184670470121C1601C
:10085000881E70474268002A0BD0C3680168002BCD
:1008600007D183688B4204D0491E521C06C0002069
:1008700070470020C0437047F7B582B0029C002744
:100880002078641C15460197302802D0002D15D021
:1008900015E020780127641C782804D0582802D05D
:1008A000002D09D00BE0002D01D0102D07D100271D
:1008B00010252078641C02E0082500E00A250026A7
:1008C000009610E00099012769430818020C294698
:1008D00080B2714300908E183804864201D3012003
:1008E00001902078641C2946FFF77EFF0028E9DA92
:1008F0000398002805D0002F01D0641E00E0029C60
:1009000004600198002806D00FF0B6FF02210160B4
:10091000C81E05B0F0BD009930040843F9E700296E
:1009200004DA401C490001D140084000704770B40F
:100930000024050C05D11024000402D1002921D087
:100940001124050E01D100020834050F01D1000168
:10095000241D850F01D18000A41C002801DB40006C
:10096000641C002908D020252E1B0D46F540A1400F
:1009700000D001212943084301061B1B000ADB1D8F
:1009800002D5002070BC7047DB05181880180029BC
:10099000F8DA401C4900F5D170BC400840007047AF
:1009A00010B5002B08DA0024401C614192185B410D
:1009B0001A4301D14008400010BDF0B51FB482B009
:1009C00005460C0003D008460FF03EFF02E00FF092
:1009D0003BFF2030024600902146284600F01EFAD8
:1009E000049B059A04460F4618431143084314D04C
:1009F000184610431BD0009840210A1A1846059942
:100A000000F01CFA05460E46009A0599049800F07D
:100A100005FA084305D0012004E02046394607B016
:100A2000F0BD0020C11705430E432C433743009906
:100A30000E986305401A7905E40A00220C43FD0A6A
:100A40000A3002D500200146E9E701051019694185
:100A50000C9C0D9D00196941FFF7A2FFDFE7000024
:100A6000F0B507460846584087B0C00F04904800CC
:100A70000E46590040084908BC1A884105D238463C
:100A800031461E4617460B460246580040081043A2
:100A90004CD0300D039040055900400D490D059094
:100AA000401A0290402872DA18030121000B090550
:100AB0000843019004980092002805D00199524201
:100AC0000020884100920190029840210A1A019961
:100AD000009800F0A3F905460C466B4607CB00F0E2
:100AE000BEF9C0197141039A0E0D0023D717564065
:100AF0001A467A40164344D0049A002A2DD0029A0E
:100B0000012A039A15DC1205C01A91410126360507
:100B1000001C7141D20F059ED207009301920296EC
:100B20002A462346FFF749FF07B0F0BD3846314655
:100B3000FAE71605224A0F46B218C01AB74101213A
:100B40000905001C4F4100187F41114618187941D2
:100B5000E20F10436D19644113E0E2076D0815437D
:100B60006408C2071443039A01261205C01A914172
:100B70003605001C7141CE07400830434908C018B3
:100B800051412A462346FFF70BFFCDE7FFE70498C4
:100B900001224000C117121A00238B4104983146EC
:100BA000C417381AA141EEE730B40124E4076340CA
:100BB00030BC55E730B40124E407614030BC4FE756
:100BC0000000E0FFF0B51FB488B00B99099800242D
:100BD00048400999C00F490049080991C0070B997D
:100BE0000090490049080B9109990898A6460843C6
:100BF0001CD00B990A98084318D00998012440008A
:100C0000420D4800410D099824050003000B2043C4
:100C100009900B980003000B20430B9050181C49BF
:100C20004018002201901446104605E000200146BD
:100C30000DB0F0BD032801DA034600E003239C4613
:100C4000C11A0AAE0AE05F0008ADED5B4F00F75B2A
:100C50007D430027AA187C41491C5B1E6145F2DDDB
:100C6000410004AB5A522104120C0A43240C401CCC
:100C70000828DFDB019802900099704601910090EE
:100C8000059B049A07990698FFF797FED0E70000A6
:100C90000DFCFFFFF0B50C465C4085B0E40FE407A7
:100CA00003944C0000266408590094464908024603
:100CB0000296224321D062460A431ED06200570D9D
:100CC0004A000E032303550D012402462C49240536
:100CD000781B1B0B360B40182343264361460090BC
:100CE0001C46501AB44103D30098401C009002E007
:100CF000921800985B41002803DA0020014605B0F5
:100D0000F0BD0020012109050746864611E0644632
:100D10001D46141BB54106D36546521BB3417446AC
:100D200007430C43A646CD074008490828439218BC
:100D30005B4105460D43EAD11046184313D0604687
:100D4000194650407140084306D06046101AB3411E
:100D500006D20122002306E000220123DB0702E085
:100D60000122D2435310009874460105381C61419A
:100D7000029C039D00196941FFF712FEBFE70000C6
:100D8000FD0300004A0009030123090B1B05194359
:100D90000A4B10B5520D9A4202DA0020014610BDEE
:100DA000064B34339A4203DC9A1A00F047F810BD20
:100DB000034BD21800F032F810BD0000FF03000012
:100DC000CDFBFFFF10B5002904DB0124E4074042FE
:100DD0008C412146002B04DB1C460123DB075242D9
:100DE000A341994200D1904210BD00001CB50948B2
:100DF00000900948019005460126009C05E0E36843
:100E000007CC33430C3C98471034AC42F7D3FFF780
:100E10005BF90000C0730108E073010810B5202AD7
:100E200004DB0146203A9140002010BD9140202370
:100E30009C1A0346E3401943904010BD10B5202A88
:100E400004DB0846203AD040002110BD0B46D340B9
:100E5000D0402024A21A91400843194610BD10B575
:100E6000202A06DBCB170846203A1041C1170B4356
:100E700006E00B461341D0402024A21A91400843BB
:100E8000194610BDF3B58DB000200A9001200B90DB
:100E9000002608460C300C46099062690121099829
:100EA0009047051E2ED0252D2DD0216A8847002879
:100EB00018D06269012109989047216A8847002863
:100EC000F7D1411E62690998904700E0761CA1693C
:100ED0000D988847216A88470028F7D1E1690D9865
:100EE0008847DAE7A1690D9888470746A84201D1EB
:100EF000761CD2E7E1690D9888477F1C02D10A98D9
:100F0000002877D049E1002762693D4639460998B3
:100F100090472A280CD16269012109989047012540
:100F200006E00A214F433F18303FEBD41020054321
:100F30006269012109989047014630390A2903D294
:100F40009B498F42DEDCECE7E90600D4994F6C2820
:100F50000AD04C2810D0682824D06A282ED07428B3
:100F60000CD07A280AD00DE06269012109989047D7
:100F70006C2823D004211CE0202005436269012154
:100F800009989047A760656065284FD026DC5828EF
:100F900039D01ADC452849D012DC252834D0412824
:100FA000B0D143E06269012109989047682802D0D6
:100FB00008210D43E6E70120C002DEE70220DCE75E
:100FC000462833D047282CD130E05B2870D06128E8
:100FD0002CD063286CD0642823D161E06F284FD0D7
:100FE00009DC662822D0672820D0692826D06E2800
:100FF00017D12EE0CDE070284DD073286FD0752822
:101000004ED078280DD154E0A1690D988847054647
:10101000252800D16CE7E1690D9888476D1C00D147
:101020006DE7BAE00A224CE00A2252E00120234692
:101030006A46C0430D99C046C046A3E028464021F9
:1010400008436060A807234601D5002239E000224A
:101050003FE0E80700D020E72068011D216000681C
:10106000290501D5067018E7290701D5068014E780
:10107000A90703D5F117066041600EE706600CE78B
:101080002846402108436060A807234601D508226E
:1010900017E008221DE0484928460840606016E035
:1010A0002846402108436060A8072346BCD5B9E71D
:1010B00015E02846402108436060A80707D523466D
:1010C00010220120C0430D99C046C0465AE0234675
:1010D00010220120C0430D99FFF7D2F852E0002101
:1010E0000C910B460091632802D05B2807D043E0A7
:1010F000E80601D40120A060012000903CE0626974
:101100000121099890475E2805D101200C900146E5
:101110006269099890472169002906D10B4601AA06
:101120008F00491CD3510829FADB002835D02169EA
:1011300000290ED1C117C90E09184A11930001AA3E
:101140009A1849094901411A01201368884003434C
:10115000136062690121099890475D28E5D10C98D8
:10116000002808D0002001AB81005A58401CD2430F
:101170005A500828F8DB01AB01202246C0430D99E4
:10118000C046C04600280ADA401C06D10B98002849
:1011900003D00020C0430FB0F0BD0A98FBE7E90779
:1011A00002D10A99491C0A91361800200B9074E666
:1011B000CCCCCC0CFFFFFF7FF1F7FFFFF0B581B087
:1011C00005460024009400688168C9071CD1816825
:1011D0002B4A2F3211420AD0A86D10210143A96574
:1011E000E86D01242043E865204601B0F0BD816828
:1011F000234A1140012739438160224800680002D8
:1012000005D4687E012825D1204601B0F0BD1E48D6
:1012100000681E49FFF799FA401C009000980028CA
:10122000EFD00098401E009000980028E9D0009868
:10123000401E009000980028E3D00098401E0090C7
:1012400000980028DDD00098401E009000980028EB
:10125000E7D1D6E704F01EF9064604E004F01AF9D7
:10126000801B0328B8D228680168C907CCD18168DF
:10127000C907F3D18168024A114039438160EDE723
:10128000E8FFFF7F0827014034000020400D0300E5
:10129000F0B583B067490A684968401A8618524910
:1012A000CF6801200023BE4202460EDD4C68A642F4
:1012B00005460FDA1543012D10D14D69AE4213DCFE
:1012C0000022BE42034613DA13E01A464C68A642D7
:1012D0000546EFDB1D461543012DEED00D460835C2
:1012E0000868A74217D043E00122BE42034600DB54
:1012F0001346012B06D1CB699E420EDC0022AE4282
:101300000EDA0EE028460D46103508313C460746F9
:101310000868A7422CD103B0F0BD0122AE4200DB29
:101320001046029500281BD0A6423BDA886809685F
:101330000291FFF7EEF80546381BFFF7B3F90146B7
:101340002846FFF72BF90546301BFFF7ABF901469E
:101350002846FFF7E6F80299FFF78AF803B0F0BDD8
:101360000D4618351031029C1F460868A742D2D09E
:10137000391B07460846FFF795F902902868394659
:10138000FFF7C7F80299FFF709F90546301BFFF789
:1013900089F901462846FFF7C4F83946FFF768F88F
:1013A00003B0F0BD8869019009691C46FFF7B1F8E8
:1013B00007460298201AFFF775F901463846FFF7ED
:1013C000EDF80546301BFFF76DF901462846FFF79B
:1013D000A8F80199FFF74CF803B0F0BD0248406847
:1013E000144908607047C0468400002080B5322050
:1013F00003F0DAFE004880BDF895030080B503A035
:101400000FF0B4FE0B490C48486080BD4144533195
:101410003233323A205461726520656D206D6F64FD
:101420006F2064652073696D756C6163616F2E0D4B
:1014300000000000C0000020CD9703007D200001C7
:10144000054948607047C046704700007D20000194
:10145000014988607047C0469001002010B51248CD
:10146000124901F081FA124C204602F01FF911488E
:1014700002F076FA104809F081FC09F04DFB01F00A
:10148000BDFB09F0ABFF02F0C1F9FFF7A7FF204653
:1014900000F092FA02F0B8FB084809F089FB08480E
:1014A00009F08EFB10BDC046180D0020B5250008C0
:1014B0008C08002068080020C00B002000008E422D
:1014C0000AD7CD4180B500F0F1FA00F0D5FB01F06C
:1014D0005FFA02F04FFA09F08DFF09F027FB01F0E7
:1014E00097FB80BDF0B587B0019047480FF03EFEF6
:1014F000464847490FF050F9002001F0EFF9454800
:1015000003F052FE02AC1121204602F0FDF9012643
:1015100035032846103040A104273A4601F0E0FA8E
:101520003F490822284601F0DBFA284620303DA139
:10153000072201F0D5FA2046FEF746FE303582B28A
:101540002846214601F0CCFA38A1304D28460FF04C
:1015500023F9304601F0C2F97D20C6003446C83474
:10156000204603F021FE37A128460FF015F902208E
:1015700001F0B4F9204603F017FE39A128460FF018
:101580000BF9032001F0AAF9304603F00DFEFFF736
:1015900035FF39A128460FF0FFF8384601F09EF9D3
:1015A000304603F001FE0AF037F809F005FB39A1D7
:1015B00028460FF0F1F8052001F090F96436304626
:1015C00003F0F2FD02F084F80446002812D00F4820
:1015D00039490FF0E1F8062001F080F9304603F0B8
:1015E000E3FD36480FF0C2FD019801F077F920467F
:1015F00007B0F0BD3B2001F071F92E480FF0B6FDA9
:10160000204607B0F0BDC046753C01081E3C0108ED
:10161000AD3C0108B80B0000312E30300000000056
:10162000C83C0108302E30302E30320056657269C9
:10163000666963616E646F20536572766F732E2ED8
:101640002E00000056657269666963616E646F20E2
:101650004D656469646F7220467265712E2E2E008E
:1016600056657269666963616E646F2042616C6180
:101670006E63612E2E2E0000566572696669636185
:101680006E646F205465726D6F6D6574726F2E2E6F
:101690002E00000056657269666963616E646F2092
:1016A0004D656D6F72696120454550524F4D2E2E2C
:1016B0002E000000543C01089A3C0108303C01080F
:1016C00080B588B015A00FF067F816480FF064F8E1
:1016D00007A806A905AA09F029FB002808D005A833
:1016E000037806A8027807A801780FA00FF054F835
:1016F00004A803A902AA01AB09F0BEFA002808D089
:1017000002A8037803A8027804A8017811A00FF0BA
:1017100043F81BA00FF040F808B080BD0A0D0A0D79
:1017200000000000D2120108417373696E61747584
:101730007261202020202020202020202020202016
:10174000253032643A253032643A253032640A0D4D
:1017500000000000526573706F6E736176656C20D7
:10176000202020202020202020202020253032640E
:101770002F253032642F253032640A0D000000001E
:101780000A0D0A0D0A0D0A0D0000000010B586B002
:10179000072901D84C482FE0801D891F89B203AA70
:1017A0000B2301F0E9F9002825D003A800780028D0
:1017B00029D06846002484720481019400940B218E
:1017C00002F090F8002826D069468C7203A8FEF734
:1017D00002FD002824D003A824A10822FEF709FD59
:1017E000002825D023A003A90EF0D6FF3E2001F04B
:1017F00075F806B010BD12A00FF0B8FC3B2001F048
:101800006DF806B010BD2F480FF0B0FC3E2001F07F
:1018100065F806B010BD3B2001F060F806B010BDC1
:1018200027480FF0A3FC172001F058F806B010BDB0
:101830001AA00FF09BFC2E2001F050F806B010BD4E
:10184000417574683A2046616C6861206E6F207043
:10185000617273657220726F627573746F20646158
:101860002073656E68612E0D0000000047484B40F4
:1018700031323300417574683A2053656E686120D7
:10188000696E636F72726574612E20446967697452
:1018900061646F3A20272573270D0A00417574682B
:1018A0003A20456E7472616E646F206E61207465BB
:1018B0006C61206465205365727669636F210D0049
:1018C000897001089F700108BC70010810B584B0D0
:1018D000082904D23B2001F001F804B010BD801D9E
:1018E000891F89B201AA0B2301F046F9002816D0FE
:1018F00001A8FEF769FC002813D02E4C217800299E
:1019000017D000202070641C01A92046FEF763FC5C
:10191000002820D0402000F0E1FF04B010BD12A04C
:1019200000E01BA00FF022FC3B2000F0D7FF04B02A
:1019300010BD042804D23F2000F0D0FF04B010BD39
:10194000601C01A9FEF762FC012020701F2000F03E
:10195000C5FF04B010BD204602F006F9172000F0C4
:10196000BDFF04B010BDC046417574683A204661A1
:101970006C6861206E6F207061727365722064659F
:10198000206E6F76612073656E68612E0D00000019
:10199000417574683A204E6F76612073656E686198
:1019A0002076617A69612064657363617274616431
:1019B000612E0D006001002070B582B01E4D2860C0
:1019C00001AC0026267021460EF0F2FC002811D151
:1019D00020780A280ED119A00A2100F019F92868E8
:1019E000D2210EF04BFB00280AD01FA000F010F906
:1019F00002B070BD2C4800F00BF92E6002B070BD33
:101A000028680EF02BFB002804D0254800F000F9D0
:101A100002B070BD2868D22421460EF0D7FC0EF02B
:101A200049FEFEF77EFE02460B461E48214600F0A8
:101A3000EFF802B070BDC0466C0100204241544531
:101A40005249413A2042513235363232206465746F
:101A500065637461646F2E2049443A2030782530E4
:101A600032580D0A00000000424154455249413AA3
:101A70002046414C484120616F20636F6E66696764
:101A80007572617220706172616D6574726F73201E
:101A9000646F20425132353632322E0D0A0000007A
:101AA0004C7101080C710108DF700108F0B583B0BA
:101AB0004C4C2068002800D192E00EF073FD03F03A
:101AC000E9FC6168401AC0087D2800D288E003F074
:101AD000E1FC60600EF0EAFD4349FEF7C7FD002817
:101AE00001D0042423E00EF0E5FD04463F49FEF753
:101AF000BDFD002801D0032419E03D492046FEF732
:101B0000B5FD002801D0022411E03A492046FEF735
:101B1000ADFD002801D0012409E037492046FEF739
:101B20007BFD002801D1044601E00020C443334D71
:101B30002888A1B2814205D01120000221B200F014
:101B40006FFF2C8000F0C6FE682849D10EF0AEFD74
:101B500005460EF0A7FD04460EF09CFD07460EF06C
:101B60009DFD01900EF0A6FD02900EF08FFD244E1B
:101B700028463146FEF7D5FCFEF7BAFD0146214D59
:101B8000284600F071FF20463146FEF7CAFCFEF7FA
:101B9000AFFD01462846703000F066FF1A4938460E
:101BA000FEF7BFFCFEF7A4FD01462846803000F09A
:101BB0005BFF164C01982146FEF7B3FCFEF798FD3B
:101BC00001462846903000F04FFF02982146FEF76C
:101BD000A8FCFEF78DFD0146A035284600F044FF25
:101BE00003B0F0BD6C010020000090400000AA424C
:101BF000000048420000F04100007041AA000020AF
:101C000000007A449022000000401C460000204161
:101C100083B0F0B582B0044607A80EC007AB0193AD
:101C200001200102134822460EF0F6FD01281CDBBC
:101C3000C7480068002818D00E4C2046FEF7C4FAAA
:101C4000002812D00546C34EC34F032041027088BE
:101C5000401CFEF77AFDB088814206D07088227859
:101C60003A547180641C6D1EEFD102B0F0BC01BC0F
:101C700003B000470E020020F0B581B0594E307815
:101C8000012800D0ACE058A0FFF7C2FFFEF748FAE9
:101C900005460068554C2778C15DC90706D06778AE
:101CA000C15DC907A41C0029F5D1641E202120466E
:101CB000FEF780FA00281AD000210170811C2A68E2
:101CC0004D1E2878135CDB0716D00878135CDB0701
:101CD00011D04878135CDB075ED08878135CDB0793
:101CE000091D002BECD18D1E002807D007E0002530
:101CF000002F07D16AE00D46002800D1054627785D
:101D0000002F63D03A492046FEF789FA002841D0D7
:101D100039492046FEF783FA364F002840D037492C
:101D20002046FEF77CFA00283CD035492046FEF7D5
:101D300076FA002838D033492046FEF770FA00289A
:101D400034D031492046FEF76AFA002830D02F49B6
:101D50002046FEF764FA00282CD02D492046FEF7D5
:101D60005EFA002828D02B492046FEF758FA0028B2
:101D700024D029492046FEF752FA002820D02749CE
:101D80002046FEF74CFA00281CD025A02146FFF77C
:101D90003FFF1BE0174F16E04D1C0028AED0AEE70A
:101DA000083710E010370EE018370CE020370AE053
:101DB000283708E0303706E0383704E0403702E0E3
:101DC000483700E05037796828468847074880211F
:101DD000FEF7D8F900203070F0804648FFF718FF72
:101DE00001B0F0BDE40000200D0A00003C0F00200F
:101DF000373B0108E0340108063B01082D3B010890
:101E0000143B01081C3B01081F3B0108323B010841
:101E10003C3B0108413B01080C3B0108243B010805
:101E2000436F6D616E646F20646573636F6E686588
:101E30006369646F3A20222573222E00F0B581B0C9
:101E4000294D297800294DD10C2833DC08283FD0B2
:101E50000A2833D0EC887E2C44D80646FEF760F979
:101E60000068805D8006C00E3CD021480655601C8D
:101E7000E8806846002242700670354800680028F5
:101E800030D06846FEF7A0F900282BD004466E46F5
:101E9000314F032041026888401CFEF756FCA88899
:101EA00081421FD0688832783A546980761C641E5B
:101EB000EFD117E07F280BD00D28CBD1E888002880
:101EC0000DD00B4900220A540120287001B0F0BD4A
:101ED000E888002806D0401EE88004A000E00548FD
:101EE000FFF796FE01B0F0BDE400002008200800D6
:101EF0003C0F00203D3A0108B0B582B0144800689C
:101F0000002823D0134C6088A18888421ED06088A6
:101F10000325A188884201D9618800E06902A2886E
:101F2000A0880D4B1818891A89B2402900D3402186
:101F300001AA0AF02BFA002808D10198002805D040
:101F4000A18840186902FEF700FCA18002B0B0BD74
:101F5000FC070020E4000020BC0F0020F0B581B099
:101F60001E4D281D1E49FEF70DF91E480121009146
:101F700029606121A860E96000272F827F20C005C9
:101F800068611948E8611948281819491CC91CC01A
:101F90000A880280897881708726164C284620306E
:101FA00021681022FEF7F9F830202F5428463130EE
:101FB0000A221149FEF7CDF828463030E16A226B3B
:101FC000C2828182A1692964C77228354034761E95
:101FD000E4D10A480099017001B0F0BDBC150020A1
:101FE000D816000073656E6805000200C816000070
:101FF000A4730108F8120108B47301085801002005
:10200000B0B58CB00BA80AA909AA08F08FFE044647
:1020100008A807A906AA05AB08F02EFE002C15D0CB
:10202000002813D007A8037808A8027806A800782B
:102030000BA909780AAC247809AD2D7800AF33C715
:1020400011A005A9FFF7E4FD0CB0B0BD02A0FFF799
:10205000DFFD0CB0B0BDC0464572726F3A204E61D4
:102060006F20666F6920706F73736976656C206C82
:102070006572206120646174612F686F72612064F1
:102080006F205254432E0000446174612F486F72D8
:10209000613A20257320253032752F253032752F77
:1020A00032302530327520253032753A2530327580
:1020B0003A2530327500000070B5002822D0044661
:1020C0002021FEF777F8002820D000210170861C1F
:1020D000FEF726F80168751E28780A5CD20718D02A
:1020E00030780A5CD20713D070780A5CD2073BD0F4
:1020F000B0780A5CD207361D002AECD1B51E002844
:1021000009D009E02DA0FFF783FD70BD002503E095
:102110003546002800D105461A492046FEF77FF8CB
:10212000002817D019492046FEF779F8164E0028E6
:1021300015D017492046FEF772F8002818D0154927
:102140002046FEF76CF8002817D013A02146FFF7B1
:102150005FFD70BD0C4E71682846884770BD08361B
:1021600071682846884770BD751C0028D3D0D3E716
:10217000103671682846884770BD18367168284641
:10218000884770BD083B010838350108753B0108D8
:10219000ED3A0108793B0108537562636F6D616E1A
:1021A000646F204457494E20646573636F6E6865A1
:1021B0006369646F3A2022257322000053756263BD
:1021C0006F6D616E646F204457494E2066616C7478
:1021D000616E646F2E20557365202748454C50274B
:1021E0002E00000080B586B0684608F08BFC0AA07F
:1021F000FFF70EFD0198FEF794FA02460CA00B467D
:10220000FFF706FD0298FEF78CFA02460FA00B4678
:10221000FFF7FEFC06B080BD4461646F7320646507
:10222000204672657175656E6369613A0D0A00003A
:1022300020202D2050756C736F732028656D203120
:1022400073293A20252E31660D0A000020202D200A
:10225000457363616C612041202863616C63293A96
:1022600020252E32660D0A0080B586B0684608F03B
:1022700049FC0098FEF755FA024603A00B46FFF70B
:10228000C7FC06B080BDC0464461646F73206461C2
:102290002042616C616E63613A0D0A20202D20504E
:1022A00065736F3A20252E326620670D0A00000004
:1022B00080B509F0B1F9FEF734FA024602A00B46E8
:1022C000FFF7A6FC80BDC04654656D7065726174F1
:1022D00075726120696E7465726E6120646F204D45
:1022E00043553A20252E326620430D0A0000000097
:1022F000F0B581B035480068002865D00025344E1F
:10230000032044027088401C2146FEF71EFAB08864
:10231000814259D02F48405D72882F4B985471806C
:102320007088401C2146FEF710FAB08881424BD0DD
:102330002848471978787288274B9854718070889C
:10234000401C2146FEF701FAB08881423CD0B878A3
:102350007288214B985471807088401C2146FEF78A
:10236000F4F9B08881422FD0F87872881A4B9854CB
:1023700071807088401C2146FEF7E7F9B0888142E1
:1023800022D038797288144B985471807088401C20
:102390002146FEF7DAF9B088814215D07879728843
:1023A0000D4B985471807088401C2146FEF7CDF982
:1023B000B088814208D0B8797288074B98547180F0
:1023C000ED1D064885429BD101B0F0BDFC07002001
:1023D000E4000020F8350108BC0F00204404000090
:1023E00080B52E2000F0F6FA80BD0000B0B584B0B4
:1023F000002825D001A9009119A103AD02AC2A46FD
:102400002346FDF71FFF03281FD12878411EC9B2BC
:102410001E291AD821784A1ED2B20B2A15D801AA31
:10242000127808F0CFFC002814D001A8037802A885
:10243000027803A801781BA0FFF7EAFB04B0B0BD47
:102440002248FFF7E5FB04B0B0BD0948FFF7E0FB09
:1024500004B0B0BD07A0FFF7DBFB04B0B0BDC046C1
:10246000256868752F256868752F256868750000D0
:102470008F3A01084572726F3A2046616C6861209C
:10248000616F2073657461722061206461746120E2
:102490006E6F20686172647761726520646F20528C
:1024A00054432E004F4B2E205254432061747561CB
:1024B0006C697A61646F20706172612025303275B9
:1024C0002F253032752F2530327500007D3B0108F5
:1024D00070B584B0002822D001AE009617A103ADDC
:1024E00002AC2A462346FDF7ADFE03281CD128780E
:1024F000172819D821783B2916D832783B2A13D8C7
:1025000008F072FC002814D001A8037802A8027811
:1025100003A801781AA0FFF77BFB04B070BD224826
:10252000FFF776FB04B070BD0848FFF771FB04B0FD
:1025300070BD07A0FFF76CFB04B070BD256868751F
:102540003A256868753A256868750000423A0108BE
:102550004572726F3A2046616C686120616F20732A
:1025600065746172206120686F7261206E6F2068EF
:102570006172647761726520646F205254432E004B
:102580004F4B2E2052544320617475616C697A61FF
:10259000646F207061726120253032753A253032C7
:1025A000753A253032750000463B010880B50BF0C6
:1025B000C3FA80BD10B5062900D22BE102785A2A51
:1025C00000D027E14278A52A00D023E1C278832AEF
:1025D00000D01FE1427903791B029A18082992B2B0
:1025E00014D30023A04CA2420ED0A04CA2420BD088
:1025F0009F4CA24208D08378DC1C8C4206D8C318BA
:102600009C785B781B021B199A4C23809A4B9A4248
:1026100049DCA84B9A4200DC6EE0A74B9A4200DDF1
:102620007CE0964BD218312A00D9F3E05200C04624
:102630007A449288520097443100CE00ED00ED00BC
:10264000ED00ED00ED00ED00ED00ED00ED00ED0022
:10265000ED00ED00ED00ED00ED00D400ED00ED002B
:10266000ED00ED00ED00ED00ED00ED00ED00ED0002
:10267000ED00ED00ED00ED00ED00C900ED00ED0016
:10268000ED00ED00ED00ED00ED00ED00ED00ED00E2
:10269000ED00ED00ED00ED00ED00C100754A12887F
:1026A00008F0C6FC10BD764B9A4213DC7B4B9A4275
:1026B00043DD7B4B9A426DDC05200003824200D152
:1026C00094E07A48824200D0A4E06A48008800F092
:1026D00049FC10BD6B4B9A4241DD6B4B9A4262DC68
:1026E0006A4B9A4200D186E081231B029A4200D0B5
:1026F00090E001F04DFF10BD714B9A423EDC744BEF
:102700009A4200D19CE0584B9A4200D18AE0812045
:10271000800182427ED101F03DFE10BD544B9A42B1
:102720007DD0664B9A4276D06123DB019A4271D10B
:10273000504A128800F020FE10BD5D4B9A4200D135
:1027400083E03120000282426FD08120C0018242AA
:1027500060D100204749085E01F050FE10BD4C4B8F
:102760009A4277D04B4B9A4262D04B48824251D129
:102770005D493820088000F02DF910BD5148824293
:102780006DD05148824258D05048824242D108F020
:10279000A1FD10BD434B9A4233D04348824239D108
:1027A00000F006FF10BD2120800282422ED085203D
:1027B000000282422ED101F0A7FE10BD2D480088F4
:1027C000411E4842484100F04FFD10BD2948008895
:1027D00000F0F0FC10BD44491920088000F0FAF820
:1027E00010BD2448008800F06FFD10BD214800880E
:1027F00006F08EFE10BD3C496820088000F0EAF823
:1028000010BD1C4A128808F055FB10BD194800780D
:1028100001F0C2FA10BD2020FEF764FE10BDFFF7E4
:1028200055F810BDFEF7B2FF10BD00F0B5FE10BDAB
:10283000104A128800F014FE10BD00F0C7FE10BD53
:102840000C48008800F070FB10BD0A4A128800F0A6
:102850003FFC10BD0748008800F048FB10BD05484C
:10286000008800F0DDFB10BD302000000F300000BC
:10287000603000009C2C00208F300000F1CFFFFF63
:102880005F7000001F710000FF83000020710000D6
:10289000607000007070000090700000FF4F00003A
:1028A0001F700000207000003070000010700000E9
:1028B000903000000E3000005F30000070300000EB
:1028C0004F200000502000006020000090200000F9
:1028D00020200000044800887047C04680B50249A7
:1028E000088000F077F880BDA800002010B5A14C4A
:1028F0006268002A03D001681268914200D010BDBE
:10290000CA69120701D508220A6206F07BF86068DE
:102910000028F4D010344022214605F0AAFF0028F8
:10292000EDD000F06DFF10BD80B54021C9430246D7
:10293000413A8A4204D88F49486800280AD180BDAC
:102940008C49488001200870C868401CC8604868ED
:102950000028F4D01031402205F08BFF0028EED083
:1029600000F04EFF80BDC04680B50A468149002375
:102970000B704B8048608A60CB60002807D0103114
:10298000402205F076FF002801D000F039FF80BD1D
:10299000B0B590B0774D2878012816D172B66C8802
:1029A0000020287062B62046413880B2084988422B
:1029B0000BD32946103168462246FDF7CAFBAA68A8
:1029C000002A02D068462146904710B0B0BDC046EC
:1029D000C0FF000010B584B0024666484068002879
:1029E0001BD001A94A720123CB715A238B71842415
:1029F0004C7100240C718224CC7007248C70A524A7
:102A00004C700B70120A0A720A22642306F01EFB35
:102A100001464042484104B010BD002004B010BD42
:102A200010B582B0024653484068002818D06C4662
:102A3000E17162718223E3700523A370A5236370A3
:102A40005A232370090AA171110A217108226423F3
:102A5000214606F0FBFA01464042484102B010BD53
:102A6000002002B010BDC04610B584B002464148F7
:102A7000406800281CD001AC617262718223E3704F
:102A80000723A370A52363705A2323700B0A2372B4
:102A90000B0CE371090EA171110A21710A22642342
:102AA000214606F0D3FA01464042484104B010BD29
:102AB000002004B010BDC04610B50A4601460020F3
:102AC000002A0CD000290AD02A4B5C68002C06D0C2
:102AD0006423204606F0BAFA01464042484110BD40
:102AE000F0B503AF85B06E4604460020002A3DD005
:102AF00000293BD01F4B5B68002B37D0F36074601C
:102B000014460F3407208443316108461546FDF70B
:102B10005BFB294605466846B0606846041BA5462F
:102B200070686071000A20718220E0708D4200D3CD
:102B30000D46681D7060A070A52060705A2020703E
:102B4000A01D31692A46FDF704FB6019FF21C17100
:102B500081717068C0B2C21C6423F068214606F01F
:102B600075FA014640424841B1688D46FE1F053E58
:102B7000B546F0BDEC000020F0B583B01D4614460C
:102B80000746501E164686417A1E3B469341334007
:102B90000291012901D8002100E001210B406E1EA5
:102BA0002846B04118401CD0019020462946FDF728
:102BB000E9FA022D1BD3002202211046029D7B1848
:102BC0005B1E1B78FF2B0AD0202B01D3A354401C83
:102BD000C2B2964203D94B1CA9421946EFD3C0B2E8
:102BE00006E0002C01D0002D04D103B0F0BD002080
:102BF000241801980021217003B0F0BDF248012192
:102C00000170EF4900220A80082343808A707047D0
:102C1000F0B58DB0994E7078002844D002280DD1BF
:102C200000F09AFE00281BD000F0FEFD002824D002
:102C30003B20FFF753FE934897A128E03C20FFF785
:102C40004DFE904898A10B22FFF74AFF02F022FCAC
:102C500098494018B0600220707000281ED122E010
:102C600087484088FFF73AFE344614342046FDF783
:102C7000ABFA82B2834821460AE002F00BFCB1684D
:102C800088420DD93B20FFF729FE7E487EA10F2206
:102C9000FFF726FF00207070002804D00DB0F0BDB3
:102CA00070780028FAD17D20C7003078002805D040
:102CB00002F0F0FB7168401AB84240D202F0EAFB21
:102CC000F168401AB84253D302F0E4FBF060FFF71A
:102CD00001FE352801D0382848D1684607F012FF98
:102CE00080490198FDF71DFCFDF702FD01467E4C71
:102CF00020462030FFF7B8FEF3490298FDF711FC9B
:102D0000FDF7F6FC014620463030FFF7ADFEB07807
:102D1000401CB070C0B205282AD30020B07008F063
:102D20007BFC054607F048FFE7492846FDF7F9FB1D
:102D3000FDF7DEFC01462046FFF772FE18E002F0C8
:102D4000A9FB70603078401E062800D981E0C0469B
:102D50007844007940008744037F70766A858B0051
:102D6000022030700E20FFF7B9FDA7E70020B070F9
:102D700002F090FB3169401AB8428FD302F08AFB0F
:102D80003061FFF7A7FD01460839292900D94BE03A
:102D90007944097949008F44151414141414141437
:102DA00014141415141414141415141414141414E1
:102DB00014151414141414141414141414141414D2
:102DC00014156BE70CA80BA90AAA07F0AFFF00289F
:102DD00000D163E709A808A907AA06AB07F04CFFD2
:102DE000002800D15AE76846102141710021017185
:102DF0008222C2700B228270A52242705A22027077
:102E0000079A8271089AC27103224272099A027269
:102E10000C9A82720B9AC27241730A9901730E2145
:102E2000FFF74AFE0DB0F0BD7728CBD036E706207D
:102E300030701220FFF752FD40E704203070102060
:102E4000FFF74CFD3AE7052030701120FFF746FDF3
:102E500034E70020307031E7032030700F20FFF797
:102E60003DFD2BE707203070002000F0D9F825E762
:102E70000020307010A00EF079F91FE7C801002083
:102E80002C000020964000004572726F3A20546971
:102E90006D656F75742100004572726F20616F203F
:102EA00073616C766172210053616C76616E646F40
:102EB0002E2E2E0088130000444953504C41593A9D
:102EC0002053657175656E636961206465206D6569
:102ED000646963616F2066696E616C697A616461BF
:102EE0002E0D00000AD7233C3022000080B5044894
:102EF00004A12022FFF7F4FD3520FFF7EFFC80BD91
:102F00009640000041646A75737446726571756518
:102F10006E63793A20333030302E304B487A2B2F85
:102F20002D322E3000000000B0B5054608241028D0
:102F300009D02046FFF7D2FC102D09D107482146C1
:102F4000FFF7BAFDB0BD0B20FFF7C8FC102DF5D080
:102F500003482146FFF7B0FDB0BDC046741201081A
:102F60007C12010870B5002806D0FEF7F7FF144D5B
:102F70006878002809D070BD214822A11B22FFF7E4
:102F8000AFFD3020FFF7AAFC70BD0E482E2421466D
:102F90000DF002FC00F0EAFC4520002129540A480B
:102FA00044802846143009A15CC95CC05CC95CC07F
:102FB0005CC95CC001226A700978017070BDC046AE
:102FC000C80100207A7101082C000020507265733E
:102FD000657420636F6D706C65746F210000000074
:102FE00000000000000000000000000000000000E1
:102FF00000000000000000000000000000000000D1
:103000009640000050726573657420726564656651
:10301000696E65206F7320616A7573746573210032
:10302000F0B591B0CD490978012903D1002803D02A
:1030300008F07EF811B0F0BD06AC204600F03CFC74
:10304000207807AE314600F01DFC684607F05AFDB7
:1030500000F03EFC04461B4D102228463146FFF787
:103060003FFD2020315E2846C030FFF7D9FC0A27FB
:103070001098784301B22846E030FFF7D1FCF08C7D
:10308000784301B22846F030FFF7CAFC012C01D08A
:103090000E4900E00C490598FDF743FAFDF728FBBF
:1030A000014690352846FFF7BBFC012C04D0772061
:1030B000FFF714FC11B0F0BD1320FFF70FFC11B0A7
:1030C000F0BDC04670200000000020410000C84252
:1030D00070B594B0502A1ED101AC00202075059027
:1030E00004900390029001901521204600F0B6FB59
:1030F00007AD2BA1284622460DF07AFB2846FDF7A6
:1031000063F882B2D5482946FFF7EAFC2320FFF78F
:10311000E5FB14B070BD01AC00252575059504953F
:10312000039502950195801D891F89B215232246BA
:10313000FFF722FD00280FD0207800280CD001AC2A
:10314000204600F0D9FC07A80FA122460DF050FB45
:10315000104E7078002801D014B070BD0E481724AE
:1031600021460DF019FB00F001FC452035540B48B9
:1031700044803046143007A93122FDF70EF80120B3
:10318000707014B070BDC046456D70726573613A61
:1031900020257300C80100207A7101082C0000204E
:1031A000417475616C20456D70726573613A2025BC
:1031B00073000000B0B58AB0502814D100F088FB2D
:1031C00002466C4622A120460DF012FB2046FCF779
:1031D000FBFF82B2F5482146FFF782FC1B20FFF778
:1031E0007DFB0AB0B0BD044600F0AEFC684610A1FD
:1031F00022460DF0FDFA134D6878002801D00AB080
:10320000B0BD1148172421460DF0C6FA00F0AEFB00
:103210004520002129540D48448028461430694631
:103220003122FCF7BAFF012068700AB0B0BDC04679
:10323000436173617320646563696D6169733A20EA
:1032400025750000C80100207A7101082C000020BB
:10325000417475616C204E525F446563696D616CA9
:10326000733A20257500000080B5074908700028D2
:1032700004D109A10CA00DF08FFA80BD03A10AA012
:103280000DF08AFA80BDC0462C000020484142491A
:103290004C495441444100004445534142494C4942
:1032A0005441444100000000446973706C6179200E
:1032B00048616E646C65723A20496D707265737313
:1032C000616F2025730D0A00B0B58AB0502814D163
:1032D00000F002FB02466C4621A120460DF088FA60
:1032E0002046FCF771FF82B2B6482146FFF7F8FB93
:1032F0001A20FFF7F3FA0AB0B0BD044600F02CFC28
:10330000684610A122460DF073FA124D6878002825
:1033100001D00AB0B0BD1048172421460DF03CFA88
:1033200000F024FB4520002129540C484480284605
:10333000143069463122FCF730FF012068700AB072
:10334000B0BDC046526570657469636F65733A209D
:1033500025750000C80100207A7101082C000020AA
:10336000417475616C204E525F526570657469746A
:10337000696F6E3A2025750070B594B0502A1ED141
:1033800001AC0020207505900490039002900190FC
:103390001521204600F0CCFA07AD2BA12846224685
:1033A0000DF026FA2846FCF70FFF82B28548294621
:1033B000FFF796FB2220FFF791FA14B070BD01AC25
:1033C0000025257505950495039502950195801DA9
:1033D000891F89B215232246FFF7CEFB00280FD0A4
:1033E000207800280CD001AC204600F0EFFB07A8A5
:1033F0000FA122460DF0FCF9104E7078002801D084
:1034000014B070BD0E48172421460DF0C5F900F028
:10341000ADFA452035540B4844803046143007A996
:103420003122FCF7BAFE0120707014B070BDC046A6
:103430005573756172696F3A20257300C8010020C9
:103440007A7101082C000020417475616C2055735D
:10345000756172696F3A2025730000009640000084
:10346000F0B593B014460D46064606A83221FCF787
:1034700089FE002C25D001AC002727740497039700
:1034800002970197701D691F89B211232246FFF729
:1034900073FB002813D02078002810D023A001ACA3
:1034A00021460DF079F9204600F074FB06A82BA107
:1034B00022460DF09DF92C4D687800281DD013B0E0
:1034C000F0BD3620FFF70AFA01AC0020207404900A
:1034D0000390029001901121204600F015FA06ADEC
:1034E00028462146FCF792FEFCF76EFE82B2354874
:1034F0002946FFF7F5FA13B0F0BD1C482E242146EB
:103500000DF04AF900F032FA45202F541848448053
:103510002846143006A93122FCF73FFE01206870CE
:1035200014A00DF023FE13B0F0BDC04644697370C3
:103530006C61792048616E646C65723A20526563F3
:10354000656269646F206E6F766F20736572696162
:103550006C3A20272573270A000000005365726922
:10356000616C3A2025730000C80100207A710108BF
:103570002C000020446973706C61793A20536572A5
:1035800069616C2073616C766F20636F6D20737559
:10359000636573736F2E0D0080B50A480A490E22C9
:1035A000FFF79EFA2120FFF799F980BD96400000B1
:1035B00080B5044804490E22FFF792FA3220FFF743
:1035C0008DF980BD96400000B371010810B5084C1C
:1035D0002078002800D010BD06A00DF0C7FD012006
:1035E000207001F057FF60600D20FFF777F910BDE4
:1035F000C8010020444953504C41593A20496E6952
:103600006369616E646F2073657175656E6369616E
:10361000206465206D65646963616F2E2E2E0D0038
:1036200001480121017070470008002070B582B088
:103630006E4D287803281BD001282DD1A989002997
:103640001ED028696B692A8900937F231340802448
:10365000E61A8E4200D30E460196A021022423468C
:1036600002F040FB00280DD001202871052412E053
:1036700001F010FFA969401A05280DD301240AE0C2
:10368000042408E0686980196861A889801BA88102
:103690002889801928812C7002B070BD534908799F
:1036A000012801D100220A717047C0464F4900220B
:1036B0000A710A70086170474C480078FB2101408C
:1036C0004A1E9141401F421E904108407047C0462B
:1036D00010B5464C2069002817D0A021022264238F
:1036E00002F012F8002812D02069002811D02F48CB
:1036F0000DF03CFD206901F017FF052001F054FD9D
:10370000206901F0A7FF206904E0002010BD01201E
:1037100010BD0020A0210222642301F0F5FF014624
:103720004042484110BDC046F0B583B00446002079
:10373000002A38D00E46002935D015462B490A6993
:10374000002A30D07D20C700009601950297A02165
:1037500002231046224602F093F8002814D0234892
:103760000069002813D011480DF000FD1F480069C2
:1037700001F0DAFE052001F017FD1C48006901F098
:1037800069FF1A48006903E0012003B0F0BD002082
:10379000009601950297A0210223224602F070F8BC
:1037A00001464042484103B0F0BDC046F33B01082A
:1037B00070B50E4C2378FB251D406E426E415B1F99
:1037C0005D425D4135434B1E0E469E412E40551EC7
:1037D0001346AB413340012B06D161612081A281A8
:1037E0000020207101202070184670BD3C0100208F
:1037F00080B5802001F068FD202001F065FD80BDCE
:1038000072B6FEE707480068406A704780B5054811
:1038100004F042FC80BDC0460248006800214162BD
:103820007047C046CC0C0020D9498878012801D1C6
:1038300000228A707047C04610B54A1E0B4693415D
:10384000441E0246A2411A40012A04D1DD4B5C69A4
:10385000046098690860104610BDC046B0B54C1EA3
:10386000A141421E054695410D40012D07D1AD49AC
:10387000D44A51182246FCF790FC002101552846F5
:10388000B0BDC04670B50246872801D3002300E0D2
:1038900001234C1E0846A041184001280AD12823C4
:1038A0005343D64AD218203238CA38C138CA38C130
:1038B00078CA78C170BDC046002805D0CF49497983
:1038C000872900D300210170411E88417047C046FE
:1038D000CA48C08B7047C046C848808B7047C046F6
:1038E00087207047B0B54C1EA141421E0546954148
:1038F0000D40012D06D1C14908312246FCF74DFC8F
:10390000002101552846B0BDB0B54C1EA141421E54
:10391000054695410D40012D07D1A949B74A5118D7
:103920002246FCF73AFC002101552846B0BDC046AE
:10393000B0B54C1EA141421E054695410D40012DDA
:1039400007D1AD49AD4A51182246FCF726FC0021AB
:1039500001552846B0BDC046AA4800787047C04609
:10396000A84900220A7048604A707047A5480121A2
:1039700001707047B0B5FFF759FEFFF79DFE0028B4
:1039800008D03F484078072811D801218140A8205D
:1039900001420CD0FFF782FE002809D054480DF0F8
:1039A000E5FB3748092141700DE035494870B0BD4D
:1039B000334D687878440079400087440C1D2E11FF
:1039C00046523A5817044B480DF0D0FB2C480121C1
:1039D00081700020E9E728780028E8D00120E4E79A
:1039E000FFF76AFE0028E2D10420DEE725A00DF0F3
:1039F000BDFB00202870D8E73C480DF0B7FB686895
:103A0000002806D0D74CD94A214601F0D7F9D94928
:103A100060500020A8700220C7E733480DF0A6FBD5
:103A20000020D049D04AFFF7C3FE002817D003205A
:103A3000BBE721A00DF09AFBD048CA49CA4AFFF75C
:103A4000B7FE00280BD00720AFE726480DF08EFB0D
:103A5000C449C5480246FFF7ABFE00280DD1092036
:103A6000A3E7FFF729FE0028A1D106209DE7FFF775
:103A700023FE00289BD1082097E7052095E7C04644
:103A80005801002046534D20476572656E63696199
:103A9000646F723A2053616C76616D656E746F204D
:103AA000617373696E63726F6E6F20636F6E636CA8
:103AB0007569646F2E0D000046534D204765726591
:103AC0006E636961646F723A2045736372657665EF
:103AD0006E646F206261636B757020322E2E2E0D26
:103AE000000000008A3D0108B33D0108E23D0108E5
:103AF000573D0108173E0108B0B5044600280CD018
:103B00000848984D281814222146FCF746FB064821
:103B100000212954924801210170601E84412046F1
:103B2000B0BDC0464C1500005F150000862804D8C3
:103B30008B4901220A708B494871872801D30020E4
:103B4000704701207047C046854A01211170854A9F
:103B5000D08308467047C046814A01211170814ACE
:103B6000908308467047C046B0B5044600280BD085
:103B70007C4D284608300A222146FCF70EFB784887
:103B8000012101700020A874601E84412046B0BD50
:103B900058010020B0B5044600280CD07A48714D79
:103BA000281810222146FCF7F8FA0748002129546A
:103BB0006B4801210170601E84412046B0BDC046A3
:103BC000C8160000BC150020D7160000B0B504468A
:103BD00000280CD00848634D281814222146FCF711
:103BE000DCFA0748002129545D4801210170601E5C
:103BF00084412046B0BDC04638150000BC150020E9
:103C00004B15000058010020F0B583B054484068BF
:103C1000002818D00024534E534F204631463A46D0
:103C2000FFF782FD01210291504A00280ED0514831
:103C300035584B484068314601F0C0F8A8420AD1D7
:103C4000029803B0F0BD002003B0F0BD4848002149
:103C50000CF0A2FD05E00246474800212B460CF07F
:103C60009BFD404E384631463A46FFF75DFD002841
:103C700013D0404835583A4A5068314616463B4AB8
:103C800001F09CF80246A8420299084664D03A48DE
:103C900035492B460CF080FD04E0354832490CF0E4
:103CA0007BFD2F4E35482F4D29463A46FFF73CFD08
:103CB000002811D02F482B490F5870682B4A01F06B
:103CC0007DF80246B8420299084645D02A482B4959
:103CD0003B460CF061FD03E0254828490CF05CFDF3
:103CE000281D2449FCF74EFA25480121019129603D
:103CF0006121A860E9602C827F20C00568612148AD
:103D0000E8612148281821494CC94CC00A88028022
:103D10008978817087271E4E28462030316810220E
:103D2000FCF73BFA30202C54284631300A2219493E
:103D3000FCF70FFA28463030F16A326BC28281827A
:103D4000B1692964C472283540367F1EE4D1044E1F
:103D50000198307020460299317003B0F0BDC04622
:103D600058010020BC150020DC160000B60500003C
:103D7000D13C0108D8160000073D0108B82D00000D
:103D800073656E6805000200C8160000A473010880
:103D9000F8120108B4730108F0B581B0134D6978C9
:103DA0000A224A4380181249401880B2114E717895
:103DB000884219D2400030180421445E0EA02146EA
:103DC0000CF0EAFC748000273770E0B2FFF7AEFE1B
:103DD000777001226A702A70852000021449FEF76C
:103DE0007FFE0820FEF77AFD01B0F0BD3000002014
:103DF000F6FF00009C01002053656C6563616F2035
:103E000076696120706573717569736120636F6E87
:103E10006669726D6164612E20496E646963652014
:103E2000646F204772616F3A2025642E0D0A0000EE
:103E300027650108F0B58FB00646C64C00276770AD
:103E4000FFF74EFD0546002E009069D0307800281F
:103E500066D0002D00D147E1029603E07F1CAF42FF
:103E600000D141E1F8B205A9FFF70CFD0028F5D01B
:103E7000317805A803910029014600D0002100787F
:103E8000002831D00197354605AE06E0049D6D1C33
:103E900001467078761C00282FD02F78002F27D06D
:103EA00004950D46FCF74FF904463846FCF74BF9EC
:103EB000844204D1002D3046E8D02846E6E7002DA4
:103EC00000D06E1C3078FCF73EF907460398FCF7EB
:103ED0003AF98742314600D00021874201D0029D45
:103EE000D7E70298451CD4E7039800060CD10CE0F4
:103EF000984C009D029E019F07E02878954C009DFC
:103F0000029E019F000600D000210029A6D0607803
:103F10001328A3D8411C61704000201887809DE7BA
:103F20006178002D00D1E3E0132900D9E0E04800DA
:103F3000201800228280481C022D00D2EAE01229BB
:103F400000D9E7E04000201801228280881C032D60
:103F500000D2DFE0112900D9DCE040002018022265
:103F60008280C81C042D00D2D4E0102900D9D1E0F1
:103F70004000201803228280081D052D00D2C9E0D0
:103F80000F2900D9C6E04000201804228280481D75
:103F9000062D00D2BEE00E2900D9BBE0400020185B
:103FA00005228280881D072D00D2B3E00D2900D99B
:103FB000B0E04000201806228280C81D082D00D2E3
:103FC000A8E00C2900D9A5E0400020180722828033
:103FD00008460830092D00D29CE00B2900D999E051
:103FE0004000201808228280084609300A2D00D29D
:103FF00090E00A2900D98DE0400020180922828033
:1040000008460A300B2D00D284E0092900D981E04E
:10401000400020180A22828008460B300C2D79D3EC
:10402000082977D8400020180B22828008460C30DF
:104030000D2D6FD307296DD8400020180C228280E7
:1040400008460D300E2D64D3062962D84000414A3F
:1040500010180D22828008460E30009A0F2A58D37D
:10406000052956D840003B4A10180E228280084687
:104070000F30009A102A4CD304294AD84000354A00
:1040800010180F228280102208461043009B112B2B
:104090003FD303293DD843002E4CE3189A800A46AB
:1040A0001132009B122B53D3122851D85000294AA9
:1040B00010181122828008461230009A132A29D340
:1040C000012927D84000234A10181222828008466E
:1040D0001330009A142A1DD300291BD14000201848
:1040E00013218180142015E06078002813D102E0AC
:1040F000084600280FD1184831460CF04DFB3C20F3
:10410000FEF7ECFB154816A11822FEF7E9FC0FB0EC
:10411000F0BD104C6070EB4901224A70401EC0B2E5
:10412000CD234343D80A431C0B7005AC12492046EB
:104130000CF05EFB2046FCF747F88521090282B2AD
:1041400008462146FEF7CCFC00F018F80FB0F0BD91
:104150001046DFE79C010020C27101089640000074
:104160004E656E68756D206772616F20656E636F56
:104170006E747261646F21000E720108F0B58BB02D
:10418000F64840780A2141437F4FCE19304608381F
:1041900080B2F34D69787D4C88420DD240002818DA
:1041A000007901A9FFF76EFB00280CD020462038CB
:1041B00080B201A9102204E02046203880B2C24912
:1041C0000122FEF78DFCF01F80B2697888420AD286
:1041D00040002818007901A9FFF754FB002807D0F8
:1041E00001A9102201E0B84901222046FEF778FC1F
:1041F000B01F3840697888420DD2400028180079F5
:1042000001A9FFF73FFB00280CD02046203080B2E8
:1042100001A9102204E02046203080B2AA490122E0
:10422000FEF75EFC701F80B2697888420DD24000B4
:104230002818007901A9FFF725FB00280CD020469B
:10424000403080B201A9102204E02046403080B204
:104250009D490122FEF744FC301F384069788842AE
:104260000CD240002818007901A9FFF70BFB0028A9
:104270000AD06034A0B201A9102203E06034A0B2D9
:1042800091490122FEF72CFCF01E80B26978404C67
:1042900088420DD240002818007901A9FFF7F2FAF0
:1042A00000280CD02046203880B201A9102204E05A
:1042B0002046203880B284490122FEF711FCB01E4E
:1042C0003840697888420AD240002818007901A94C
:1042D000FFF7D8FA002807D001A9102201E07A4997
:1042E00001222046FEF7FCFB701E80B269788842EE
:1042F0000DD240002818007901A9FFF7C3FA002861
:104300000CD02046203080B201A9102204E02046C3
:10431000203080B26C490122FEF7E2FB374068781A
:1043200087420DD278002818007901A9FFF7AAFA70
:1043300000280CD02046403080B201A9102204E0B1
:104340002046403080B260490122FEF7C9FB701C54
:1043500080B2697888420CD240002818007901A9FF
:10436000FFF790FA00280AD06034A0B201A9102209
:1043700003E06034A0B254490122FEF7B1FB65208E
:10438000FEF7ACFA0BB0F0BDFEFF0000208200008B
:1043900020830000B0B582B00AA00CF0E7FE894D82
:1043A0000120287001AC002020702046FFF784FA1D
:1043B000207868800BF0F8FD6620FEF78FFA02B0D7
:1043C000B0BDC0464772616F735F48616E646C65D3
:1043D000723A20456E7472616E646F206E61207453
:1043E000656C612064652073656C6563616F206432
:1043F00065206772616F732E0D000000B0B5044632
:10440000234D2878012841D1FFF76AFA00283DD0D2
:10441000611E05293AD8C0467944097949008F447C
:1044200002190E3535240220295E28A00CF0B4F9BB
:1044300000242C70A878FFF779FB6C701AE069886B
:10444000491E0AB2002A00D5411E698008B20BF04D
:10445000ABFDB0BD6988491C0AB28242F5DB002180
:10446000698008B20BF0A0FDB0BD0AA00CF07EFE82
:10447000002028801348012242700270852000022B
:104480001149FEF72DFB0820FEF728FAB0BDC04603
:104490009C0100204772616F735F48616E646C65B8
:1044A000723A2053656C6563616F202876696120DC
:1044B0007365746173292063616E63656C61646107
:1044C0002E0D000030000020276501084772616F43
:1044D000735F48616E646C65723A204772616F2049
:1044E000287669612073657461732920696E646937
:1044F000636520272564272073656C6563696F6E8B
:1045000061646F2E0D0A0000B0B582B0134D2C7897
:10451000022C20D31248007801281CD1687821464B
:10452000FCF713F9491C69700EA022460CF034F90F
:104530006A782B786C46154920460CF059F92046CC
:10454000FBF742FE8521090282B208462146FEF7AA
:10455000C7FAFFF713FE02B0B0BDC046300000201E
:104560009C010020506167696E6163616F3A204D64
:104570007564616E646F207061726120706167693B
:104580006E612025642F25640D0A00000E7201085B
:1045900080B586B00B4A1278012A10D1801D891F80
:1045A00089B201AA1123FEF7E7FA002804D001A876
:1045B000FFF740FC06B080BD03A00CF0D7FD06B0AD
:1045C00080BDC0469C01002046616C686120616F1F
:1045D000206578747261697220746578746F2064E4
:1045E0006120706573717569736120646F207061FB
:1045F000796C6F6164204457494E2E0D0000000015
:10460000F0B587B0002506955422825C012A03D1BB
:104610000224204607B0F0BD06465436012434700B
:10462000026893685B0714D407694B68022B18D1A2
:1046300004200743994887426DD19748C0430B68CF
:10464000D9430143906A084090620024002B66D44D
:10465000D2E0816D20220A4382653570204607B082
:10466000F0BD059304231F438C4CA74262D10F6811
:104670003846894B1840936A034393623802536962
:1046800083438968014086480840184350610024EC
:10469000002F00D4B0E00320820582480368194649
:1046A00011403846804F0490B84200D096E07A4FCF
:1046B0007F1CB94200D391E07A48036893431943C1
:1046C000754A5118491C0160794800687949FCF71E
:1046D0003CF80C214143481C06900698002800D164
:1046E0008AE00698401E06900698002800D183E0D4
:1046F0000698401E0690069800287DD00698401E19
:1047000006900698002877D00698401E06900698D6
:104710000028E6D170E00B680024002B6CD5FA4825
:104720000168624A93426BD05F4A934264D101228E
:10473000920567E01F27059C27400F2400940397EC
:10474000BC40076E0194A74302970C68524F3C424D
:10475000049462D0E4072F4667D1049FBC075FD45E
:104760007C075FD43C075FD4FC061F465DD4049CE5
:10477000A30671D4630671D4230671D4E30571D402
:10478000049B9B0570D4049B5B056FD4049B1B05A5
:104790006ED4049BDB046DD4049B9B046CD4049BFB
:1047A0005B046BD4049B1B04009F3ED4049BDB037F
:1047B00066D4049B9B0365D4049B5B0364D4049B75
:1047C0001B0363D4049BDB0262D4049B9B0261D471
:1047D000049B5B02DB1716271F4026E0334F04982B
:1047E000B84209D10127BF053B4005D1C64803683F
:1047F0009343194339430BE03570204607B0F0BDB1
:10480000254A521C1140032292050368934359180C
:1048100001603570204607B0F0BD6300DF0E04E094
:10482000012702E0022700E00327039CA740029B28
:104830001F430766059B9B08C06998420AD90198E7
:10484000C043936A0340049FB800000FA040184380
:10485000906213E7049F11E70527E6E70627E4E7E0
:104860000727E2E70827E0E70927DEE70A27DCE772
:104870000B27DAE70C27D8E70D27D6E70E27D4E772
:104880001027D2E71127D0E71227CEE71327CCE76E
:104890001427CAE71527C8E7FFFF7F000400008040
:1048A00000FFFF7F08270140000200A4000400A8C9
:1048B00034000020400D03000068006C70470000C9
:1048C000F0B589B0044600200890002C76D00790FF
:1048D000A06D002807D125465435204600F016F972
:1048E00000202870E06501273D072668B068C000F9
:1048F00026D4B0687F4901402943B1607E480068F2
:104900007E49FBF722FF400008900898002817D046
:104910000898401E08900898002811D00898401E5A
:104920000890089800280BD00898401E0890089816
:10493000002805D00898401E089008980028E7D164
:10494000B068284208D1A06D10210143A165E06D37
:10495000012107910843E065B06804210140A26D80
:10496000102002405118A16D2BD106900F20C74393
:104970003A46F33A1140891CA165B168C9077DD157
:104980000390049727462037216B4A1E91410D035F
:10499000A168227E92030A43617EC9031143A27E6D
:1049A00050030843E36803432B430120C5072169F3
:1049B00000290590029509DAA94308E0012009B011
:1049C000F0BD0143A165384609B0F0BD41050B4378
:1049D000387B45001D433878012809D1002A11D0C1
:1049E000A06D20210143A165E06D05990843E065B4
:1049F000626A002A0CD0072080010240A16A11439C
:104A0000294306E0059800040543626A002AF2D1B2
:104A10002946F0683A4A02400A43F26003208207BE
:104A200063681D461540E16C387F01280ED1206C6B
:104A30000090676CA06C01900098074301980743B1
:104A40002F430F43059807433D4600E00D43049F65
:104A500030692C490140294331610298834203990E
:104A60000CD093420AD005988007834206D0880470
:104A7000034025490A688243D018086070690722FC
:104A80009043656B28437061706970218843A16B06
:104A9000090101437161216901235805814203D055
:104AA00000290BD1B06A07E0B06AE06980001C30D1
:104AB0001C2101408F40206E3843B0627069104065
:104AC000A8420AD10020E065A06D01210143022027
:104AD0008143A165079809B0F0BDA06D0699084310
:104AE00002218843A065E06D1843E065184609B0CF
:104AF000F0BDC046E8FFFF6F34000020400D03000A
:104B00000102DEFF02FCFF1F0827014080B58AB0CA
:104B10000021099108910791069105910491039153
:104B200000680D49884201D00AB080BD2020029063
:104B300002A802F081FB002801D0FEF761FE0120EF
:104B4000000506490A6802430A60096801400191AC
:104B500001980AB080BDC0460024014040100240C8
:104B6000F0B581B00D4604464069082801D10827F8
:104B700004E02068C068C0073FD1042700F08AFC29
:104B800006462168086838421CD001204202A36D05
:104B90001343A365CA681205920F4AD1A27E002A68
:104BA00047D10A68120744D58A68520738D422468A
:104BB00058324B680C25AB434B60FF250235136818
:104BC000AB4334E0002D1FD0681C10D10868384278
:104BD000DBD108683842D8D108683842D5D1086896
:104BE0003842F3D0D1E7216808683842CDD100F0CF
:104BF00051FC801BA842F6D908E0A06D202101439A
:104C0000A165012001B0F0BD00F044FC542000215A
:104C10002154A06D04210143A165032001B0F0BD22
:104C2000A26D20231343A36522465C32E36D034348
:104C30001360227E0020002A01D001B0F0BD0C22BA
:104C40000A6001B0F0BD000070B5014600688268DE
:104C50000220520711D454228A5C012A0DD00C463E
:104C600054340120054620700E460846FCF7A6FA8B
:104C7000002803D000202070284670BDB06D09497F
:104C80000140012000020818B0650020F06531687D
:104C90001C220A6020708A68304B13401A1D8A60FB
:104CA00070BDC046FEF0FFFFF0B581B00446542051
:104CB000205C012802D1022001B0F0BD2646543606
:104CC000012737702068816849071FD4816882688E
:104CD000D20737D00222114034D1816805220A4020
:104CE000012A27D181681D4A0A40911C8160032155
:104CF000016000F0CFFB054620688068C00721D026
:104D000000F0C8FB401B0328F6D313E08168890735
:104D100004D48168114A0A401032826000F0BAFB64
:104D20000546206881684907D0D500F0B3FB401BD9
:104D30000328F6D3A06D10210143A165E16D5C3419
:104D4000384605E0FF200230A16D81435834002031
:104D5000002232703943216001B0F0BDE8FFFF7FCF
:104D600070B503460120CC0720D0114C0C40651EC5
:104D7000AC4103261546F541032D17D87D442D7906
:104D80006D00AF440B0105090B4C0C400ED105E042
:104D9000084C0C400AD101E0002C07D11868416191
:104DA00081681823994311438160002070BDC0467B
:104DB00080FFFF7F00FFFF7F0000FF7FF0B584B022
:104DC0000E46022141770468A16801252943A160AC
:104DD000016A01291ED002290ED0032928D1002AF8
:104DE00000D103E10395032511462940042A00D38D
:104DF000D2E033460025DEE057081ED0039503219C
:104E00003B460B4000937B1E032B029601971AD260
:104E1000002133E0970814D0039503233946194045
:104E20000091791E03290296019349D200257AE068
:104E300000214577084604B0F0BD0021D2073CD1DF
:104E4000D4E000219EE08F43002135466B882E88F8
:104E50003604F3182360EB88AE883604F318236019
:104E60006B892E893604F3182360EB89AE893604EA
:104E7000F31823601035091D8F42E7D1009F002FE2
:104E8000029E14D08B00F1184D88F35A1B045B1955
:104E90002360012F0BD0CB888D882D04EB18236065
:104EA000022F04D04B8909890904C918216001998E
:104EB0008900039DD20700D198E0715A218095E0C6
:104EC0009F43002531460E7836064B781B049B190C
:104ED0008E7836029B19CE789B1923600B791B06BE
:104EE0004E793604F3188E7936029B19CE799B19C8
:104EF00023600B7A1B064E7A3604F3188E7A36023C
:104F00009B19CE7A9B1923600B7B1B064E7B3604C4
:104F1000F3188E7B36029B19CE7B9B1923601031D0
:104F20002D1DAF42CFD1009F002F029E26D0A90099
:104F3000735C1B0671184D782D04EB188D782D02CB
:104F40005B19CD785B192360012F17D00B791B06F5
:104F50004D792D04EB188D792D025B19CD795B19F4
:104F60002360022F0AD00B7A1B064D7A2D04EB1812
:104F70008D7A2D025B19C97A591821601146019B5F
:104F80009943039D03231A407A44127952009744AF
:104F90002C011C24715C27E0AA43002533463768A6
:104FA000276077682760B7682760F7682760103642
:104FB0002D1DAA42F3D1002905D0AA001D469B58F9
:104FC0002360012917D1039D10E072185278715C9B
:104FD000090289182180046808E072185378715C0E
:104FE0000902C918218091782170046821684577E9
:104FF000084604B0F0BDAA18536823600229039D37
:10500000F4D091682160F1E7B0B50125002814D0F3
:105010000446407F002804D100202077204600F07D
:1050200031F8022060772079002808D0A168E26872
:105030002046FFF795FE002808D02846B0BD20681E
:105040000F49416181681822914381600025607990
:10505000002801D0216900E0E943206801618168EE
:105060006022914362690A43826081688022914391
:10507000A2690A438260012060772846B0BDC0461D
:10508000B71DC10481B000680849884201D001B051
:1050900070470120000306490A6802430A60096854
:1050A00001400091009801B07047C04600300240B6
:1050B0003810024070B500282CD0014624314A78BF
:1050C000022A29D1046822680E239A432260426C86
:1050D0001568314B1D4015602568012295432560F8
:1050E000046C1C2525401446AC402C4D2E682643EC
:1050F0002E60846CC56C6560046D002C05D025683D
:105100001D402560436D806D58604A70002000226C
:105110000A7070BD012070BD0422C263012000220C
:105120000A7070BD70B52421012444540146243115
:105130004A78022A2BD103681A680E24A2431A6007
:105140001C68012294431C60446C2568124B1D406E
:105150002560046C1C2525401446AC400F4D2E687C
:1051600026432E60846CC56C6560046D002C05D0F0
:1051700025681D402560436D846D5C6000240C70C3
:105180004A70816B002900D08847204670BD0421F9
:10519000C163204670BDC046FFFEFFFF0400024011
:1051A0002521405C70470000B0B5044600F072F95C
:1051B0000546601C02D004480078241800F06AF903
:1051C000401BA042FAD3B0BD08000020F0B58AB061
:1051D0000390002970D00E46A648039A824201D05F
:1051E000062000E005200B221207039B9B180A22D1
:1051F000D3410293042B00D30290039820300190F6
:10520000002739463C463A46009626E08F40039DEB
:105210002868384328601C203C46099F3840069186
:1052200007998140D0088000019E33588B4306992E
:105230003350A868A043A8606868089EB0436860BF
:10524000E868A043E860009E059C521C3046D040B0
:105250003F1D891C083400282ED0012090400546AF
:105260003540F2D0089009971820059420400F246B
:105270000794844003271646BE437F4B9B19049333
:105280001E6E06942640029B83409E42BED1049C23
:1052900060347A4B1868A84318605868A84358606F
:1052A000754B1868A84318605868A8435860206870
:1052B000069B98432060A9E70AB0F0BD80B520287E
:1052C00001D1FEF7ADF980BDB0B50446074D2868A1
:1052D000204203D02C60204600F00AF86868204283
:1052E00003D06C602046FFF7E9FFB0BD0C18024008
:1052F00070470000F0B58AB0069009910B68002B4A
:1053000000D1B4E05B480699814201D0062000E05C
:1053100005200B221207069989180A22D141009113
:10532000042900D3009006982030019000252E46D5
:10533000079529460FE01A4362600899491C0998AD
:1053400003681846C8400835B61C079A121D079214
:10535000002800D18BE001242046089188400340BA
:105360000393EAD0049509994A6810211143122940
:1053700015D11C21079A114005960F2632468A4006
:10538000089BDB089F00019BDD599543099A126930
:105390003240059E8A402A43DA5109994A6803231C
:1053A00011461940B1400293B3403746069E356816
:1053B0009D430D4335603E46D9430591122A049D15
:1053C00015D894402E490C420FD0069CA168059B2D
:1053D0001940099BDB68B3400B43A3601109089B8C
:1053E0009940636883430B436360032AA5D0069BFF
:1053F000D8680599084009998968B1400143D96086
:10540000D0009AD5182028400F218140089A029B8D
:105410009A43194CA218136E8B430099814019438B
:1054200011661648026809984068C10302D5039BBB
:105430001A4301E0039B9A4310490A604A688103BA
:1054400001D51A4300E09A430C494A602268C10220
:1054500005D51A4322606268800206D56BE79A433D
:1054600022606268800200D565E79A4364E70AB06B
:10547000F0BDC046001400500018024080180240E1
:1054800006000600002A02D0182281507047282208
:1054900081507047014800687047C046E02C0020EA
:1054A000B0B50246034640335C780220202C17D169
:1054B0001C78012C14D02420587010680268012434
:1054C000A2430260220305689543056002680A430F
:1054D000026001682143016000201870202159708A
:1054E000B0BDB0B50246034640335C780220202CA4
:1054F00017D11C78012C14D0242058701068026831
:105500000124A24302600F2212020568954309029A
:1055100029430160016821430160002018702021A7
:105520005970B0BD70477047B0B5002812D005461D
:1055300040352421697001680A6801239A430A6092
:10554000044600F025FC0020606468702063287029
:10555000A870B0BD0120B0BDF0B581B00122150228
:1055600001688B691C462C40664266410F688024A6
:105570003C4067426741374304D1466C01273743BB
:105580004764CD61654265415E05164600D52E46ED
:10559000002E05D19502466C082737434764CD613C
:1055A000654265419B05134609D4002B0AD0416C26
:1055B0000B22114201D004F065F801B0F0BD2B467A
:1055C000002BF4D15202436C02241C434464CA6190
:1055D000416C0B221142EED1EFE780B50268916970
:1055E000436B1268002B00D0984780BD10B501684E
:1055F000074C22691268914200D010BD416C05A091
:105600000BF0CAF8012020710520207010BDC046A3
:105610003C010020454550524F4D2044726976654B
:10562000723A2048414C5F4932435F4572726F7253
:1056300043616C6C6261636B206163696F6E61646E
:105640006F21204572726F3A203078256C580D0A10
:1056500000000000F0B581B0002822D0054640359A
:105660006978002905D100212970044600F0AAFBC1
:1056700020462421697001680B68012293430B6066
:105680000F231B0644689C430C618C681C4B1C4018
:105690008C608468C668012E06D1D60334438C60C2
:1056A0000CE0012001B0F0BD2127BF023C438C601B
:1056B000022E03D1D4024E68264302E0D4024E6883
:1056C000A6434E604C680F4E26434E60CC681C408B
:1056D000CC60036944691C4383691B022343CB608C
:1056E000C369046A1C430C600B6813430B60002100
:1056F000416420226A7001630846A97001B0F0BDC0
:10570000FF7FFFFF00800002F0B589B007930546D8
:10571000002408940346403358780227202800D0FC
:1057200090E028688069000400D58BE01878012893
:1057300000D187E024205870012003930290187054
:1057400004946C64D84801400692059113E0C4614A
:1057500000972024002228462146079B04F050FD94
:1057600000285DD00898401C089008980898069A70
:10577000904205995ED2E8680128344800D0344848
:10578000401829684860FFF785FE07462868816948
:105790002026314082691024224089182BD1079994
:1057A000491C10D00798002842D0FFF773FEC01B99
:1057B000079988423ED82868816931408269224031
:1057C0008918F2D017E08169314082692240891836
:1057D00011D1816931408269224089180BD18169D8
:1057E000314082692240891805D18169314082693E
:1057F00022408918E7D08169C906A8D400972024DF
:105800000027284621463A46079B04F0F9FC002869
:1058100009D0686C0428A5D12868C4616F64A1E729
:105820002868C4619EE72868C46103994C7007E04A
:10583000FFF730FE03994E70686C30436864029F36
:1058400004980870384609B0F0BDC0460020000238
:1058500000280002704770477047704710B5074C2A
:10586000006821690968884207D12078022804D19C
:10587000FFF710FEA0610320207010BD3C01002046
:10588000F0B589B004460646403675780220202DD2
:1058900009D10E9F002F08D00F9D002D05D0079530
:1058A0003578012D06D109B0F0BD012041026164B7
:1058B00009B0F0BD0397059302920691012008906C
:1058C0003070FFF7E7FD02462068816909042FD494
:1058D00010990491222171704021B17000276764F2
:1058E00007996185039961626763F949069B0B40DB
:1058F0000599C9B209040693C9184368F54D2B40B0
:10590000C918012308935B03C91841602046049914
:10591000154604F035FD002846D103970795206809
:105920000599012926D10299C9B28162079D31E00A
:105930000898C50302E081692942C9D0192120468F
:10594000174604F0BBF9002811D1FFF7A3FDC11BD6
:1059500020681A293A46EED381692942EBD0606C5F
:10596000202108436064717000203070B070089886
:1059700009B0F0BD0299090A816220460499079D89
:105980002A4604F0FDFC0028039F0DD121680298EF
:10599000C0B288620095402100222046049B04F09A
:1059A0002FFC0028039F03D03770089809B0F0BD82
:1059B000608D000A07D020684168F24A1140021D3C
:1059C000FF203B4B09E0608D22685368ED490B4096
:1059D000C1B209041943121D344B069F19433943C0
:1059E0001160208501200890400638180590079A1C
:1059F000049D0FE0608D208521684A68B74B1A40EE
:105A0000C0B20004059B184310434860079A608D9C
:105A1000002834D000920421002720463A462B4625
:105A200004F0EEFB0028A2D1606A2168496A017087
:105A3000608D401E6085606A401C6062208D401E43
:105A40002085618D0029079AE1D00004DFD1009202
:105A50008021002220462B4604F0D2FB002886D16C
:105A6000608D000AC6D0FF20208521684A689B48C7
:105A7000024006980243984802434A60C6E720461F
:105A8000294604F03AFC0028089800D00BE720686B
:105A90002021C1614268924B13404360717037709E
:105AA000B770384609B0F0BDFF03000000240002C3
:105AB0000024FF01F0B589B00446074640377D78E1
:105AC0000220202D09D10E9E002E08D00F9D002D02
:105AD00005D007953D78012D06D109B0F0BD012014
