:020000040800F2
:1000000068550020D500000885AC00083996000826
:1000100000000000000000000000000000000000E0
:1000200000000000000000000000000091B4000883
:1000300000000000000000002DAD000825B50008FC
:10004000E7000008E7000008E7000008E7000008F4
:10005000E7000008E7000008E7000008553800083E
:100060006DCC0008E7000008E7000008E700000882
:10007000E7000008E7000008E7000008E7000008C4
:10008000E70000080000000000000000F9B50008CB
:1000900000000000E7000008E70000083D960008A7
:1000A000E7000008E7000008E7000008E700000894
:1000B00005C400080000000000000000000000006F
:1000C0000348854600F0CCFE00480047F1070108D0
:1000D000685500200448804704480047FEE7FEE7D3
:1000E000FEE7FEE7FEE7FEE7E9B50008C10000080D
:1000F00030B5434351435C18010C130C0D465D436E
:100100002C1980B292B20546554351430A0C09049A
:100110004D1962415843010C00044019514130BD52
:1001200000487047E812010810B50446FFF7F8FFD1
:100130000068005DC007C00F10BD01466139192974
:1001400000D82038704701464139192900D820309D
:10015000704703460B439B0703D009E008C9121FF1
:1001600008C0042AFAD203E00B780370401C491C33
:10017000521EF9D27047D2B201E00270401C491EF3
:10018000FBD270470022F6E710B513460A46044634
:100190001946FFF7F0FF204610BD10B5044605E0F4
:1001A0000B780370401C002B00D0491C521EF7D264
:1001B000204610BDCAB2401E4178401C8A4202D07F
:1001C0000029F9D100207047421C0178401C002909
:1001D000FBD1801A704710B5002200E0521C835CEE
:1001E0008C5CA34201D1002BF8D1D8B2E1B2401A05
:1001F00010BD30B504460020034600E05B1C93426E
:1002000003D2E05CCD5C401BF8D030BD03460A78D9
:100210000270401C491C002AF9D118467047F8B5F5
:100220000E460546002400E0641C285DFFF78BFFA6
:100230000746305DFFF787FF381A02D1295D002994
:10024000F2D1F8BD0FB400B58DB009900B9010A994
:1002500000200091C0430A9000200C9006480690B0
:10026000064807906A4609A80F9900F0D5FA0DB024
:1002700008BC04B0184700003908000859080008F5
:10028000FFB50027FF4383B000205C6801909E68A3
:100290001D46A9697F1C049888470090296A8847F1
:1002A0000028F6D10098401C0CD003204002844363
:1002B000002E19DD600614D500982B2809D02D28B2
:1002C0000FD103E00020C04307B0F0BD0120800241
:1002D0000443A9697F1C04988847761E0090002E6D
:1002E00002DD0098302803D00598002825D035E09D
:1002F000012040020443A969761E7F1C04988847A8
:100300000090002E03DD782805D0582803D00598EA
:10031000002810D022E00598002801D010281DD117
:10032000012040028443A969761E7F1C04988847F7
:100330000090102002E0082000E00A2005900DE067
:10034000012149020C43059A0199761E5143081870
:100350000190A9697F1C049888470090002E05DD54
:100360000599009800F042FA0028E9DAE969049852
:100370008847A00502D40120C043A5E7E00722D1A9
:10038000600611D56005019800D5404229680A1D14
:100390002A600968220501D5087014E0220701D5FA
:1003A000088010E008600EE02868011D29600068E0
:1003B000210502D50199017005E02107019901D5B8
:1003C000018000E0016038467EE7F7B582B00F4655
:1003D0000026029C10F0BCFA00900068019025787D
:1003E000641C002D05D0FFF79BFE0068405DC00730
:1003F000F5D12B2D02D02D2D1CD0641E009800218C
:10040000016039462046049A00F038FA0146002F70
:1004100004D03868A04201D1029838600098006882
:1004200002280BD00098019A0260700506D5484258
:1004300005B0F0BD012080020643DFE70846F7E77C
:1004400070B5064610F084FA046805460A220021B9
:10045000304600F067FA2C6070BD70B5064610F0AB
:1004600077FA046805460A220021304600F05AFA5D
:100470002C6070BDF8B502464A40D40F42004B00D4
:1004800052085B089A4202D20246084611464A00C8
:1004900023D0C30D4A00DDB2120EAD1A202D35DA7D
:1004A00049020126490AF6058A19002C00D0524259
:1004B00020214F1B1146B9402A411018C20D9A4203
:1004C00021D0002C17D0012D08DCDA05801AD20FBC
:1004D0008019D207DBB200F065FAF8BDDA05801AA0
:1004E000012340001B06C01880185A428018CA0F0A
:1004F0001043490007E04908C2071143DA05801A92
:1005000080194008801800F045FAF8BD610001220A
:10051000511A001BF7E70122D2075140AAE7012236
:10052000D2075040A6E7024670B54A40D30FDB071A
:1005300040002DD04A002AD0010E140E00021202F3
:100540000919400A520A8418E50104465443000A76
:10055000120A2E045043A4194219200CC543AA18AC
:10056000120C0125AD03521C521912047F392404C8
:1005700000D0521C104301D44000491EC2B20C06E8
:10058000C0092018401C4008802A02D003E0002047
:1005900070BD40084000002900DA0020184370BDFB
:1005A00070B502464A40D50F40004A00ED074008AA
:1005B0005208002814D0002A12D0C40DD30D4102D5
:1005C0000120C0055202490A520AE41A09181218F9
:1005D0007D34914201D3641C00E04900002C01DA13
:1005E000002070BD0023914201D3891A03434008C3
:1005F00049000028F7D100290AD0914202D10121F7
:10060000C90705E0914201D2012101E00121C9435E
:10061000E005C018401900F0BDF970BD0122D207F5
:10062000002800DB101A002900DB511A814201D892
:1006300001207047002070470122D207002800DB0C
:10064000101A002900DB511A814201D201207047A3
:10065000002070470122D207002800DB101A002971
:1006600000DB511A814201D30120704700207047FE
:100670000122D207002800DB101A002900DB511AE2
:10068000814201D901207047002070470122D20722
:10069000002800DB101A002900DB511A814201D129
:1006A0000120704700207047C217C10F504010B59D
:1006B0004018CA079623002100F074F910BD10B548
:1006C00000229623114600F06DF910BD0EB5C21739
:1006D000C10F5040CA0740180021054B02930192F8
:1006E00000910A460B4600F0A3F903B000BD0000DC
:1006F00033040000C20F410040020123400ADB0521
:10070000D207090EC0187F2901DA00207047962908
:1007100003DC9623591AC84001E096398840002A24
:10072000F4D040427047C20FD207400040080BD0BF
:10073000C10D0723DB01C91840020905400A114316
:10074000C20840071143704700200146704770B54A
:100750000446002903D000202022012310E00028B5
:1007600001D00020C043C046C0460DE02546D5401C
:100770008D4205D30D469540641B1D46954040199A
:100780001546521E002DF1DC214670BDF0B51FB498
:100790000646002082B005464024019100901BE0EF
:1007A000019922460F46304600F082FB049A059BD1
:1007B000801A994110D310461946224600F068FB72
:1007C000361A8F410197224601200021009F00F038
:1007D0005FFB38184D4100902046641E0028DFDC86
:1007E000019B00982946324607B0F0BD3A2800D256
:1007F0003038202302469A43412A01D31046373825
:10080000884201D30020C04370470000026813787B
:10081000511801601846704710B5D1600449516104
:100820000449116200211161114600F065FB10BD01
:100830000D080008290100084268002A08D0016854
:100840000B78491C002B03D0521E06C01846704777
:100850000121C160881E70474268002A0BD0C3681E
:100860000168002B07D183688B4204D0491E521CBB
:1008700006C0002070470020C0437047F7B582B023
:10088000029C00272078641C15460197302802D06E
:10089000002D15D015E020780127641C782804D09D
:1008A000582802D0002D09D00BE0002D01D0102DCA
:1008B00007D1002710252078641C02E0082500E0FD
:1008C0000A250026009610E00099012769430818C0
:1008D000020C294680B2714300908E18380486427B
:1008E00001D3012001902078641C2946FFF77EFF88
:1008F0000028E9DA0398002805D0002F01D0641EF3
:1009000000E0029C04600198002806D010F020F856
:1009100002210160C81E05B0F0BD009930040843F3
:10092000F9E70000F7B5009C0F4600262578641C07
:10093000002D05D0FFF7F4FB0068405DC007F5D13E
:100940002B2D02D02D2D18D0641E39462046029A38
:10095000FFF794FF002F04D03968A14201D100991C
:1009600039607105022400290BDA4042002803DDBA
:100970000FF0EEFF0460A007FEBD012080020643D9
:10098000E3E70028F8DA0FF0E3FF04600048FEBD5B
:10099000FFFFFF7F002904DA401C490001D1400815
:1009A0004000704770B40024050C05D110240004E9
:1009B00002D1002921D01124050E01D100020834F2
:1009C000050F01D10001241D850F01D18000A41C59
:1009D000002801DB4000641C002908D020252E1BC4
:1009E0000D46F540A14000D00121294308430106EE
:1009F0001B1B000ADB1D02D5002070BC7047DB0505
:100A0000181880180029F8DA401C4900F5D170BC8C
:100A100040084000704710B5002B08DA0024401C45
:100A2000614192185B411A4301D14008400010BD5A
:100A3000F0B51FB482B005460C0003D008460FF095
:100A40006FFF02E00FF06CFF20300246009021465D
:100A5000284600F01DFA049B059A04460F461843E9
:100A60001143084314D0184610431BD0009840216E
:100A70000A1A1846059900F01BFA05460E46009A18
:100A80000599049800F004FA084305D0012004E019
:100A90002046394607B0F0BD0020C11705430E437C
:100AA0002C43374300990E986305401A7905E40AF0
:100AB00000220C43FD0A0A3002D500200146E9E776
:100AC0000105101969410C9C0D9D00196941FFF742
:100AD000A2FFDFE7F0B507460846584087B0C00FD1
:100AE000049048000E46590040084908BC1A884145
:100AF00005D2384631461E4617460B460246580078
:100B0000400810434CD0300D039040055900400D73
:100B1000490D0590401A0290402872DA180301210D
:100B2000000B09050843019004980092002805D0A5
:100B30000199524200208841009201900298402180
:100B40000A1A0199009800F0A3F905460C466B4675
:100B500007CB00F0BEF9C0197141039A0E0D0023B6
:100B6000D71756401A467A40164344D0049A002AB2
:100B70002DD0029A012A039A15DC1205C01A914160
:100B800001263605001C7141D20F059ED207009345
:100B9000019202962A462346FFF74AFF07B0F0BDAE
:100BA00038463146FAE71605224A0F46B218C01AEF
:100BB000B74101210905001C4F4100187F41114632
:100BC00018187941E20F10436D19644113E0E207F0
:100BD0006D0815436408C2071443039A01261205E1
:100BE000C01A91413605001C7141CE0740083043C0
:100BF0004908C01851412A462346FFF70CFFCDE7AC
:100C0000FFE7049801224000C117121A00238B410C
:100C100004983146C417381AA141EEE730B40124D4
:100C2000E407634030BC55E730B40124E407614079
:100C300030BC4FE70000E0FFF0B51FB488B00B995F
:100C40000998002448400999C00F490049080991B2
:100C5000C0070B990090490049080B910999089821
:100C6000A64608431CD00B990A98084318D0099847
:100C700001244000420D4800410D0998240500035D
:100C8000000B204309900B980003000B20430B90AE
:100C900050181C494018002201901446104605E0E7
:100CA000002001460DB0F0BD032801DA034600E044
:100CB00003239C46C11A0AAE0AE05F0008ADED5B53
:100CC0004F00F75B7D430027AA187C41491C5B1E3F
:100CD0006145F2DD410004AB5A522104120C0A4373
:100CE000240C401C0828DFDB019802900099704614
:100CF00001910090059B049A07990698FFF798FECA
:100D0000D0E700000DFCFFFFF0B50C465C4085B05D
:100D1000E40FE40703944C0000266408590094464D
:100D2000490802460296224321D062460A431ED059
:100D30006200570D4A000E032303550D012402469D
:100D40002C492405781B1B0B360B401823432643E4
:100D5000614600901C46501AB44103D30098401CD1
:100D6000009002E0921800985B41002803DA00200E
:100D7000014605B0F0BD0020012109050746864661
:100D800011E064461D46141BB54106D36546521B4F
:100D9000B341744607430C43A646CD0740084908B3
:100DA000284392185B4105460D43EAD1104618438B
:100DB00013D06046194650407140084306D0604643
:100DC000101AB34106D20122002306E000220123BB
:100DD000DB0702E00122D24353100098744601055C
:100DE000381C6141029C039D00196941FFF713FE05
:100DF000BFE70000FD0300004A0009030123090BBF
:100E00001B0519430A4B10B5520D9A4202DA002015
:100E1000014610BD064B34339A4203DC9A1A00F0A7
:100E200047F810BD034BD21800F032F810BD000097
:100E3000FF030000CDFBFFFF10B5002904DB0124F8
:100E4000E40740428C412146002B04DB1C46012371
:100E5000DB075242A341994200D1904210BD0000ED
:100E60001CB5094800900948019005460126009CE0
:100E700005E0E36807CC33430C3C98471034AC42A0
:100E8000F7D3FFF721F9000008740108287401085E
:100E900010B5202A04DB0146203A9140002010BD05
:100EA000914020239C1A0346E3401943904010BD13
:100EB00010B5202A04DB0846203AD040002110BD9E
:100EC0000B46D340D0402024A21A91400843194633
:100ED00010BD10B5202A06DBCB170846203A10417A
:100EE000C1170B4306E00B461341D0402024A21A41
:100EF00091400843194610BDF3B58DB000200A900B
:100F000001200B90002608460C300C4609906269BF
:100F1000012109989047051E2ED0252D2DD0216A3C
:100F20008847002818D06269012109989047216AF2
:100F300088470028F7D1411E62690998904700E070
:100F4000761CA1690D988847216A88470028F7D147
:100F5000E1690D988847DAE7A1690D988847074647
:100F6000A84201D1761CD2E7E1690D9888477F1C21
:100F700002D10A98002877D049E1002762693D46EE
:100F80003946099890472A280CD1626901210998AD
:100F90009047012506E00A214F433F18303FEBD42C
:100FA00010200543626901210998904701463039B4
:100FB0000A2903D29B498F42DEDCECE7E90600D424
:100FC000994F6C280AD04C2810D0682824D06A2861
:100FD0002ED074280CD07A280AD00DE06269012145
:100FE000099890476C2823D004211CE02020054359
:100FF0006269012109989047A760656065284FD014
:1010000026DC582839D01ADC452849D012DC25289E
:1010100034D04128B0D143E062690121099890475A
:10102000682802D008210D43E6E70120C002DEE770
:101030000220DCE7462833D047282CD130E05B285B
:1010400070D061282CD063286CD0642823D161E053
:101050006F284FD009DC662822D0672820D0692865
:1010600026D06E2817D12EE0CDE070284DD0732801
:101070006FD075284ED078280DD154E0A1690D9815
:1010800088470546252800D16CE7E1690D98884717
:101090006D1C00D16DE7BAE00A224CE00A2252E052
:1010A000012023466A46C0430D99C046C046A3E0CE
:1010B0002846402108436060A807234601D5002246
:1010C00039E000223FE0E80700D020E72068011D5A
:1010D00021600068290501D5067018E7290701D5A8
:1010E000068014E7A90703D5F117066041600EE7F3
:1010F00006600CE72846402108436060A8072346A5
:1011000001D5082217E008221DE04849284608407A
:10111000606016E02846402108436060A807234627
:10112000BCD5B9E715E02846402108436060A80710
:1011300007D5234610220120C0430D99C046C04662
:101140005AE0234610220120C0430D99FFF798F87A
:1011500052E000210C910B460091632802D05B28DD
:1011600007D043E0E80601D40120A06001200090F0
:101170003CE062690121099890475E2805D1012071
:101180000C9001466269099890472169002906D1AF
:101190000B4601AA8F00491CD3510829FADB00280D
:1011A00035D0216900290ED1C117C90E09184A117D
:1011B000930001AA9A1849094901411A01201368AC
:1011C00088400343136062690121099890475D28B4
:1011D000E5D10C98002808D0002001AB81005A58B6
:1011E000401CD2435A500828F8DB01AB01202246AC
:1011F000C0430D99C046C04600280ADA401C06D1FB
:101200000B98002803D00020C0430FB0F0BD0A980F
:10121000FBE7E90702D10A99491C0A913618002018
:101220000B9074E6CCCCCC0CFFFFFF7FF1F7FFFFF7
:10123000F0B581B005460024009400688168C907B4
:101240001CD181682B4A2F3211420AD0A86D10217F
:101250000143A965E86D01242043E865204601B0FB
:10126000F0BD8168234A114001273943816022483B
:101270000068000205D4687E012825D1204601B00F
:10128000F0BD1E4800681E49FFF761FA401C00903F
:1012900000980028EFD00098401E00900098002889
:1012A000E9D00098401E009000980028E3D00098F4
:1012B000401E009000980028DDD00098401E00904D
:1012C00000980028E7D1D6E704F016F9064604E0B6
:1012D00004F012F9801B0328B8D228680168C907F6
:1012E000CCD18168C907F3D18168024A11403943E2
:1012F0008160EDE7E8FFFF7F082701403400002010
:10130000400D0300F0B583B067490A684968401A88
:1013100086185249CF6801200023BE4202460EDDE6
:101320004C68A64205460FDA1543012D10D14D69D0
:10133000AE4213DC0022BE42034613DA13E01A4623
:101340004C68A6420546EFDB1D461543012DEED045
:101350000D4608350868A74217D043E00122BE4277
:10136000034600DB1346012B06D1CB699E420EDCFF
:101370000022AE420EDA0EE028460D461035083146
:101380003C4607460868A7422CD103B0F0BD0122B5
:10139000AE4200DB1046029500281BD0A6423BDA85
:1013A000886809680291FFF7B6F80546381BFFF711
:1013B0007BF901462846FFF7F3F80546301BFFF797
:1013C00073F901462846FFF7AEF80299FFF752F885
:1013D00003B0F0BD0D4618351031029C1F46086859
:1013E000A742D2D0391B07460846FFF75DF90290A5
:1013F00028683946FFF78FF80299FFF7D1F80546BC
:10140000301BFFF751F901462846FFF78CF83946A3
:10141000FFF730F803B0F0BD8869019009691C46F8
:10142000FFF779F807460298201AFFF73DF90146C1
:101430003846FFF7B5F80546301BFFF735F901468A
:101440002846FFF770F80199FFF714F803B0F0BDD4
:1014500002484068144908607047C0468400002074
:1014600080B5322003F0D2FE004880BDF89503001D
:1014700080B503A00FF0E6FE0B490C48486080BD24
:10148000414453313233323A205461726520656DE4
:10149000206D6F646F2064652073696D756C616386
:1014A000616F2E0D00000000C0000020CD970300EA
:1014B0007D200001054948607047C0467047000024
:1014C0007D200001014988607047C04694010020DA
:1014D00010B51248124901F079FA124C204602F078
:1014E00017F9114802F06EFA104809F0A3FC09F050
:1014F0006FFB01F0B5FB09F0CDFF02F0B9F9FFF782
:10150000A7FF204600F092FA02F0B0FB084809F06D
:10151000ABFB084809F0B0FB10BDC0461C0D002015
:1015200019260008900800206C080020C40B002039
:1015300000008E420AD7CD4180B500F0F3FA00F0EA
:10154000D1FC01F057FA02F047FA09F0AFFF09F0B9
:1015500049FB01F08FFB80BDF0B587B00190474893
:101560000FF070FE464847490FF082F9002001F065
:10157000E7F9454803F04AFE02AC1121204602F08B
:10158000F5F9012635032846103040A104273A46D4
:1015900001F0D8FA3F490822284601F0D3FA28463C
:1015A00020303DA1072201F0CDFA2046FEF70CFEC7
:1015B000303582B22846214601F0C4FA38A1304DB8
:1015C00028460FF055F9304601F0BAF97D20C600E3
:1015D0003446C834204603F019FE37A128460FF0E0
:1015E00047F9022001F0ACF9204603F00FFE39A1C3
:1015F00028460FF03DF9032001F0A2F9304603F030
:1016000005FEFFF735FF39A128460FF031F93846BE
:1016100001F096F9304603F0F9FD0AF059F809F0A7
:1016200027FB39A128460FF023F9052001F088F99E
:101630006436304603F0EAFD02F07CF804460028E8
:1016400012D00F4839490FF013F9062001F078F94C
:10165000304603F0DBFD36480FF0F4FD019801F051
:101660006FF9204607B0F0BD3B2001F069F92E4824
:101670000FF0E8FD204607B0F0BDC046DD3B010895
:10168000863B0108153C0108B80B0000312E3030B4
:1016900000000000303C0108302E30302E30320087
:1016A00056657269666963616E646F205365727610
:1016B0006F732E2E2E000000566572696669636195
:1016C0006E646F204D656469646F72204672657147
:1016D0002E2E2E0056657269666963616E646F20F6
:1016E00042616C616E63612E2E2E00005665726938
:1016F000666963616E646F205465726D6F6D6574A9
:10170000726F2E2E2E000000566572696669636145
:101710006E646F204D656D6F726961204545505252
:101720004F4D2E2E2E000000BC3B0108023C01084C
:10173000983B010880B588B015A00FF099F81648BD
:101740000FF096F807A806A905AA09F04BFB002898
:1017500008D005A8037806A8027807A801780FA08A
:101760000FF086F804A803A902AA01AB09F0E0FA79
:10177000002808D002A8037803A8027804A80178FA
:1017800011A00FF075F81BA00FF072F808B080BD23
:101790000A0D0A0D00000000EF170108417373697C
:1017A0006E6174757261202020202020202020206E
:1017B00020202020253032643A253032643A25300A
:1017C00032640A0D00000000526573706F6E736121
:1017D00076656C2020202020202020202020202022
:1017E000253032642F253032642F253032640A0DC3
:1017F000000000000A0D0A0D0A0D0A0D000000008D
:1018000010B586B0072901D84C482FE0801D891FEC
:1018100089B203AA0B2301F0E1F9002825D003A81F
:101820000078002829D0684600248472048101943D
:1018300000940B2102F088F8002826D069468C72AB
:1018400003A8FEF7C8FC002824D003A824A108227E
:10185000FEF7CFFC002825D023A003A90FF008F83D
:101860003E2001F06DF806B010BD12A00FF0EAFCAA
:101870003B2001F065F806B010BD2F480FF0E2FCE8
:101880003E2001F05DF806B010BD3B2001F058F895
:1018900006B010BD27480FF0D5FC172001F050F816
:1018A00006B010BD1AA00FF0CDFC2E2001F048F8B4
:1018B00006B010BD417574683A2046616C686120BD
:1018C0006E6F2070617273657220726F62757374CF
:1018D0006F2064612073656E68612E0D000000004A
:1018E00047484B4031323300417574683A205365A4
:1018F0006E686120696E636F72726574612E204438
:101900006967697461646F3A20272573270D0A009F
:10191000417574683A20456E7472616E646F206E12
:10192000612074656C61206465205365727669631B
:101930006F210D00D1700108E770010804710108E2
:1019400010B584B0082904D23B2000F0F9FF04B0A0
:1019500010BD801D891F89B201AA0B2301F03EF939
:10196000002816D001A8FEF72FFC002813D02E4C1B
:101970002178002917D000202070641C01A920467E
:10198000FEF729FC002820D0402000F0D9FF04B049
:1019900010BD12A000E01BA00FF054FC3B2000F093
:1019A000CFFF04B010BD042804D23F2000F0C8FFD0
:1019B00004B010BD601C01A9FEF728FC01202070B6
:1019C0001F2000F0BDFF04B010BD204602F0FEF85D
:1019D000172000F0B5FF04B010BDC0464175746813
:1019E0003A2046616C6861206E6F20706172736589
:1019F00072206465206E6F76612073656E68612E5B
:101A00000D000000417574683A204E6F76612073B6
:101A1000656E68612076617A6961206465736361CF
:101A200072746164612E0D006401002070B582B093
:101A30001E4D286001AC0026267021460EF014FDD4
:101A4000002812D120780A280FD119A00A2100F00D
:101A500011FA2868214C21460EF06CFB00280AD0B0
:101A60001FA000F007FA02B070BD2D4800F002FA86
:101A70002E6002B070BD28680EF04CFB002804D028
:101A8000254800F0F7F902B070BD286821460EF035
:101A9000F9FC0EF06BFEFEF746FE02460B461F48B1
:101AA0000E4900F0E7F902B070BDC0467001002099
:101AB000424154455249413A204251323536323240
:101AC0002064657465637461646F2E2049443A2014
:101AD0003078253032580D0A00000000280A000036
:101AE000424154455249413A2046414C48412061C7
:101AF0006F20636F6E6669677572617220706172C4
:101B0000616D6574726F7320646F20425132353697
:101B100032322E0D0A000000947101085471010840
:101B200027710108F0B583B04C4C2068002800D123
:101B300092E00EF093FD03F0DFFC6168401AC008EC
:101B40007D2800D288E003F0D7FC60600EF00AFE2A
:101B50004349FEF78DFD002801D0042423E00EF058
:101B600005FE04463F49FEF783FD002801D003240B
:101B700019E03D492046FEF77BFD002801D00224F4
:101B800011E03A492046FEF773FD002801D00124F8
:101B900009E037492046FEF741FD002801D10446FF
:101BA00001E00020C443334D2888A1B2814205D012
:101BB0001120000221B200F065FF2C8000F0BCFE75
:101BC000682849D10EF0CEFD05460EF0C7FD04464B
:101BD0000EF0BCFD07460EF0BDFD01900EF0C6FDF7
:101BE00002900EF0AFFD244E28463146FEF79BFCD6
:101BF000FEF780FD0146214D284600F067FF204694
:101C00003146FEF790FCFEF775FD01462846703020
:101C100000F05CFF1A493846FEF785FCFEF76AFDC6
:101C200001462846803000F051FF164C01982146AD
:101C3000FEF779FCFEF75EFD01462846903000F085
:101C400045FF02982146FEF76EFCFEF753FD014664
:101C5000A035284600F03AFF03B0F0BD7001002027
:101C6000000090400000AA42000048420000F041FD
:101C700000007041AA00002000007A449022000079
:101C800000401C460000204180B5034800F006F8E3
:101C9000774800F029F980BDB91C000880B5E849F3
:101CA00000224A804A6088600A7001200102E648EA
:101CB000FEF768FA80BDC04670B5A0B0002800D11C
:101CC000A9E001466D467F2628463246FEF765FAB2
:101CD0000024AC55FEF724FA0646016828780A5C11
:101CE000D20706D068780A5CD207AD1C002AF5D16D
:101CF0006D1E002800D18BE020212846FEF75AFAFD
:101D000000281ED000210170811C32684C1E2078F2
:101D1000135CDB0712D00878135CDB070DD0487822
:101D2000135CDB0759D08878135CDB07091D002B97
:101D3000ECD18C1E002803D003E00C46002800D113
:101D4000044636492846FEF76AFA002841D035494C
:101D50002846FEF764FA324E00283CD03249284625
:101D6000FEF75DFA00283CD030492846FEF757FAC6
:101D7000002838D02E492846FEF751FA002834D0E2
:101D80002C492846FEF74BFA002830D02A4928462D
:101D9000FEF745FA00282CD028492846FEF73FFADE
:101DA000002828D026492846FEF739FA002824D0F2
:101DB00024492846FEF733FA002820D02249284635
:101DC000FEF72DFA00281CD020A0294600F052F87A
:101DD0001EE0134E16E0083614E04C1C0028AFD06D
:101DE000AFE710360EE018360CE020360AE0283651
:101DF00008E0303606E0383604E0403602E0483687
:101E000000E0503619A000F035F871682046884788
:101E1000174800F069F820B070BDC0464070010856
:101E2000FC3901080F700108367001081D700108A7
:101E300025700108287001083B70010845700108F1
:101E40004A700108157001082D7001080D0A436FD2
:101E50006D616E646F20646573636F6E686563693E
:101E6000646F3A20222573222E0000000D0A000024
:101E7000F16F010883B0F0B582B007AC0EC4002842
:101E800028D0044607AB01930120010214482246E2
:101E90000EF02EFD01281DDB80480068002819D0B7
:101EA0000F4C2046FEF790F9002813D005467C48D9
:101EB00087884688701C03214902FEF748FCB94216
:101EC00008D02078774A905575484180641C6D1E73
:101ED0008EB2EFD102B0F0BC01BC03B00047C046E7
:101EE0001202002070470000F0B581B000281ED01B
:101EF00004466A480068002819D02046FEF764F9B5
:101F0000002814D00546664887884688701C03213F
:101F10004902FEF71CFCB94209D02078614A90556D
:101F20005F4841806D1E641C8EB2002DEED101B061
:101F3000F0BDC046F0B583B0594D2978002901D0D5
:101F400003B0F0BD0C2835DC08284CD00A2835D069
:101F5000EC88FE2CF4D80646FEF7E2F80068805DB7
:101F60008006C00EECD038480655601CE88002A8F8
:101F7000002242700670494800680028E0D002A89C
:101F8000FEF722F90028DBD00446A88801906E886D
:101F900002AF701C03214902FEF7D9FB0198814270
:101FA000CED038783F4A905569807F1C641E8EB22F
:101FB000EFD1C5E77F2816D00D28C9D1E8880028C1
:101FC000BED0214900240C5401262E70A968002996
:101FD00001D01D488847EC8031021B48FEF7D2F83B
:101FE0002C7003B0F0BDE8880028A9D0401EE8801E
:101FF0002A4800680028A3D003204402688886B2DB
:10200000701C2146FEF7A3FBA888814298D0254A80
:102010000823935569804E1CA64200D100268642B3
:102020008ED0202757546E80711CA14201D30549E0
:102030007118814284D09355698003B0F0BDC046C9
:10204000E400002001FAFFFF400F0020B0B582B08D
:102050001248006800281FD0114CA0886188814276
:102060001AD0002201920325814200D86902091A80
:1020700089B2402900D340210A4A101801AA0AF067
:10208000E1F9002808D10198002805D0A18840185E
:102090006902FEF75CFBA18002B0B0BD0008002021
:1020A000E400002040100020F0B581B01E4D281D36
:1020B0001E49FEF767F81E48012100912960612141
:1020C000A860E96000272F827F20C0056861194859
:1020D000E8611948281819491CC91CC00A880280DF
:1020E000897881708726164C284620302168102276
:1020F000FEF753F830202F54284631300A22114978
:10210000FEF727F828463030E16A226BC2828182CE
:10211000A1692964C77228354034761EE4D10A4883
:102120000099017001B0F0BD40160020D8160000E3
:1021300073656E6805000200C8160000EC730108A4
:1021400014180108FC7301085C010020B0B58CB0C4
:10215000002005900BA80AA909AA08F043FE04462E
:1021600008A807A906AA05AB08F0E2FD002C15D0C7
:10217000002813D007A8037808A8027806A80078DA
:102180000BA909780AAC247809AD2D7800AF33C7C4
:102190000DA005A9FFF76EFE0CB0B0BD02A0FFF7C1
:1021A000A3FE0CB0B0BDC0464572726F20616F20B7
:1021B0006C657220646174612F686F726120646F56
:1021C000205254432E000000446174612F486F7206
:1021D000613A20257320253032752F253032752F36
:1021E00032302530327520253032753A253032753F
:1021F0003A2530327500000070B5002822D0044620
:102200002021FDF7D7FF002820D000210170861C77
:10221000FDF786FF0168751E28780A5CD20718D082
:1022200030780A5CD20713D070780A5CD2073BD0B2
:10223000B0780A5CD207361D002AECD1B51E002802
:1022400009D009E02DA0FFF74FFE70BD002503E087
:102250003546002800D105461A492046FDF7DFFF24
:10226000002817D019492046FDF7D9FF164E00283F
:1022700015D017492046FDF7D2FF002818D0154980
:102280002046FDF7CCFF002817D013A02146FFF70A
:10229000F1FD70BD0C4E71682846884770BD083648
:1022A00071682846884770BD751C0028D3D0D3E7D5
:1022B000103671682846884770BD18367168284600
:1022C000884770BD11700108543A01086570010813
:1022D000F66F010869700108537562636F6D616E76
:1022E000646F204457494E20646573636F6E686560
:1022F0006369646F3A2022257322000055736F3A98
:10230000204457494E203C5049437C494E547C4917
:102310004E5433327C5241573E202E2E2E202876AA
:10232000656A612048454C502900000080B586B0A0
:10233000684608F043FC0AA0FFF7D6FD0198FEF7B7
:10234000F2F902460CA00B46FFF794FD0298FEF747
:10235000EAF902460EA00B46FFF78CFD06B080BDE1
:102360004461646F73206465204672657175656EA3
:102370006369613A0D0A0000202050756C736F7319
:1023800020283173293A20252E31660D0A000000DD
:102390002020457363616C6120413A20252E32660E
:1023A0000D0A000080B586B0684608F007FC00986A
:1023B000FEF7B9F9024603A00B46FFF75BFD06B036
:1023C00080BDC0465065736F3A20252E3266206767
:1023D0000D0A000080B509F07BF9FEF7A4F902466A
:1023E00002A00B46FFF746FD80BDC04654656D70E8
:1023F0006572617475726120696E7465726E6120B8
:10240000646F204D43553A20252E326620430D0A35
:102410000000000080B50248FFF766FD80BDC046A1
:10242000AA13010880B52E2000F006FB80BD000035
:10243000B0B584B0002825D001A9009119A103AD41
:1024400002AC2A462346FDF7FDFE03281FD128785B
:10245000411EC9B21E291AD821784A1ED2B20B2AAF
:1024600015D801AA127808F009FD002814D001A897
:10247000037802A8027803A801782848FFF7FAFC3D
:1024800004B0B0BD2648FFF72FFD04B0B0BD09A0D1
:10249000FFF72AFD04B0B0BD15A0FFF725FD04B07D
:1024A000B0BDC046256868752F256868752F2568FA
:1024B00068750000466F726D61746F20696E766199
:1024C0006C69646F2E2055736F3A20534554444114
:1024D000544520444428312D3331292F4D4D283186
:1024E0002D3132292F59592830302D3939292E00D4
:1024F0004572726F20616F20736574617220612074
:1025000064617461206E6F206861726477617265C6
:1025100020646F205254432E000000008370010895
:102520006D70010870B584B0002822D001AE00960D
:1025300017A103AD02AC2A462346FDF783FE03280C
:102540001CD12878172819D821783B2916D8327839
:102550003B2A13D808F0A4FC002814D001A8037863
:1025600002A8027803A801782748FFF783FC04B08B
:1025700070BD2648FFF7B8FC04B070BD08A0FFF797
:10258000B3FC04B070BD15A0FFF7AEFC04B070BD85
:10259000256868753A256868753A25686875000089
:1025A000466F726D61746F20696E76616C69646FDD
:1025B0002E2055736F3A2053455454494D452048B9
:1025C0004828302D3233293A4D4D28302D353929C0
:1025D0003A535328302D3539292E00004572726F39
:1025E00020616F207365746172206120686F726171
:1025F000206E6F20686172647761726520646F205D
:102600005254432E00000000AA7001084F700108C8
:1026100080B50BF0EDFA80BD10B5062900D22BE194
:1026200002785A2A00D027E14278A52A00D023E177
:10263000C278832A00D01FE1427903791B029A18DD
:10264000082992B214D30023A04CA2420ED0A04C71
:10265000A2420BD09F4CA24208D08378DC1C8C4253
:1026600006D8C3189C785B781B021B199A4C2380F0
:102670009A4B9A4249DCA84B9A4200DC6EE0A74B89
:102680009A4200DD7CE0964BD218312A00D9F3E063
:102690005200C0467A449288520097443100CE00DE
:1026A000ED00ED00ED00ED00ED00ED00ED00ED00C2
:1026B000ED00ED00ED00ED00ED00ED00ED00D400CB
:1026C000ED00ED00ED00ED00ED00ED00ED00ED00A2
:1026D000ED00ED00ED00ED00ED00ED00ED00C900B6
:1026E000ED00ED00ED00ED00ED00ED00ED00ED0082
:1026F000ED00ED00ED00ED00ED00ED00ED00C1009E
:10270000754A128808F0F0FC10BD764B9A4213DC33
:102710007B4B9A4243DD7B4B9A426DDC05200003E4
:10272000824200D194E07A48824200D0A4E06A4814
:10273000008800F049FC10BD6B4B9A4241DD6B4BA9
:102740009A4262DC6A4B9A4200D186E081231B02E6
:102750009A4200D090E001F04DFF10BD714B9A42BB
:102760003EDC744B9A4200D19CE0584B9A4200D117
:102770008AE08120800182427ED101F03DFE10BDC1
:10278000544B9A427DD0664B9A4276D06123DB014E
:102790009A4271D1504A128800F020FE10BD5D4B64
:1027A0009A4200D183E03120000282426FD0812022
:1027B000C001824260D100204749085E01F050FE0E
:1027C00010BD4C4B9A4277D04B4B9A4262D04B484B
:1027D000824251D15D493820088000F02DF910BDAA
:1027E000514882426DD05148824258D0504882426E
:1027F00042D108F0CBFD10BD434B9A4233D0434841
:10280000824239D100F006FF10BD212080028242B1
:102810002ED08520000282422ED101F0A7FE10BDED
:102820002D480088411E4842484100F04FFD10BD30
:102830002948008800F0F0FC10BD444919200880A8
:1028400000F0FAF810BD2448008800F06FFD10BDBC
:102850002148008806F0B8FE10BD3C496820088079
:1028600000F0EAF810BD1C4A128808F07FFB10BD8A
:102870001948007801F0C2FA10BD2020FEF76CFE66
:1028800010BDFFF75DF810BDFEF7BAFF10BD00F0F8
:10289000B5FE10BD104A128800F014FE10BD00F005
:1028A000C7FE10BD0C48008800F070FB10BD0A4A3E
:1028B000128800F03FFC10BD0748008800F048FB7C
:1028C00010BD0548008800F0DDFB10BD3020000081
:1028D0000F30000060300000202D00208F300000FD
:1028E000F1CFFFFF5F7000001F710000FF83000049
:1028F0002071000060700000707000009070000097
:10290000FF4F00001F7000002070000030700000BA
:1029100010700000903000000E3000005F300000AA
:10292000703000004F2000005020000060200000A8
:102930009020000020200000044800887047C04616
:1029400080B50249088000F077F880BDA80000201B
:1029500010B5A14C6268002A03D001681268914248
:1029600000D010BDCA69120701D508220A6206F01C
:102970007BF860680028F4D010344022214605F02E
:10298000AAFF0028EDD000F06DFF10BD80B54021FA
:10299000C9430246413A8A4204D88F494868002810
:1029A0000AD180BD8C49488001200870C868401C4D
:1029B000C86048680028F4D01031402205F08BFF31
:1029C0000028EED000F04EFF80BDC04680B50A461C
:1029D000814900230B704B8048608A60CB600028DF
:1029E00007D01031402205F076FF002801D000F01A
:1029F00039FF80BDB0B590B0774D2878012816D149
:102A000072B66C880020287062B62046413880B2C9
:102A1000084988420BD32946103168462246FDF703
:102A200098FBAA68002A02D068462146904710B059
:102A3000B0BDC046C0FF000010B584B00246664875
:102A4000406800281BD001A94A720123CB715A2388
:102A50008B7184244C7100240C718224CC70072467
:102A60008C70A5244C700B70120A0A720A2264231F
:102A700006F01EFB01464042484104B010BD002054
:102A800004B010BD10B582B002465348406800281B
:102A900018D06C46E17162718223E3700523A37044
:102AA000A52363705A232370090AA171110A2171A9
:102AB00008226423214606F0FBFA014640424841C1
:102AC00002B010BD002002B010BDC04610B584B0E9
:102AD00002464148406800281CD001AC6172627116
:102AE0008223E3700723A370A52363705A23237006
:102AF0000B0A23720B0CE371090EA171110A2171EB
:102B00000A226423214606F0D3FA01464042484196
:102B100004B010BD002004B010BDC04610B50A4678
:102B200001460020002A0CD000290AD02A4B5C68FC
:102B3000002C06D06423204606F0BAFA0146404233
:102B4000484110BDF0B503AF85B06E460446002085
:102B5000002A3DD000293BD01F4B5B68002B37D0AB
:102B6000F360746014460F340720844331610846D3
:102B70001546FDF729FB294605466846B0606846BC
:102B8000041BA54670686071000A20718220E07005
:102B90008D4200D30D46681D7060A070A520607046
:102BA0005A202070A01D31692A46FDF7D2FA60191B
:102BB000FF21C17181717068C0B2C21C6423F068CA
:102BC000214606F075FA014640424841B1688D46FB
:102BD000FE1F053EB546F0BDF0000020F0B583B005
:102BE0001D4614460746501E164686417A1E3B4631
:102BF000934133400291012901D8002100E00121D5
:102C00000B406E1E2846B04118401CD00190204653
:102C10002946FDF7B7FA022D1BD3002202211046E8
:102C2000029D7B185B1E1B78FF2B0AD0202B01D343
:102C3000A354401CC2B2964203D94B1CA942194668
:102C4000EFD3C0B206E0002C01D0002D04D103B0B8
:102C5000F0BD0020241801980021217003B0F0BDC0
:102C6000F24801210170EF4900220A8008234380C5
:102C70008A707047F0B58DB0994E7078002844D0B6
:102C800002280DD100F09AFE00281BD000F0FEFDB6
:102C9000002824D03B20FFF753FE934897A128E05B
:102CA0003C20FFF74DFE904898A10B22FFF74AFF0A
:102CB00002F022FC98494018B06002207070002891
:102CC0001ED122E087484088FFF73AFE344614348C
:102CD0002046FDF779FA82B2834821460AE002F0E5
:102CE0000BFCB16888420DD93B20FFF729FE7E48D6
:102CF0007EA10F22FFF726FF00207070002804D06D
:102D00000DB0F0BD70780028FAD17D20C700307872
:102D1000002805D002F0F0FB7168401AB84240D29A
:102D200002F0EAFBF168401AB84253D302F0E4FB28
:102D3000F060FFF701FE352801D0382848D16846F9
:102D400007F03CFF80490198FDF7EDFBFDF7D2FC51
:102D500001467E4C20462030FFF7B8FEF34902982A
:102D6000FDF7E1FBFDF7C6FC014620463030FFF7DA
:102D7000ADFEB078401CB070C0B205282AD3002048
:102D8000B07008F0A5FC054607F072FFE749284639
:102D9000FDF7C9FBFDF7AEFC01462046FFF772FECA
:102DA00018E002F0A9FB70603078401E062800D9B8
:102DB00081E0C0467844007940008744037F707604
:102DC0006A858B00022030700E20FFF7B9FDA7E75F
:102DD0000020B07002F090FB3169401AB8428FD3E6
:102DE00002F08AFB3061FFF7A7FD01460839292967
:102DF00000D94BE07944097949008F441514141423
:102E00001414141414141415141414141415141480
:102E10001414141414151414141414141414141471
:102E20001414141414156BE70CA80BA90AAA07F0C4
:102E3000D9FF002800D163E709A808A907AA06ABB3
:102E400007F076FF002800D15AE76846102141714B
:102E5000002101718222C2700B228270A522427071
:102E60005A220270079A8271089AC2710322427232
:102E7000099A02720C9A82720B9AC27241730A9971
:102E800001730E21FFF74AFE0DB0F0BD7728CBD0BD
:102E900036E7062030701220FFF752FD40E704208D
:102EA00030701020FFF74CFD3AE7052030701120FC
:102EB000FFF746FD34E70020307031E70320307023
:102EC0000F20FFF73DFD2BE707203070002000F0BA
:102ED000D9F825E70020307010A00EF0B3F91FE7F5
:102EE000CC0100202C000020964000004572726F3B
:102EF0003A2054696D656F75742100004572726FD8
:102F000020616F2073616C766172210053616C7671
:102F1000616E646F2E2E2E008813000044495350BA
:102F20004C41593A2053657175656E63696120643F
:102F300065206D65646963616F2066696E616C69A7
:102F40007A6164612E0D00000AD7233C3022000014
:102F500080B5044804A12022FFF7F4FD3520FFF7D7
:102F6000EFFC80BD9640000041646A757374467240
:102F7000657175656E63793A20333030302E304B91
:102F8000487A2B2F2D322E3000000000B0B50546B8
:102F90000824102809D02046FFF7D2FC102D09D1B3
:102FA00007482146FFF7BAFDB0BD0B20FFF7C8FC6C
:102FB000102DF5D003482146FFF7B0FDB0BDC04647
:102FC0004C1301085413010870B5002806D0FFF710
:102FD0006BF8144D6878002809D070BD214822A1F3
:102FE0001B22FFF7AFFD3020FFF7AAFC70BD0E4893
:102FF0002E2421460DF03CFC00F0EAFC4520002187
:1030000029540A4844802846143009A15CC95CC090
:103010005CC95CC05CC95CC001226A70097801703F
:1030200070BDC046CC010020C27101082C000020F8
:1030300050726573657420636F6D706C65746F2179
:103040000000000000000000000000000000000080
:103050000000000000000000000000000000000070
:103060000000000096400000507265736574207285
:1030700065646566696E65206F7320616A75737437
:1030800065732100F0B591B0CD490978012903D1CC
:10309000002803D008F0A8F811B0F0BD06AC204617
:1030A00000F03CFC207807AE314600F01DFC68467D
:1030B00007F084FD00F03EFC04461B4D102228461C
:1030C0003146FFF73FFD2020315E2846C030FFF734
:1030D000D9FC0A271098784301B22846E030FFF760
:1030E000D1FCF08C784301B22846F030FFF7CAFCDF
:1030F000012C01D00E4900E00C490598FDF713FAA8
:10310000FDF7F8FA014690352846FFF7BBFC012C85
:1031100004D07720FFF714FC11B0F0BD1320FFF7A7
:103120000FFC11B0F0BDC04670200000000020412F
:103130000000C84270B594B0502A1ED101AC0020E6
:10314000207505900490039002900190152120466F
:1031500000F0B6FB07AD2BA1284622460DF0B4FBCC
:103160002846FDF731F882B2D5482946FFF7EAFC38
:103170002320FFF7E5FB14B070BD01AC00252575D9
:1031800005950495039502950195801D891F89B2C7
:1031900015232246FFF722FD00280FD020780028B3
:1031A0000CD001AC204600F0D9FC07A80FA12246A4
:1031B0000DF08AFB104E7078002801D014B070BD5D
:1031C0000E48172421460DF053FB00F001FC45206A
:1031D00035540B4844803046143007A93122FCF79F
:1031E000DCFF0120707014B070BDC046456D707278
:1031F0006573613A20257300CC010020C27101087B
:103200002C000020417475616C20456D70726573EF
:10321000613A202573000000B0B58AB0502814D15F
:1032200000F088FB02466C4622A120460DF04CFBC4
:103230002046FCF7C9FF82B2F5482146FFF782FC21
:103240001B20FFF77DFB0AB0B0BD044600F0AEFCCA
:10325000684610A122460DF037FB134D6878002810
:1032600001D00AB0B0BD1148172421460DF000FB73
:1032700000F0AEFB4520002129540D48448028462B
:10328000143069463122FCF788FF012068700AB0CB
:10329000B0BDC046436173617320646563696D614D
:1032A00069733A2025750000CC010020C271010825
:1032B0002C000020417475616C204E525F446563A0
:1032C000696D616C733A20257500000080B507496F
:1032D0000870002804D109A10CA00DF0C9FA80BD26
:1032E00003A10AA00DF0C4FA80BDC0462C00002046
:1032F000484142494C4954414441000044455341EE
:1033000042494C49544144410000000044697370F3
:103310006C61792048616E646C65723A20496D7009
:1033200072657373616F2025730D0A00B0B58AB0A2
:10333000502814D100F002FB02466C4621A1204621
:103340000DF0C2FA2046FCF73FFF82B2B648214694
:10335000FFF7F8FB1A20FFF7F3FA0AB0B0BD0446F6
:1033600000F02CFC684610A122460DF0ADFA124D7B
:103370006878002801D00AB0B0BD10481724214653
:103380000DF076FA00F024FB4520002129540C486A
:1033900044802846143069463122FCF7FEFE0120A5
:1033A00068700AB0B0BDC046526570657469636FDD
:1033B00065733A2025750000CC010020C271010818
:1033C0002C000020417475616C204E525F52657074
:1033D00065746974696F6E3A2025750070B594B094
:1033E000502A1ED101AC0020207505900490039056
:1033F000029001901521204600F0CCFA07AD2BA1D8
:10340000284622460DF060FA2846FCF7DDFE82B21F
:1034100085482946FFF796FB2220FFF791FA14B062
:1034200070BD01AC002525750595049503950295A1
:103430000195801D891F89B215232246FFF7CEFB17
:1034400000280FD0207800280CD001AC204600F0D6
:10345000EFFB07A80FA122460DF036FA104E707848
:10346000002801D014B070BD0E48172421460DF07D
:10347000FFF900F0ADFA452035540B484480304642
:10348000143007A93122FCF788FE0120707014B0B7
:1034900070BDC0465573756172696F3A202573001F
:1034A000CC010020C27101082C000020417475611C
:1034B0006C205573756172696F3A202573000000A6
:1034C00096400000F0B593B014460D46064606A897
:1034D0003221FCF757FE002C25D001AC00272774C1
:1034E0000497039702970197701D691F89B21123F2
:1034F0002246FFF773FB002813D02078002810D055
:1035000023A001AC21460DF0B3F9204600F074FB76
:1035100006A82BA122460DF0D7F92C4D687800287B
:103520001DD013B0F0BD3620FFF70AFA01AC002021
:10353000207404900390029001901121204600F025
:1035400015FA06AD28462146FCF760FEFCF73CFE66
:1035500082B235482946FFF7F5FA13B0F0BD1C4892
:103560002E2421460DF084F900F032FA45202F5424
:10357000184844802846143006A93122FCF70DFE75
:103580000120687014A00DF05DFE13B0F0BDC046C0
:10359000446973706C61792048616E646C65723A3D
:1035A00020526563656269646F206E6F766F207369
:1035B000657269616C3A20272573270A00000000B4
:1035C00053657269616C3A2025730000CC010020BC
:1035D000C27101082C000020446973706C61793A53
:1035E0002053657269616C2073616C766F20636F24
:1035F0006D207375636573736F2E0D0080B50A4877
:103600000A490E22FFF79EFA2120FFF799F980BDA3
:103610009640000080B5044804490E22FFF792FA54
:103620003220FFF78DF980BD96400000FB71010844
:1036300010B5084C2078002800D010BD06A00DF071
:1036400001FE0120207001F057FF60600D20FFF7A0
:1036500077F910BDCC010020444953504C41593AF0
:1036600020496E696369616E646F20736571756569
:103670006E636961206465206D65646963616F2EA6
:103680002E2E0D0001480121017070470408002012
:1036900070B582B06E4D287803281BD001282DD13B
:1036A000A98900291ED028696B692A8900937F2384
:1036B00013408024E61A8E4200D30E460196A021C4
:1036C0000224234602F040FB00280DD0012028717F
:1036D000052412E001F010FFA969401A05280DD356
:1036E00001240AE0042408E0686980196861A88957
:1036F000801BA8812889801928812C7002B070BD98
:1037000053490879012801D100220A717047C04647
:103710004F4900220A710A70086170474C480078CE
:10372000FB2101404A1E9141401F421E904108402A
:103730007047C04610B5464C2069002817D0A0211C
:103740000222642302F012F8002812D02069002817
:1037500011D02F480DF076FD206901F017FF0520EC
:1037600001F054FD206901F0A7FF206904E000206A
:1037700010BD012010BD0020A0210222642301F011
:10378000F5FF01464042484110BDC046F0B583B048
:1037900004460020002A38D00E46002935D01546B0
:1037A0002B490A69002A30D07D20C7000096019578
:1037B0000297A02102231046224602F093F8002827
:1037C00014D023480069002813D011480DF03AFDA9
:1037D0001F48006901F0DAFE052001F017FD1C48C2
:1037E000006901F069FF1A48006903E0012003B095
:1037F000F0BD0020009601950297A02102232246E9
:1038000002F070F801464042484103B0F0BDC046A6
:103810005B3B010870B50E4C2378FB251D406E42C2
:103820006E415B1F5D425D4135434B1E0E469E411E
:103830002E40551E1346AB413340012B06D161612A
:103840002081A2810020207101202070184670BDC7
:103850004001002080B5802001F068FD202001F0AB
:1038600065FD80BD72B6FEE707480068406A704794
:1038700080B5054804F042FC80BDC046024800689F
:10388000002141627047C046D00C0020D949887899
:10389000012801D100228A707047C04610B54A1E27
:1038A0000B469341441E0246A2411A40012A04D10C
:1038B000DD4B5C69046098690860104610BDC04625
:1038C000B0B54C1EA141421E054695410D40012D4B
:1038D00007D1AD49D44A51182246FCF75EFC0021BD
:1038E00001552846B0BDC04670B50246872801D3B1
:1038F000002300E001234C1E0846A0411840012887
:103900000AD128235343D64AD218203238CA38C1A4
:1039100038CA38C178CA78C170BDC046002805D001
:10392000CF494979872900D300210170411E884180
:103930007047C046CA48C08B7047C046C848808B95
:103940007047C04687207047B0B54C1EA141421E4B
:10395000054695410D40012D06D1C1490831224649
:10396000FCF71BFC002101552846B0BDB0B54C1E2C
:10397000A141421E054695410D40012D07D1A9499F
:10398000B74A51182246FCF708FC00210155284689
:10399000B0BDC046B0B54C1EA141421E0546954182
:1039A0000D40012D07D1AD49AD4A51182246FCF713
:1039B000F4FB002101552846B0BDC046AA48007856
:1039C0007047C046A84900220A7048604A70704794
:1039D000A548012101707047B0B5FFF759FEFFF708
:1039E0009DFE002808D03F484078072811D80121C3
:1039F0008140A82001420CD0FFF782FE002809D0A8
:103A000054480DF01FFC3748092141700DE035493D
:103A10004870B0BD334D68787844007940008744E1
:103A20000C1D2E1146523A5817044B480DF00AFC53
:103A30002C48012181700020E9E728780028E8D08F
:103A40000120E4E7FFF76AFE0028E2D10420DEE768
:103A500025A00DF0F7FB00202870D8E73C480DF0BA
:103A6000F1FB6868002806D0D74CD94A214601F0FE
:103A7000D7F9D94960500020A8700220C7E7334821
:103A80000DF0E0FB0020D049D04AFFF7C3FE00282C
:103A900017D00320BBE721A00DF0D4FBD048CA49C2
:103AA000CA4AFFF7B7FE00280BD00720AFE7264829
:103AB0000DF0C8FBC449C5480246FFF7ABFE00281D
:103AC0000DD10920A3E7FFF729FE0028A1D1062088
:103AD0009DE7FFF723FE00289BD1082097E70520EC
:103AE00095E7C0465C01002046534D20476572654E
:103AF0006E636961646F723A2053616C76616D65C3
:103B00006E746F20617373696E63726F6E6F206382
:103B10006F6E636C7569646F2E0D000046534D2007
:103B2000476572656E636961646F723A20457363BD
:103B3000726576656E646F206261636B75702032AA
:103B40002E2E2E0D00000000F23C01081B3D010846
:103B50004A3D0108BF3C01087F3D0108B0B504465D
:103B600000280CD00848984D281814222146FCF74C
:103B700014FB064800212954924801210170601E5F
:103B800084412046B0BDC0464C1500005F150000C2
:103B9000862804D88B4901220A708B4948718728EE
:103BA00001D30020704701207047C046854A01219B
:103BB0001170854AD08308467047C046814A01216A
:103BC0001170814A908308467047C046B0B50446DC
:103BD00000280BD07C4D284608300A222146FCF7ED
:103BE000DCFA7848012101700020A874601E84412D
:103BF0002046B0BD5C010020B0B5044600280CD0C2
:103C00007A48714D281810222146FCF7C6FA074859
:103C1000002129546B4801210170601E8441204617
:103C2000B0BDC046C816000040160020D7160000E0
:103C3000B0B5044600280CD00848634D281814225B
:103C40002146FCF7AAFA0748002129545D480121C2
:103C50000170601E84412046B0BDC046381500008A
:103C6000401600204B1500005C010020F0B583B029
:103C700054484068002818D00024534E534F204623
:103C800031463A46FFF782FD01210291504A002851
:103C90000ED0514835584B484068314601F0C0F8C5
:103CA000A8420AD1029803B0F0BD002003B0F0BDD5
:103CB000484800210CF0DCFD05E0024647480021A1
:103CC0002B460CF0D5FD404E384631463A46FFF7BC
:103CD0005DFD002813D0404835583A4A50683146B7
:103CE00016463B4A01F09CF80246A8420299084653
:103CF00064D03A4835492B460CF0BAFD04E035480B
:103D000032490CF0B5FD2F4E35482F4D29463A4625
:103D1000FFF73CFD002811D02F482B490F58706841
:103D20002B4A01F07DF80246B8420299084645D078
:103D30002A482B493B460CF09BFD03E025482849C7
:103D40000CF096FD281D2449FCF71CFA254801219A
:103D5000019129606121A860E9602C827F20C00563
:103D600068612148E8612148281821494CC94CC0A4
:103D70000A8802808978817087271E4E2846203065
:103D800031681022FCF709FA30202C5428463130D3
:103D90000A221949FCF7DDF928463030F16A326B06
:103DA000C2828182B1692964C472283540367F1E7F
:103DB000E4D1044E0198307020460299317003B06E
:103DC000F0BDC0465C01002040160020DC1600005B
:103DD000B6050000393C0108D81600006F3C010808
:103DE000B82D000073656E6805000200C81600005B
:103DF000EC73010814180108FC730108F0B581B0D8
:103E0000134D69780A224A4380181249401880B23B
:103E1000114E7178884219D2400030180421445E56
:103E20000EA021460CF024FD748000273770E0B20C
:103E3000FFF7AEFE777001226A702A7085200002BB
:103E40001449FEF77FFE0820FEF77AFD01B0F0BDB1
:103E500030000020F6FF0000A001002053656C65D3
:103E600063616F2076696120706573717569736134
:103E700020636F6E6669726D6164612E20496E64A5
:103E800069636520646F204772616F3A2025642E54
:103E90000D0A00008F640108F0B58FB00646C64CCD
:103EA00000276770FFF74EFD0546002E009069D091
:103EB0003078002866D0002D00D147E1029603E05B
:103EC0007F1CAF4200D141E1F8B205A9FFF70CFD1C
:103ED0000028F5D0317805A803910029014600D0CB
:103EE00000210078002831D00197354605AE06E064
:103EF000049D6D1C01467078761C00282FD02F7809
:103F0000002F27D004950D46FCF71DF904463846CE
:103F1000FCF719F9844204D1002D3046E8D0284638
:103F2000E6E7002D00D06E1C3078FCF70CF9074650
:103F30000398FCF708F98742314600D000218742F8
:103F400001D0029DD7E70298451CD4E703980006EC
:103F50000CD10CE0984C009D029E019F07E0287850
:103F6000954C009D029E019F000600D00021002973
:103F7000A6D060781328A3D8411C61704000201897
:103F800087809DE76178002D00D1E3E0132900D9F7
:103F9000E0E04800201800228280481C022D00D258
:103FA000EAE0122900D9E7E04000201801228280CF
:103FB000881C032D00D2DFE0112900D9DCE040008D
:103FC000201802228280C81C042D00D2D4E01029BF
:103FD00000D9D1E04000201803228280081D052D61
:103FE00000D2C9E00F2900D9C6E040002018042201
:103FF0008280481D062D00D2BEE00E2900D9BBE00C
:104000004000201805228280881D072D00D2B3E0D1
:104010000D2900D9B0E04000201806228280C81D7A
:10402000082D00D2A8E00C2900D9A5E040002018F6
:104030000722828008460830092D00D29CE00B2917
:1040400000D999E0400020180822828008460930F3
:104050000A2D00D290E00A2900D98DE040002018F6
:104060000922828008460A300B2D00D284E00929FB
:1040700000D981E0400020180A22828008460B30D7
:104080000C2D79D3082977D8400020180B22828084
:1040900008460C300D2D6FD307296DD8400020182D
:1040A0000C22828008460D300E2D64D3062962D87A
:1040B0004000414A10180D22828008460E30009AB6
:1040C0000F2A58D3052956D840003B4A10180E2213
:1040D000828008460F30009A102A4CD304294AD80F
:1040E0004000354A10180F228280102208461043E3
:1040F000009B112B3FD303293DD843002E4CE318DE
:104100009A800A461132009B122B53D3122851D8A1
:104110005000294A10181122828008461230009A55
:10412000132A29D3012927D84000234A1018122224
:10413000828008461330009A142A1DD300291BD10F
:104140004000201813218180142015E06078002899
:1041500013D102E0084600280FD1184831460CF070
:1041600087FB3C20FEF7ECFB154816A11822FEF752
:10417000E9FC0FB0F0BD104C6070EB4901224A70B1
:10418000401EC0B2CD234343D80A431C0B7005AC7C
:10419000124920460CF098FB2046FCF715F88521C3
:1041A000090282B208462146FEF7CCFC00F018F85E
:1041B0000FB0F0BD1046DFE7A00100200A72010831
:1041C000964000004E656E68756D206772616F20C5
:1041D000656E636F6E747261646F210056720108C0
:1041E000F0B58BB0F64840780A2141437F4FCE1995
:1041F0003046083880B2F34D69787D4C88420DD244
:1042000040002818007901A9FFF76EFB00280CD0A8
:104210002046203880B201A9102204E02046203830
:1042200080B2C2490122FEF78DFCF01F80B269788E
:1042300088420AD240002818007901A9FFF754FBF0
:10424000002807D001A9102201E0B8490122204628
:10425000FEF778FCB01F3840697888420DD24000E4
:104260002818007901A9FFF73FFB00280CD0204651
:10427000203080B201A9102204E02046203080B214
:10428000AA490122FEF75EFC701F80B2697888425D
:104290000DD240002818007901A9FFF725FB00285E
:1042A0000CD02046403080B201A9102204E0204604
:1042B000403080B29D490122FEF744FC301F384057
:1042C000697888420CD240002818007901A9FFF7CC
:1042D0000BFB00280AD06034A0B201A9102203E031
:1042E0006034A0B291490122FEF72CFCF01E80B28E
:1042F0006978404C88420DD240002818007901A905
:10430000FFF7F2FA00280CD02046203880B201A92D
:10431000102204E02046203880B284490122FEF7B2
:1043200011FCB01E3840697888420AD24000281833
:10433000007901A9FFF7D8FA002807D001A91022B7
:1043400001E07A4901222046FEF7FCFB701E80B294
:10435000697888420DD240002818007901A9FFF73A
:10436000C3FA00280CD02046203080B201A91022C8
:1043700004E02046203080B26C490122FEF7E2FBC7
:104380003740687887420DD278002818007901A953
:10439000FFF7AAFA00280CD02046403080B201A9CD
:1043A000102204E02046403080B260490122FEF72E
:1043B000C9FB701C80B2697888420CD24000281872
:1043C000007901A9FFF790FA00280AD06034A0B262
:1043D00001A9102203E06034A0B254490122FEF783
:1043E000B1FB6520FEF7ACFA0BB0F0BDFEFF00009C
:1043F0002082000020830000B0B582B00AA00CF03B
:1044000021FF894D0120287001AC0020207020463A
:10441000FFF784FA207868800BF022FE6620FEF712
:104420008FFA02B0B0BDC0464772616F735F4861DA
:104430006E646C65723A20456E7472616E646F20B2
:104440006E612074656C612064652073656C6563C2
:10445000616F206465206772616F732E0D0000002C
:10446000B0B50446234D2878012841D1FFF76AFAF8
:1044700000283DD0611E05293AD8C0467944097903
:1044800049008F4402190E3535240220295E28A0E8
:104490000CF0EEF900242C70A878FFF779FB6C7013
:1044A0001AE06988491E0AB2002A00D5411E6980B7
:1044B00008B20BF0D5FDB0BD6988491C0AB2824232
:1044C000F5DB0021698008B20BF0CAFDB0BD0AA07F
:1044D0000CF0B8FE002028801348012242700270C0
:1044E000852000021149FEF72DFB0820FEF728FA6F
:1044F000B0BDC046A00100204772616F735F486184
:104500006E646C65723A2053656C6563616F202838
:10451000766961207365746173292063616E6365D8
:104520006C6164612E0D0000300000208F64010872
:104530004772616F735F48616E646C65723A2047C1
:1045400072616F2028766961207365746173292018
:10455000696E6469636520272564272073656C652F
:1045600063696F6E61646F2E0D0A0000B0B582B092
:10457000134D2C78022C20D31248007801281CD12E
:1045800068782146FCF7E3F8491C69700EA02246C2
:104590000CF06EF96A782B786C46154920460CF0C1
:1045A00093F92046FBF710FE8521090282B20846E6
:1045B0002146FEF7C7FAFFF713FE02B0B0BDC046B2
:1045C00030000020A0010020506167696E616361C6
:1045D0006F3A204D7564616E646F20706172612066
:1045E000706167696E612025642F25640D0A0000E3
:1045F0005672010880B586B00B4A1278012A10D194
:10460000801D891F89B201AA1123FEF7E7FA00284D
:1046100004D001A8FFF740FC06B080BD03A00CF059
:1046200011FE06B080BDC046A001002046616C6846
:104630006120616F20657874726169722074657899
:10464000746F206461207065737175697361206493
:104650006F207061796C6F6164204457494E2E0D54
:1046600000000000F0B587B0002506955422825C5A
:10467000012A03D10224204607B0F0BD0646543675
:1046800001243470026893685B0714D407694B688F
:10469000022B18D104200743994887426DD19748CF
:1046A000C0430B68D9430143906A084090620024DC
:1046B000002B66D4D2E0816D20220A4382653570DA
:1046C000204607B0F0BD059304231F438C4CA7423E
:1046D00062D10F683846894B1840936A034393624E
:1046E000380253698343896801408648084018436B
:1046F00050610024002F00D4B0E0032082058248DE
:104700000368194611403846804F0490B84200D0E3
:1047100096E07A4F7F1CB94200D391E07A48036853
:1047200093431943754A5118491C01607948006840
:104730007949FCF70CF80C214143481C0690069877
:10474000002800D18AE00698401E069006980028AE
:1047500000D183E00698401E0690069800287DD080
:104760000698401E06900698002877D00698401EAE
:10477000069006980028E6D170E00B680024002B14
:104780006CD5FA480168624A93426BD05F4A934203
:1047900064D10122920567E01F27059C27400F2462
:1047A00000940397BC40076E0194A74302970C68DE
:1047B000524F3C42049462D0E4072F4667D1049FD5
:1047C000BC075FD47C075FD43C075FD4FC061F4660
:1047D0005DD4049CA30671D4630671D4230671D4FE
:1047E000E30571D4049B9B0570D4049B5B056FD4D7
:1047F000049B1B056ED4049BDB046DD4049B9B04BB
:104800006CD4049B5B046BD4049B1B04009F3ED4BC
:10481000049BDB0366D4049B9B0365D4049B5B036E
:1048200064D4049B1B0363D4049BDB0262D4049B0B
:104830009B0261D4049B5B02DB1716271F4026E016
:10484000334F0498B84209D10127BF053B4005D139
:10485000C64803689343194339430BE0357020463B
:1048600007B0F0BD254A521C11400322920503688F
:104870009343591801603570204607B0F0BD6300BE
:10488000DF0E04E0012702E0022700E00327039C7B
:10489000A740029B1F430766059B9B08C06998427F
:1048A0000AD90198C043936A0340049FB800000FDF
:1048B000A0401843906213E7049F11E70527E6E73D
:1048C0000627E4E70727E2E70827E0E70927DEE70E
:1048D0000A27DCE70B27DAE70C27D8E70D27D6E70E
:1048E0000E27D4E71027D2E71127D0E71227CEE70B
:1048F0001327CCE71427CAE71527C8E7FFFF7F0077
:104900000400008000FFFF7F08270140000200A490
:10491000000400A834000020400D03000068006C73
:1049200070470000F0B589B0044600200890002CC4
:1049300076D00790A06D002807D125465435204633
:1049400000F016F900202870E06501273D07266871
:10495000B068C00026D4B0687F4901402943B160E7
:104960007E4800687E49FBF7F2FE400008900898F8
:10497000002817D00898401E08900898002811D0E9
:104980000898401E0890089800280BD00898401EF0
:1049900008900898002805D00898401E08900898AC
:1049A0000028E7D1B068284208D1A06D102101434A
:1049B000A165E06D012107910843E065B06804211D
:1049C0000140A26D102002405118A16D2BD106901C
:1049D0000F20C7433A46F33A1140891CA165B168DC
:1049E000C9077DD10390049727462037216B4A1EC3
:1049F00091410D03A168227E92030A43617EC9039F
:104A00001143A27E50030843E36803432B43012074
:104A1000C507216900290590029509DAA94308E034
:104A2000012009B0F0BD0143A165384609B0F0BDD1
:104A300041050B43387B45001D433878012809D1D7
:104A4000002A11D0A06D20210143A165E06D0599D8
:104A50000843E065626A002A0CD00720800102400A
:104A6000A16A1143294306E0059800040543626AE0
:104A7000002AF2D12946F0683A4A02400A43F2601D
:104A80000320820763681D461540E16C387F0128CA
:104A90000ED1206C0090676CA06C019000980743C9
:104AA000019807432F430F43059807433D4600E015
:104AB0000D43049F30692C4901402943316102981C
:104AC000834203990CD093420AD005988007834211
:104AD00006D08804034025490A688243D01808603C
:104AE000706907229043656B28437061706970217B
:104AF0008843A16B090101437161216901235805B4
:104B0000814203D000290BD1B06A07E0B06AE069A6
:104B100080001C301C2101408F40206E3843B06261
:104B200070691040A8420AD10020E065A06D012103
:104B3000014302208143A165079809B0F0BDA06D33
:104B40000699084302218843A065E06D1843E0659B
:104B5000184609B0F0BDC046E8FFFF6F34000020E2
:104B6000400D03000102DEFF02FCFF1F0827014089
:104B700080B58AB0002109910891079106910591AD
:104B80000491039100680D49884201D00AB080BDAC
:104B90002020029002A802F081FB002801D0FEF73D
:104BA00061FE0120000506490A6802430A6009689F
:104BB0000140019101980AB080BDC0460024014027
:104BC00040100240F0B581B00D4604464069082807
:104BD00001D1082704E02068C068C0073FD104273E
:104BE00000F08AFC06462168086838421CD0012083
:104BF0004202A36D1343A365CA681205920F4AD1FE
:104C0000A27E002A47D10A68120744D58A68520753
:104C100038D4224658324B680C25AB434B60FF25F5
:104C200002351368AB4334E0002D1FD0681C10D14F
:104C300008683842DBD108683842D8D10868384261
:104C4000D5D108683842F3D0D1E7216808683842E6
:104C5000CDD100F051FC801BA842F6D908E0A06D30
:104C600020210143A165012001B0F0BD00F044FC0A
:104C7000542000212154A06D04210143A16503208B
:104C800001B0F0BDA26D20231343A36522465C3220
:104C9000E36D03431360227E0020002A01D001B09F
:104CA000F0BD0C220A6001B0F0BD000070B50146F5
:104CB000006882680220520711D454228A5C012ABB
:104CC0000DD00C4654340120054620700E4608468F
:104CD000FCF7AEFA002803D000202070284670BDF3
:104CE000B06D09490140012000020818B06500209C
:104CF000F06531681C220A6020708A68304B1340CE
:104D00001A1D8A6070BDC046FEF0FFFFF0B581B08D
:104D100004465420205C012802D1022001B0F0BDDD
:104D200026465436012737702068816849071FD40A
:104D300081688268D20737D00222114034D181685D
:104D400005220A40012A27D181681D4A0A40911C88
:104D500081600321016000F0CFFB05462068806878
:104D6000C00721D000F0C8FB401B0328F6D313E096
:104D70008168890704D48168114A0A401032826030
:104D800000F0BAFB0546206881684907D0D500F0DD
:104D9000B3FB401B0328F6D3A06D10210143A1658E
:104DA000E16D5C34384605E0FF200230A16D81439F
:104DB00058340020002232703943216001B0F0BD28
:104DC000E8FFFF7F70B503460120CC0720D0114CCF
:104DD0000C40651EAC4103261546F541032D17D83E
:104DE0007D442D796D00AF440B0105090B4C0C403F
:104DF0000ED105E0084C0C400AD101E0002C07D18F
:104E0000186841618168182399431143816000202B
:104E100070BDC04680FFFF7F00FFFF7F0000FF7F67
:104E2000F0B584B00E46022141770468A1680125DF
:104E30002943A160016A01291ED002290ED003294D
:104E400028D1002A00D103E103950325114629400A
:104E5000042A00D3D2E033460025DEE057081ED0F6
:104E6000039503213B460B4000937B1E032B0296C8
:104E700001971AD2002133E0970814D00395032339
:104E8000394619400091791E03290296019349D2AF
:104E900000257AE000214577084604B0F0BD0021E6
:104EA000D2073CD1D4E000219EE08F43002135465B
:104EB0006B882E883604F3182360EB88AE8836049E
:104EC000F31823606B892E893604F3182360EB896D
:104ED000AE893604F31823601035091D8F42E7D1DF
:104EE000009F002F029E14D08B00F1184D88F35ABA
:104EF0001B045B192360012F0BD0CB888D882D04F8
:104F0000EB182360022F04D04B8909890904C918C2
:104F1000216001998900039DD20700D198E0715A60
:104F2000218095E09F43002531460E7836064B7868
:104F30001B049B198E7836029B19CE789B1923602F
:104F40000B791B064E793604F3188E7936029B19BD
:104F5000CE799B1923600B7A1B064E7A3604F31820
:104F60008E7A36029B19CE7A9B1923600B7B1B0627
:104F70004E7B3604F3188E7B36029B19CE7B9B1931
:104F8000236010312D1DAF42CFD1009F002F029E14
:104F900026D0A900735C1B0671184D782D04EB1800
:104FA0008D782D025B19CD785B192360012F17D006
:104FB0000B791B064D792D04EB188D792D025B19A9
:104FC000CD795B192360022F0AD00B7A1B064D7A2C
:104FD0002D04EB188D7A2D025B19C97A59182160BE
:104FE0001146019B9943039D03231A407A44127989
:104FF000520097442C011C24715C27E0AA43002531
:1050000033463768276077682760B7682760F76896
:10501000276010362D1DAA42F3D1002905D0AA0021
:105020001D469B582360012917D1039D10E072187B
:105030005278715C090289182180046808E07218AE
:105040005378715C0902C918218091782170046835
:1050500021684577084604B0F0BDAA18536823605C
:105060000229039DF4D091682160F1E7B0B50125D4
:10507000002814D00446407F002804D10020207767
:10508000204600F031F8022060772079002808D00F
:10509000A168E2682046FFF795FE002808D0284660
:1050A000B0BD20680F494161816818229143816039
:1050B00000256079002801D0216900E0E9432068DB
:1050C000016181686022914362690A43826081685C
:1050D00080229143A2690A438260012060772846BA
:1050E000B0BDC046B71DC10481B000680849884200
:1050F00001D001B070470120000306490A6802434D
:105100000A60096801400091009801B07047C046EC
:10511000003002403810024070B500282CD0014603
:1051200024314A78022A29D1046822680E239A433E
:105130002260426C1568314B1D40156025680122C4
:1051400095432560046C1C2525401446AC402C4D2D
:105150002E6826432E60846CC56C6560046D002C3F
:1051600005D025681D402560436D806D58604A70EC
:10517000002000220A7070BD012070BD0422C263AD
:10518000012000220A7070BD70B52421012444540E
:10519000014624314A78022A2BD103681A680E246A
:1051A000A2431A601C68012294431C60446C256869
:1051B000124B1D402560046C1C2525401446AC4054
:1051C0000F4D2E6826432E60846CC56C6560046D9F
:1051D000002C05D025681D402560436D846D5C6002
:1051E00000240C704A70816B002900D0884720464B
:1051F00070BD0421C163204670BDC046FFFEFFFFA5
:10520000040002402521405C70470000B0B5044610
:1052100000F072F90546601C02D00448007824189A
:1052200000F06AF9401BA042FAD3B0BD080000208C
:10523000F0B58AB00390002970D00E46A648039AB4
:10524000824201D0062000E005200B221207039BBA
:105250009B180A22D3410293042B00D30290039897
:1052600020300190002739463C463A46009626E019
:105270008F40039D2868384328601C203C46099FC6
:105280003840069107998140D0088000019E33582C
:105290008B4306993350A868A043A8606868089EAD
:1052A000B0436860E868A043E860009E059C521C1B
:1052B0003046D0403F1D891C083400282ED00120E4
:1052C000904005463540F2D0089009971820059483
:1052D00020400F240794844003271646BE437F4B8B
:1052E0009B1904931E6E06942640029B83409E42A7
:1052F000BED1049C60347A4B1868A8431860586883
:10530000A8435860754B1868A84318605868A843AC
:1053100058602068069B98432060A9E70AB0F0BD5A
:1053200080B5202801D1FEF7ADF980BDB0B50446A7
:10533000074D2868204203D02C60204600F00AF870
:105340006868204203D06C602046FFF7E9FFB0BDDB
:105350000C18024070470000F0B58AB00690099121
:105360000B68002B00D1B4E05B480699814201D064
:10537000062000E005200B221207069989180A2250
:10538000D1410091042900D300900698203001906B
:1053900000252E46079529460FE01A4362600899BA
:1053A000491C099803681846C8400835B61C079A76
:1053B000121D0792002800D18BE00124204608919D
:1053C000884003400393EAD0049509994A68102164
:1053D0001143122915D11C21079A114005960F2659
:1053E00032468A40089BDB089F00019BDD599543AC
:1053F000099A12693240059E8A402A43DA51099976
:105400004A68032311461940B1400293B34037461E
:10541000069E35689D430D4335603E46D943059150
:10542000122A049D15D894402E490C420FD0069C98
:10543000A168059B1940099BDB68B3400B43A3603F
:105440001109089B9940636883430B436360032AF7
:10545000A5D0069BD8680599084009998968B1408C
:105460000143D960D0009AD5182028400F218140EF
:10547000089A029B9A43194CA218136E8B43009909
:105480008140194311661648026809984068C103B3
:1054900002D5039B1A4301E0039B9A4310490A601B
:1054A0004A68810301D51A4300E09A430C494A60D7
:1054B0002268C10205D51A4322606268800206D5BF
:1054C0006BE79A4322606268800200D565E79A43E1
:1054D00064E70AB0F0BDC046001400500018024056
:1054E0008018024006000600002A02D018228150CF
:1054F0007047282281507047014800687047C046B5
:10550000642D0020B0B50246034640335C7802208B
:10551000202C17D11C78012C14D02420587010682E
:1055200002680124A24302602203056895430560D6
:1055300002680A430260016821430160002018707C
:1055400020215970B0BDB0B50246034640335C78A7
:105550000220202C17D11C78012C14D02420587044
:10556000106802680124A24302600F22120205683B
:10557000954309022943016001682143016000202D
:10558000187020215970B0BD70477047B0B5002821
:1055900012D0054640352421697001680A6801234C
:1055A0009A430A60044600F025FC0020606468709D
:1055B00020632870A870B0BD0120B0BDF0B581B0E7
:1055C0000122150201688B691C462C406642664127
:1055D0000F6880243C4067426741374304D1466CE2
:1055E000012737434764CD61654265415E05164634
:1055F00000D52E46002E05D19502466C082737436C
:105600004764CD61654265419B05134609D4002B73
:105610000AD0416C0B22114201D004F08FF801B086
:10562000F0BD2B46002BF4D15202436C02241C43E4
:105630004464CA61416C0B221142EED1EFE780B5A0
:1056400002689169436B1268002B00D0984780BDB7
:1056500010B50168074C22691268914200D010BD54
:10566000416C05A00BF004F9012020710520207089
:1056700010BDC04640010020454550524F4D2044CA
:1056800072697665723A2048414C5F4932435F4502
:1056900072726F7243616C6C6261636B20616369EB
:1056A0006F6E61646F21204572726F3A20307825E9
:1056B0006C580D0A00000000F0B581B0002822D01F
:1056C000054640356978002905D100212970044636
:1056D00000F0AAFB20462421697001680B680122B2
:1056E00093430B600F231B0644689C430C618C683A
:1056F0001C4B1C408C608468C668012E06D1D60302
:1057000034438C600CE0012001B0F0BD2127BF02C2
:105710003C438C60022E03D1D4024E68264302E043
:10572000D4024E68A6434E604C680F4E26434E602E
:10573000CC681C40CC60036944691C4383691B022C
:105740002343CB60C369046A1C430C600B6813439A
:105750000B600021416420226A7001630846A97031
:1057600001B0F0BDFF7FFFFF00800002F0B589B0FF
:1057700007930546002408940346403358780227CF
:10578000202800D090E028688069000400D58BE0D4
:105790001878012800D187E0242058700120039355
:1057A0000290187004946C64D848014006920591E8
:1057B00013E0C46100972024002228462146079B5D
:1057C00004F07AFD00285DD00898401C08900898E5
:1057D0000898069A904205995ED2E86801283448F4
:1057E00000D03448401829684860FFF785FE074616
:1057F0002868816920263140826910242240891856
:105800002BD10799491C10D00798002842D0FFF7E8
:1058100073FEC01B079988423ED8286881693140D1
:10582000826922408918F2D017E08169314082698B
:105830002240891811D1816931408269224089183A
:105840000BD18169314082692240891805D1816973
:105850003140826922408918E7D08169C906A8D4FD
:10586000009720240027284621463A46079B04F04B
:1058700023FD002809D0686C0428A5D12868C461DC
:105880006F64A1E72868C4619EE72868C461039932
:105890004C7007E0FFF730FE03994E70686C3043A0
:1058A0006864029F04980870384609B0F0BDC0468D
:1058B00000200002002800027047704770477047C0
:1058C00010B5074C006821690968884207D1207823
:1058D000022804D1FFF710FEA0610320207010BD44
:1058E00040010020F0B589B0044606464036757880
:1058F0000220202D09D10E9F002F08D00F9D002DD2
:1059000005D007953578012D06D109B0F0BD0120ED
:105910004102616409B0F0BD0397059302920691BC
:10592000012008903070FFF7E7FD0246206881698A
:1059300009042FD410990491222171704021B17073
:105940000027676407996185039961626763F94974
:10595000069B0B400599C9B209040693C918436810
:10596000F54D2B40C918012308935B03C91841600A
:1059700020460499154604F05FFD002846D10397A0
:10598000079520680599012926D10299C9B281623B
:10599000079D31E00898C50302E081692942C9D01A
:1059A00019212046174604F0E5F9002811D1FFF728
:1059B000A3FDC11B20681A293A46EED3816929420A
:1059C000EBD0606C2021084360647170002030705F
:1059D000B070089809B0F0BD0299090A81622046AA
:1059E0000499079D2A4604F027FD0028039F0DD146
:1059F00021680298C0B288620095402100222046AA
:105A0000049B04F059FC0028039F03D037700898CA
:105A100009B0F0BD608D000A07D020684168F24AE5
:105A20001140021DFF203B4B09E0608D2268536846
:105A3000ED490B40C1B209041943121D344B069FB6
:105A40001943394311602085012008904006381819
:105A50000590079A049D0FE0608D208521684A68B3
:105A6000B74B1A40C0B20004059B1843104348606E
:105A7000079A608D002834D0009204210027204628
:105A80003A462B4604F018FC0028A2D1606A21682F
:105A9000496A0170608D401E6085606A401C6062CA
:105AA000208D401E2085618D0029079AE1D00004D9
:105AB000DFD100928021002220462B4604F0FCFB1F
:105AC000002886D1608D000AC6D0FF20208521687D
:105AD0004A689B48024006980243984802434A603D
